{"standalone-v4ultra/OrphiCrowdFundV4UltraSecureTest.sol":{"OrphiCrowdFundV4UltraSecureTest":{"abi":[{"inputs":[{"internalType":"address","name":"_token","type":"address"},{"internalType":"address","name":"_admin","type":"address"}],"stateMutability":"nonpayable","type":"constructor"},{"inputs":[],"name":"InsufficientUplineChain","type":"error"},{"inputs":[],"name":"InvalidMatrixPosition","type":"error"},{"inputs":[],"name":"MaxUsersReached","type":"error"},{"inputs":[],"name":"OverflowDetected","type":"error"},{"inputs":[],"name":"RateLimitExceeded","type":"error"},{"inputs":[],"name":"SecurityViolationError","type":"error"},{"inputs":[],"name":"SystemLockedError","type":"error"},{"anonymous":false,"inputs":[{"indexed":true,"internalType":"address","name":"user","type":"address"},{"indexed":false,"internalType":"uint256","name":"totalEarnings","type":"uint256"}],"name":"EarningsCapReached","type":"event"},{"anonymous":false,"inputs":[{"indexed":true,"internalType":"address","name":"user","type":"address"},{"indexed":false,"internalType":"uint256","name":"timestamp","type":"uint256"}],"name":"KYCVerified","type":"event"},{"anonymous":false,"inputs":[{"indexed":true,"internalType":"address","name":"user","type":"address"},{"indexed":false,"internalType":"uint8","name":"oldRank","type":"uint8"},{"indexed":false,"internalType":"uint256","name":"inactivityPeriod","type":"uint256"}],"name":"LeaderDemoted","type":"event"},{"anonymous":false,"inputs":[{"indexed":true,"internalType":"address","name":"user","type":"address"},{"indexed":false,"internalType":"uint8","name":"oldRank","type":"uint8"},{"indexed":false,"internalType":"uint8","name":"newRank","type":"uint8"},{"indexed":false,"internalType":"uint256","name":"timestamp","type":"uint256"}],"name":"LeaderRankChanged","type":"event"},{"anonymous":false,"inputs":[{"indexed":false,"internalType":"uint256","name":"amount","type":"uint256"},{"indexed":false,"internalType":"uint32","name":"recipients","type":"uint32"},{"indexed":false,"internalType":"uint256","name":"timestamp","type":"uint256"}],"name":"LeftoverDistributed","type":"event"},{"anonymous":false,"inputs":[{"indexed":true,"internalType":"address","name":"user","type":"address"},{"indexed":true,"internalType":"uint32","name":"userId","type":"uint32"},{"indexed":false,"internalType":"uint32","name":"matrixPosition","type":"uint32"},{"indexed":true,"internalType":"address","name":"parent","type":"address"}],"name":"MatrixPlacement","type":"event"},{"anonymous":false,"inputs":[{"indexed":false,"internalType":"string","name":"operation","type":"string"},{"indexed":false,"internalType":"uint256","name":"value","type":"uint256"},{"indexed":false,"internalType":"uint256","name":"limit","type":"uint256"}],"name":"OverflowProtection","type":"event"},{"anonymous":false,"inputs":[{"indexed":true,"internalType":"address","name":"previousOwner","type":"address"},{"indexed":true,"internalType":"address","name":"newOwner","type":"address"}],"name":"OwnershipTransferred","type":"event"},{"anonymous":false,"inputs":[{"indexed":false,"internalType":"address","name":"account","type":"address"}],"name":"Paused","type":"event"},{"anonymous":false,"inputs":[{"indexed":true,"internalType":"uint8","name":"poolType","type":"uint8"},{"indexed":false,"internalType":"uint256","name":"amount","type":"uint256"},{"indexed":false,"internalType":"uint32","name":"timestamp","type":"uint32"}],"name":"PoolDistributed","type":"event"},{"anonymous":false,"inputs":[{"indexed":true,"internalType":"address","name":"user","type":"address"},{"indexed":false,"internalType":"string","name":"violation","type":"string"},{"indexed":false,"internalType":"uint256","name":"timestamp","type":"uint256"}],"name":"SecurityViolation","type":"event"},{"anonymous":false,"inputs":[{"indexed":false,"internalType":"string","name":"reason","type":"string"},{"indexed":false,"internalType":"uint256","name":"timestamp","type":"uint256"}],"name":"SystemLocked","type":"event"},{"anonymous":false,"inputs":[{"indexed":false,"internalType":"uint256","name":"timestamp","type":"uint256"}],"name":"SystemUnlocked","type":"event"},{"anonymous":false,"inputs":[{"indexed":false,"internalType":"address","name":"account","type":"address"}],"name":"Unpaused","type":"event"},{"anonymous":false,"inputs":[{"indexed":true,"internalType":"address","name":"user","type":"address"},{"indexed":true,"internalType":"uint32","name":"id","type":"uint32"},{"indexed":true,"internalType":"address","name":"sponsor","type":"address"},{"indexed":false,"internalType":"uint16","name":"tier","type":"uint16"}],"name":"UserRegistered","type":"event"},{"inputs":[],"name":"DIST_INTERVAL_GHP","outputs":[{"internalType":"uint256","name":"","type":"uint256"}],"stateMutability":"view","type":"function"},{"inputs":[],"name":"DIST_INTERVAL_LEADER","outputs":[{"internalType":"uint256","name":"","type":"uint256"}],"stateMutability":"view","type":"function"},{"inputs":[],"name":"EARNINGS_CAP","outputs":[{"internalType":"uint256","name":"","type":"uint256"}],"stateMutability":"view","type":"function"},{"inputs":[],"name":"LEADER_DEMOTION_PERIOD","outputs":[{"internalType":"uint256","name":"","type":"uint256"}],"stateMutability":"view","type":"function"},{"inputs":[],"name":"MAX_CHILDREN_PER_NODE","outputs":[{"internalType":"uint256","name":"","type":"uint256"}],"stateMutability":"view","type":"function"},{"inputs":[],"name":"MAX_MATRIX_DEPTH","outputs":[{"internalType":"uint256","name":"","type":"uint256"}],"stateMutability":"view","type":"function"},{"inputs":[],"name":"MAX_USERS","outputs":[{"internalType":"uint256","name":"","type":"uint256"}],"stateMutability":"view","type":"function"},{"inputs":[],"name":"MIN_UPLINE_CHAIN","outputs":[{"internalType":"uint256","name":"","type":"uint256"}],"stateMutability":"view","type":"function"},{"inputs":[],"name":"REGISTRATION_COOLDOWN","outputs":[{"internalType":"uint256","name":"","type":"uint256"}],"stateMutability":"view","type":"function"},{"inputs":[],"name":"addToClubPool","outputs":[],"stateMutability":"nonpayable","type":"function"},{"inputs":[],"name":"admin","outputs":[{"internalType":"address","name":"","type":"address"}],"stateMutability":"view","type":"function"},{"inputs":[],"name":"autoConfig","outputs":[{"internalType":"bool","name":"enabled","type":"bool"},{"internalType":"uint32","name":"maxUsersPerDistribution","type":"uint32"},{"internalType":"uint32","name":"lastProcessedId","type":"uint32"},{"internalType":"bool","name":"isDistributing","type":"bool"},{"internalType":"uint256","name":"gasLimitConfig","type":"uint256"}],"stateMutability":"view","type":"function"},{"inputs":[{"internalType":"bytes","name":"","type":"bytes"}],"name":"checkUpkeep","outputs":[{"internalType":"bool","name":"upkeepNeeded","type":"bool"},{"internalType":"bytes","name":"performData","type":"bytes"}],"stateMutability":"view","type":"function"},{"inputs":[{"internalType":"address","name":"","type":"address"}],"name":"clubMembers","outputs":[{"internalType":"bool","name":"","type":"bool"}],"stateMutability":"view","type":"function"},{"inputs":[],"name":"clubPool","outputs":[{"internalType":"uint64","name":"balance","type":"uint64"},{"internalType":"uint32","name":"lastDistributionTime","type":"uint32"},{"internalType":"uint32","name":"distributionInterval","type":"uint32"},{"internalType":"uint16","name":"memberCount","type":"uint16"},{"internalType":"bool","name":"active","type":"bool"}],"stateMutability":"view","type":"function"},{"inputs":[{"internalType":"uint32","name":"distributionInterval","type":"uint32"}],"name":"createClubPool","outputs":[],"stateMutability":"nonpayable","type":"function"},{"inputs":[{"internalType":"address","name":"","type":"address"}],"name":"dailyWithdrawalAmount","outputs":[{"internalType":"uint256","name":"","type":"uint256"}],"stateMutability":"view","type":"function"},{"inputs":[],"name":"emergencyLock","outputs":[],"stateMutability":"nonpayable","type":"function"},{"inputs":[],"name":"emergencyMode","outputs":[{"internalType":"bool","name":"","type":"bool"}],"stateMutability":"view","type":"function"},{"inputs":[],"name":"emergencyUnlock","outputs":[],"stateMutability":"nonpayable","type":"function"},{"inputs":[],"name":"getPoolBalances","outputs":[{"internalType":"uint64[6]","name":"","type":"uint64[6]"}],"stateMutability":"view","type":"function"},{"inputs":[{"internalType":"address","name":"user","type":"address"}],"name":"getUserInfo","outputs":[{"components":[{"internalType":"uint32","name":"id","type":"uint32"},{"internalType":"uint32","name":"teamSize","type":"uint32"},{"internalType":"uint16","name":"directCount","type":"uint16"},{"internalType":"uint16","name":"packageTier","type":"uint16"},{"internalType":"uint32","name":"matrixPos","type":"uint32"},{"internalType":"uint64","name":"totalEarnings","type":"uint64"},{"internalType":"uint64","name":"withdrawable","type":"uint64"},{"internalType":"uint32","name":"sponsor","type":"uint32"},{"internalType":"uint32","name":"lastActivity","type":"uint32"},{"internalType":"bool","name":"isCapped","type":"bool"},{"internalType":"bool","name":"isKYCVerified","type":"bool"},{"internalType":"uint8","name":"leaderRank","type":"uint8"},{"internalType":"uint8","name":"suspensionLevel","type":"uint8"}],"internalType":"struct OrphiCrowdFundV4UltraSecureTest.User","name":"","type":"tuple"}],"stateMutability":"view","type":"function"},{"inputs":[{"internalType":"address","name":"user","type":"address"}],"name":"isKYCVerified","outputs":[{"internalType":"bool","name":"","type":"bool"}],"stateMutability":"view","type":"function"},{"inputs":[{"internalType":"address","name":"","type":"address"}],"name":"kycVerified","outputs":[{"internalType":"bool","name":"","type":"bool"}],"stateMutability":"view","type":"function"},{"inputs":[{"internalType":"address","name":"","type":"address"}],"name":"lastDailyReset","outputs":[{"internalType":"uint256","name":"","type":"uint256"}],"stateMutability":"view","type":"function"},{"inputs":[{"internalType":"address","name":"","type":"address"}],"name":"lastWithdrawalTime","outputs":[{"internalType":"uint256","name":"","type":"uint256"}],"stateMutability":"view","type":"function"},{"inputs":[{"internalType":"uint32","name":"","type":"uint32"},{"internalType":"uint256","name":"","type":"uint256"}],"name":"matrix","outputs":[{"internalType":"uint32","name":"","type":"uint32"}],"stateMutability":"view","type":"function"},{"inputs":[{"internalType":"uint32","name":"","type":"uint32"}],"name":"matrixParent","outputs":[{"internalType":"uint32","name":"","type":"uint32"}],"stateMutability":"view","type":"function"},{"inputs":[],"name":"owner","outputs":[{"internalType":"address","name":"","type":"address"}],"stateMutability":"view","type":"function"},{"inputs":[{"internalType":"uint256","name":"","type":"uint256"}],"name":"packages","outputs":[{"internalType":"uint64","name":"","type":"uint64"}],"stateMutability":"view","type":"function"},{"inputs":[],"name":"paused","outputs":[{"internalType":"bool","name":"","type":"bool"}],"stateMutability":"view","type":"function"},{"inputs":[{"internalType":"bytes","name":"performData","type":"bytes"}],"name":"performUpkeep","outputs":[],"stateMutability":"nonpayable","type":"function"},{"inputs":[],"name":"pools","outputs":[{"internalType":"uint64","name":"sponsor","type":"uint64"},{"internalType":"uint64","name":"level","type":"uint64"},{"internalType":"uint64","name":"upline","type":"uint64"},{"internalType":"uint64","name":"leader","type":"uint64"},{"internalType":"uint64","name":"ghp","type":"uint64"},{"internalType":"uint64","name":"leftover","type":"uint64"}],"stateMutability":"view","type":"function"},{"inputs":[{"internalType":"address","name":"sponsor","type":"address"},{"internalType":"uint16","name":"tier","type":"uint16"}],"name":"register","outputs":[],"stateMutability":"nonpayable","type":"function"},{"inputs":[{"internalType":"address","name":"","type":"address"}],"name":"registrationCooldown","outputs":[{"internalType":"uint256","name":"","type":"uint256"}],"stateMutability":"view","type":"function"},{"inputs":[{"internalType":"address","name":"user","type":"address"},{"internalType":"bool","name":"status","type":"bool"}],"name":"setKYCStatus","outputs":[],"stateMutability":"nonpayable","type":"function"},{"inputs":[],"name":"state","outputs":[{"internalType":"uint32","name":"totalUsers","type":"uint32"},{"internalType":"uint32","name":"lastUserId","type":"uint32"},{"internalType":"uint32","name":"lastGHPTime","type":"uint32"},{"internalType":"uint32","name":"lastLeaderTime","type":"uint32"},{"internalType":"uint32","name":"lastSecurityCheck","type":"uint32"},{"internalType":"bool","name":"automationOn","type":"bool"},{"internalType":"bool","name":"systemLocked","type":"bool"},{"internalType":"uint96","name":"totalVolume","type":"uint96"}],"stateMutability":"view","type":"function"},{"inputs":[],"name":"token","outputs":[{"internalType":"contract IERC20","name":"","type":"address"}],"stateMutability":"view","type":"function"},{"inputs":[{"internalType":"address","name":"newOwner","type":"address"}],"name":"transferOwnership","outputs":[],"stateMutability":"nonpayable","type":"function"},{"inputs":[{"internalType":"uint32","name":"","type":"uint32"}],"name":"userAddress","outputs":[{"internalType":"address","name":"","type":"address"}],"stateMutability":"view","type":"function"},{"inputs":[{"internalType":"address","name":"","type":"address"}],"name":"users","outputs":[{"internalType":"uint32","name":"id","type":"uint32"},{"internalType":"uint32","name":"teamSize","type":"uint32"},{"internalType":"uint16","name":"directCount","type":"uint16"},{"internalType":"uint16","name":"packageTier","type":"uint16"},{"internalType":"uint32","name":"matrixPos","type":"uint32"},{"internalType":"uint64","name":"totalEarnings","type":"uint64"},{"internalType":"uint64","name":"withdrawable","type":"uint64"},{"internalType":"uint32","name":"sponsor","type":"uint32"},{"internalType":"uint32","name":"lastActivity","type":"uint32"},{"internalType":"bool","name":"isCapped","type":"bool"},{"internalType":"bool","name":"isKYCVerified","type":"bool"},{"internalType":"uint8","name":"leaderRank","type":"uint8"},{"internalType":"uint8","name":"suspensionLevel","type":"uint8"}],"stateMutability":"view","type":"function"}],"evm":{"bytecode":{"linkReferences":{},"object":"60c034620003d557601f62002f8b38819003918201601f19168301916001600160401b0383118484101762000351578084926040948552833981010312620003d5576200005a60206200005283620003da565b9201620003da565b600080546001600160a01b03199081163317909155600180556002805460ff1990811690915560405191939160a081016001600160401b0381118282101762000351576040526301c9c38081526302faf08060208201526305f5e1006040820152630bebc2006060820152631dcd6500608082015260005b6001811062000390575060009060005b6001811062000367575050600c55601480549190911690556001600160a01b031660805260a0526040516101a081016001600160401b0381118282101762000351576040526001815260006020820152600060408201526005606082015260016080820152600060a0820152600060c0820152600060e082015263ffffffff42166101008201526000610120820152600161014082015260006101608201526000610180820152600080526007602052604060002090600163ffffffff8251169263ffffffff199384825416178155620001c763ffffffff6020850151168262000408565b6040830151815460608501516fffffffff000000000000000000000000608087015160601b16906bffff000000000000000000008660801b8760c01b0360a089015160801b169369ffff0000000000000000888060c01b031960c08b015160c01b169660401b1690888060401b0316179160501b16171717178155019163ffffffff60e083015116908354161782556200026d63ffffffff610100830151168362000408565b610120810151151590825469ff000000000000000000610140830151151560481b169068ff00000000000000006bff00000000000000000000006101806aff0000000000000000000061016087015160501b1695015160581b169460401b16906bffffffff0000000000000000191617171717905560016000526008602052604060002090815416905564010000000160035463ffffffff60801b4260801b169060016bffffffff000000000000000160401b0319161717600355604051612b6090816200042b82396080518181816101f70152610d88015260a051816102960152f35b634e487b7160e01b600052604160045260246000fd5b909160206200038660019263ffffffff865116908560031b90620003ef565b93019101620000e2565b6000805b60048110620003ac5750600b820155600101620000d2565b92906020620003cb60019263ffffffff855116908760031b90620003ef565b9201930162000394565b600080fd5b51906001600160a01b0382168203620003d557565b9060031b9160018060401b03809116831b921b19161790565b9067ffffffff0000000082549160201b169067ffffffff00000000191617905556fe608080604052600436101561001357600080fd5b60003560e01c908162a15afa1461231a5750806302b4eed2146122fc578063078fac75146122bd5780630905f5601461229a578063162ba2881461227e5780634585e33b1461225f5780634de5120e1461222557806352375bb11461216857806354b7636e1461213b578063556391d71461211e5780635c975abb146120fb5780635d4d89ea146120dd5780635f9a3bdb146120165780636386c1c714611e075780636b36f99514611dcd5780636e04ff0d14611d4257806372be8d8d14610c1857806375f1c8e514610bc45780637813d78214610b8a57806387371c1714610b4b5780638da5cb5b14610b22578063a3f569ae14610ab0578063a5410a6614610a71578063a87430ba14610999578063b0ff63831461097c578063c19d93fb146108fe578063c216212a146108bd578063c26a1eda146108a1578063c5c51dca14610848578063ceb0a16f1461080e578063cf7a7e64146107b2578063d0e13236146105b0578063d9c693cb146104d7578063e4e232b3146104b9578063f038ce7514610465578063f2c399921461038d578063f2fde38b146102c5578063f851a44014610280578063fa6ac13114610263578063fbed52081461022b5763fc0c546a146101e157600080fd5b34610226576000366003190112610226576040517f00000000000000000000000000000000000000000000000000000000000000006001600160a01b03168152602090f35b600080fd5b3461022657602036600319011261022657602063ffffffff8061024c612334565b16600052600a825260406000205416604051908152f35b3461022657600036600319011261022657602060405161c3508152f35b34610226576000366003190112610226576040517f00000000000000000000000000000000000000000000000000000000000000006001600160a01b03168152602090f35b34610226576020366003190112610226576102de612391565b600054906001600160a01b03906102f88284163314612430565b16908115610339576001600160a01b0319168117600090815581907f8be0079c531659141344cd1fd0a4f28419497f9722a3daafe3b4186f6b6457e09080a3005b60405162461bcd60e51b815260206004820152602660248201527f4f776e61626c653a206e6577206f776e657220697320746865207a65726f206160448201526564647265737360d01b6064820152608490fd5b34610226576000366003190112610226576103b360018060a01b03600054163314612430565b6003805460ff60a81b1916905560025460ff8116156104295760ff19166002557f5db9ee0a495bf2e6ff9c91a7834c1ba4fdd244a5e8aa4e537bd38aeae4b073aa6020604051338152a17f3e10b46f9c4daa09ffe0fbd5131f7a3bd8b2e6e570cef8d38c3fd8d3b2d552426020604051428152a1005b60405162461bcd60e51b815260206004820152601460248201527314185d5cd8589b194e881b9bdd081c185d5cd95960621b6044820152606490fd5b346102265760003660031901126102265760a060155463ffffffff9060ff601654916040519382821615158552808260081c1660208601528160281c16604085015260481c16151560608301526080820152f35b346102265760003660031901126102265760206040516276a7008152f35b34610226576000366003190112610226576104fd60018060a01b03600054163314612430565b6003805460ff60a81b1916600160a81b17905560025460019061052360ff8216156124ea565b60ff1916176002557f62e78cea01bee320cd4e420270b5ea74000d11b0c9f74754ebdbfc544b05a2586020604051338152a17fbcd8e986e105f13da777f7388098505da80a6ec23119b3d7efb070f3b87486946080604051604081526018604082015277115b595c99d95b98de481b1bd8dac81858dd1a5d985d195960421b6060820152426020820152a1005b346102265760003660031901126102265760016105d160028254141561249e565b6002815560ff60115460901c1615610776573360005260206012815260ff6040600020541661073c57336000526007815263ffffffff604060002054161561070757336000526007815261ffff9060038260406000205460501c16106106c957336000526007815260ff836040600020015460581c1661069157601290336000525260406000208260ff198254161790556011549061067a61ffff60801b918360801c1661259f565b60801b1661ffff60801b1991909116176011558055005b6064906040519062461bcd60e51b8252600482015260116024820152701058d8dbdd5b9d081cdd5cdc195b991959607a1b6044820152fd5b6064906040519062461bcd60e51b825260048201526017602482015276135a5b9a5b5d5b481d1a595c880cc81c995c5d5a5c9959604a1b6044820152fd5b6064906040519062461bcd60e51b82526004820152600e60248201526d139bdd081c9959da5cdd195c995960921b6044820152fd5b6064906040519062461bcd60e51b82526004820152601360248201527220b63932b0b23c9031b63ab11036b2b6b132b960691b6044820152fd5b60405162461bcd60e51b8152602060048201526014602482015273436c756220706f6f6c206e6f742061637469766560601b6044820152606490fd5b346102265760003660031901126102265760a060115460ff63ffffffff916040519260018060401b0382168452808260401c1660208501528160601c16604084015261ffff8160801c16606084015260901c1615156080820152f35b34610226576020366003190112610226576001600160a01b0361082f612391565b1660005260106020526020604060002054604051908152f35b346102265760003660031901126102265760c060055460018060401b03600654604051928281168452828160401c166020850152828160801c166040850152841c6060840152818116608084015260401c1660a0820152f35b3461022657600036600319011261022657602060405160048152f35b34610226576020366003190112610226576004356005811015610226576108e56020916123a7565b905460405160039290921b1c6001600160401b03168152f35b346102265760003660031901126102265761010060035463ffffffff9060ff60018060601b036004541691604051938082168552808260201c166020860152808260401c166040860152808260601c1660608601528160801c166080850152818160a01c16151560a085015260a81c16151560c083015260e0820152f35b34610226576000366003190112610226576020604051610e108152f35b34610226576020366003190112610226576001600160a01b036109ba612391565b1660005260076020526101a0604060002060ff815463ffffffff600161ffff94015491604051948282168652828260201c166020870152808260401c1660408701528160501c166060860152818160601c16608086015260018060401b038160801c1660a086015260c01c60c085015280821660e08501528160201c16610100840152818160401c161515610120840152818160481c161515610140840152818160501c1661016084015260581c16610180820152f35b34610226576020366003190112610226576001600160a01b03610a92612391565b166000526013602052602060ff604060002054166040519015158152f35b3461022657604036600319011261022657610ac9612391565b60243580151580820361022657600054610b20936001600160a01b0391610af39083163314612430565b16600052601360205260406000209060ff8019835416911617905560076020526001604060002001612582565b005b34610226576000366003190112610226576000546040516001600160a01b039091168152602090f35b34610226576020366003190112610226576001600160a01b03610b6c612391565b166000526012602052602060ff604060002054166040519015158152f35b34610226576020366003190112610226576001600160a01b03610bab612391565b16600052600f6020526020604060002054604051908152f35b3461022657604036600319011261022657610bdd612334565b60243563ffffffff80921660005260096020526040600020916002821015610226576020928260031c015460e06040519360051b161c168152f35b3461022657604036600319011261022657610c31612391565b61ffff602435166024350361022657610c4f6002600154141561249e565b6002600155610c6360ff60025416156124ea565b60035460ff8160a81c16611d305763ffffffff61c35091161015611b51573360005260106020526040600020544210611d1e57610c9f336123f4565b15611cea5761ffff60243516151580611cd9575b15611ca55733600052600760205263ffffffff60406000205416611c6b576001600160a01b03811660009081526007602052604090205463ffffffff1615801590611c5a575b15611c2357610e104201421161172f57336000526010602052610e104201604060002055610d30610d2b602435612536565b6123a7565b905460045460039290921b1c6001600160401b0316906001600160601b0316610d598282612529565b10611b3f576040516323b872dd60e01b81523360048201523060248201526044810182905260208160648160007f00000000000000000000000000000000000000000000000000000000000000006001600160a01b03165af1908115611c1757600091611ba7575b5015611b625760035491610ddd63ffffffff8460201c1661254a565b9263ffffffff60201b8460201b169063ffffffff60201b19161760035560018060a01b038116600052600760205263ffffffff6040600020541660405190610e24826123d8565b63ffffffff85168252600060208301526000604083015261ffff60243516606083015260006080830152600060a0830152600060c083015260e082015263ffffffff421661010082015260006101208201526001610140820152600061016082015260006101808201523360005260076020526101806001604060002063ffffffff84511663ffffffff19825416178155610ec963ffffffff6020860151168261255f565b610edb61ffff604086015116826125b2565b6060840151815461ffff60501b191660509190911b61ffff60501b161781556080840151610f0f9063ffffffff168261247b565b610f24828060401b0360a086015116826125d1565b610f39828060401b0360c086015116826125fa565b019163ffffffff60e08201511663ffffffff19845416178355610f6763ffffffff610100830151168461255f565b610120810151835460ff60401b191690151560401b60ff60401b16178355610140810151610f9790151584612582565b610fa960ff610160830151168461261d565b0151815460ff60581b191660589190911b60ff60581b1617905563ffffffff838116600090815260086020526040902080546001600160a01b031916331790556003549061c34f9082161015611b515763ffffffff61100981831661254a565b169063ffffffff191617600355611024610d2b602435612536565b90546004549160031b1c6001600160401b03166001600160601b03821661104b8282612529565b10611b3f576001600160601b0382811682011161172f576001600160601b031982166001600160601b039283169091019091161760045561108a612662565b903360005260076020526110a282604060002061247b565b60015b63ffffffff60035460201c1663ffffffff821611611b375763ffffffff81166000908152600860205260409020546001600160a01b031680151580611b0e575b6110f857506110f39061254a565b6110a5565b90506001839492931615600014611ac55733600052600760205263ffffffff60406000205416637fffffff8560011c16600052600960205260406000209063ffffffff198254161790555b600052600760205263ffffffff604060002054163360005263ffffffff60406000205416600052600a60205260406000209063ffffffff198254161790555b6001600160a01b0382166117a2575b806001600160a01b03831680151590611779575b611745575b60115460ff8160901c16611662575b50506111f76111f7916111fc61177091826111d382612759565b04938385946111e184612759565b049687916111ee85612759565b0496879461263a565b61263a565b600580549194909290916001600160401b0391821691604082901c81169081906112268583612740565b16101561162e5750508254604080516060808252600990820152681b195d995b141bdbdb60ba1b608082015291811c6001600160401b03908116602084015290820152600080516020612b0b8339815191529060a090a160065490600160401b600160801b03906112a490604084901c6001600160401b0316612740565b60401b16600160401b600160801b031991909116176006555b81546001600160401b0391821691608082901c81169081906112df8583612740565b1610156115fa575050600080516020612b0b83398151915260a060018060401b03845460801c166040519060608252600a6060830152691d5c1b1a5b99541bdbdb60b21b6080830152602082015260018060401b036040820152a160065490600160401b600160801b039061136190604084901c6001600160401b0316612740565b60401b16600160401b600160801b031991909116176006555b80546001600160401b039283169260c082901c90819061139a8683612740565b1610156115ce57505060a0600080516020612b0b833981519152915460c01c6040519060608252600a6060830152691b195859195c941bdbdb60b21b6080830152602082015260018060401b036040820152a160065490600160401b600160801b039061141490604084901c6001600160401b0316612740565b60401b16600160401b600160801b031991909116176006555b6006546001600160401b039182169180821690819061144c8583612740565b1610156115a257505060065490600080516020612b0b83398151915260a060405160608152600760608201526619da1c141bdbdb60ca1b608082015260018060401b038516602082015260018060401b036040820152a1600160401b600160801b03906114c690604084901c6001600160401b0316612740565b60401b16600160401b600160801b031991909116176006555b60405160243561ffff1681526001600160a01b039091169063ffffffff84169033907f0b433c284dbe5891de4d6f33fdc7aed80ed70cdd48b50bcfd3fd7a38713236ee90602090a433600052600760205263ffffffff60406000205416600052600a60205263ffffffff60406000205416600052600860205263ffffffff60018060a01b036040600020541692816040519316835216907f394121f5bd2f28750cbe3528fc442f7e4b1dd7b994e5b604fd0009624d59e21160203392a460018055005b90916001600160401b03916115b79190612740565b6001600160401b03199092169116176006556114df565b919290916001600160c01b0319916115e591612740565b60c01b169060018060c01b031617905561142d565b9091600160801b600160c01b03916116129190612740565b60801b16600160801b600160c01b03199190911617815561137a565b9091600160401b600160801b03916116469190612740565b60401b16600160401b600160801b0319919091161782556112bd565b90916101f491838381020483148415171561172f576111f7938493612710910204906001600160401b038116806116998482612529565b10156116f75750506011546040805160608082526008908201526718db1d58941bdbdb60c21b60808201526001600160401b03928316602082015290810191909152600080516020612b0b833981519152915060a090a15b916111b9565b61172a9391906001600160401b03906117139085831690612740565b6001600160401b031990921691161760115561263a565b6116f1565b634e487b7160e01b600052601160045260246000fd5b9050610fa0818181020481148215171561172f576127106117739183020461176d81856128b6565b8261263a565b906111aa565b506001600160a01b03831660009081526007602052604090206001015460581c60ff16156111a5565b9160018060a01b03821660005260076020526117d360406000206117cd61ffff825460401c1661259f565b906125b2565b6001600160a01b038216600090815260076020526040902063ffffffff906001016118004283168261255f565b5416916000925b63ffffffff8116151580611ab5575b15611aa35763ffffffff8116600052600860205260018060a01b03604060002054169081600052600760205263ffffffff60406000205460201c1663fffffffe811015611943575050806000526007602052611889604060002061188363ffffffff825460201c1661254a565b9061255f565b8060005260076020528060ff60016040600020016118ad63ffffffff42168261255f565b5460501c166118bb82612770565b81600052600760205260ff60016040600020015460501c16808203611904575b50505060005260076020526118fe63ffffffff600160406000200154169361254a565b92611807565b7fac0a8a3e707a73f1f1e24b50123f328971c7ae3e1a4ab42e68bd6d69d6a37ff3916060916040519182526020820152426040820152a28087806118db565b601e925094600080516020612b0b83398151915260a063ffffffff939597604099979951906060825260086060830152677465616d53697a6560c01b60808301526020820152846040820152a15b16109081611a93575b50156111915760405160408152601960408201527824b739bab33334b1b4b2b73a103ab83634b7329031b430b4b760391b60608201524260208201527f6f351e36c7babe44a5305e86f0248d29b31c4ecd9861b0ae6621b74c3c6615d2608060018060a01b03851692a23360005260076020526101f4611a28610d2b61ffff60406000205460501c16612536565b60018060401b0391549060031b1c16028060018060401b0381160361172f5760065490600160401b600160801b0390611a76906127106001600160401b039182160490604085901c16612740565b60401b16600160401b600160801b03199190911617600655611191565b63ffffffff91501615158561199a565b909263ffffffff601e91959395611991565b50601e63ffffffff851610611816565b336000526007602052604060002054637fffffff8560011c16600052600960205260406000209063ffffffff60201b198254169063ffffffff60201b9060201b16179055611143565b50806000526007602052637fffffff8460011c1663ffffffff60406000205460601c16146110e5565b509091611182565b604051637883ad3d60e11b8152600490fd5b60405162aaa60160e01b8152600490fd5b60405162461bcd60e51b815260206004820152601e60248201527f5361666545524332303a207472616e7366657246726f6d206661696c656400006044820152606490fd5b905060203d602011611c10575b6001600160401b03601f8201601f1916830190811190831117611bfa5781602091601f19601f820116820160405281010312610226575180151581036102265783610dc1565b634e487b7160e01b600052604160045260246000fd5b503d611bb4565b6040513d6000823e3d90fd5b60405162461bcd60e51b815260206004820152600f60248201526e24b73b30b634b21039b837b739b7b960891b6044820152606490fd5b506001600160a01b03811615610cf9565b60405162461bcd60e51b8152602060048201526012602482015271105b1c9958591e481c9959da5cdd195c995960721b6044820152606490fd5b60405162461bcd60e51b815260206004820152600c60248201526b24b73b30b634b2103a34b2b960a11b6044820152606490fd5b50600561ffff602435161115610cb3565b60405162461bcd60e51b815260206004820152600c60248201526b12d650c81c995c5d5a5c995960a21b6044820152606490fd5b60405163a74c1c5f60e01b8152600490fd5b60405163726994c960e11b8152600490fd5b3461022657611d5036612347565b50506040516020908181016001600160401b03811182821017611bfa5760405260008152604051809260008252604060208301528251908160408401526000935b828510611db4575050606092506000838284010152601f80199101168101030190f35b8481018201518686016060015293810193859350611d91565b34610226576020366003190112610226576001600160a01b03611dee612391565b16600052600e6020526020604060002054604051908152f35b3461022657602036600319011261022657611e20612391565b6000610180604051611e31816123d8565b8281528260208201528260408201528260608201528260808201528260a08201528260c08201528260e082015282610100820152826101208201528261014082015282610160820152015260018060a01b031660005260076020526101a0604060002060ff610180604051611ea5816123d8565b82600185549563ffffffff8716845263ffffffff8760201c16602085015261ffff8760401c16604085015261ffff8760501c16606085015263ffffffff8760601c166080850152818060401b038760801c1660a08501528660c01c60c0850152015463ffffffff811660e084015263ffffffff8160201c16610100840152818160401c161515610120840152818160481c161515610140840152818160501c1661016084015260581c168282015263ffffffff6040519416845263ffffffff602082015116602085015261ffff604082015116604085015261ffff606082015116606085015263ffffffff608082015116608085015260018060401b0360a08201511660a085015260018060401b0360c08201511660c085015263ffffffff60e08201511660e085015263ffffffff61010082015116610100850152610120810151151561012085015261014081015115156101408501528261016082015116610160850152015116610180820152f35b346102265760203660031901126102265761202f612334565b61204460018060a01b03600054163314612430565b6011549060ff8260901c1661209d5760405160a081016001600160401b038111911117611bfa5760601b63ffffffff60601b166001600160981b03199091164260401b63ffffffff60401b161717600160901b17601155005b60405162461bcd60e51b8152602060048201526018602482015277436c756220706f6f6c20616c72656164792065786973747360401b6044820152606490fd5b34610226576000366003190112610226576020604051621275008152f35b3461022657600036600319011261022657602060ff600254166040519015158152f35b346102265760003660031901126102265760206040516108008152f35b3461022657602036600319011261022657602061215e612159612391565b6123f4565b6040519015158152f35b34610226576000366003190112610226576040516001600160401b039060c081019082821181831017611bfa5760c0916040523690376040519060c0820182811082821117611bfa5782906040526005548281168252602090838160401c166020840152838160801c16604084015260c01c606083015260069183600654818116608084015260401c1660a0820152604051938491906000925b85841061220e5760c087f35b848060019284865116815201930193019291612202565b34610226576020366003190112610226576001600160a01b03612246612391565b16600052600d6020526020604060002054604051908152f35b346102265761226d36612347565b505060ff60035460a81c16611d3057005b3461022657600036600319011261022657602060405160108152f35b3461022657600036600319011261022657602060ff601454166040519015158152f35b346102265760203660031901126102265763ffffffff6122db612334565b166000526008602052602060018060a01b0360406000205416604051908152f35b3461022657600036600319011261022657602060405162093a808152f35b346102265760003660031901126102265780601e60209252f35b6004359063ffffffff8216820361022657565b906020600319830112610226576001600160401b03916004359083821161022657806023830112156102265781600401359384116102265760248483010111610226576024019190565b600435906001600160a01b038216820361022657565b9060058210156123c25760188260021c600b019260031b1690565b634e487b7160e01b600052603260045260246000fd5b6101a081019081106001600160401b03821117611bfa57604052565b6001600160a01b031660009081526013602052604090205460ff1680156124185790565b50600760205260ff60016040600020015460481c1690565b1561243757565b606460405162461bcd60e51b815260206004820152602060248201527f4f776e61626c653a2063616c6c6572206973206e6f7420746865206f776e65726044820152fd5b805463ffffffff60601b191660609290921b63ffffffff60601b16919091179055565b156124a557565b60405162461bcd60e51b815260206004820152601f60248201527f5265656e7472616e637947756172643a207265656e7472616e742063616c6c006044820152606490fd5b156124f157565b60405162461bcd60e51b815260206004820152601060248201526f14185d5cd8589b194e881c185d5cd95960821b6044820152606490fd5b9190820180921161172f57565b61ffff908116600019019190821161172f57565b63ffffffff80911690811461172f5760010190565b805463ffffffff60201b191660209290921b63ffffffff60201b16919091179055565b805460ff60481b191691151560481b60ff60481b16919091179055565b61ffff80911690811461172f5760010190565b805461ffff60401b191660409290921b61ffff60401b16919091179055565b8054600160801b600160c01b03191660809290921b600160801b600160c01b0316919091179055565b80546001600160c01b031660c09290921b6001600160c01b031916919091179055565b805460ff60501b191660509290921b60ff60501b16919091179055565b9190820391821161172f57565b60011b906401fffffffe63fffffffe83169216820361172f57565b6001809160016000935b612683575b60405163a2a66ebf60e01b8152600490fd5b63ffffffff8082169080821080612733575b1561272c576126a383612647565b85826126ae86612647565b16019282841161172f5763fffffffe80848416109081159161271f575b50611b3f57600052602060098152604060002054918383161561271357501c161561270b57506127046126fe849261254a565b9461254a565b939061266c565b925050915090565b96505050505050915090565b90508385161015386126cb565b5050612671565b5061c35081871610612695565b6001600160401b03918216908216019190821161172f57565b906103e89182810292818404149015171561172f57565b60018060a01b03166000908082526020916007835260408082209182549463ffffffff600161ffff8289851c1698861c16950154821c169382946276a70081018082116128a257421161282a575b50866101f46127eb9810158061281f575b156127ed575050600193506007906002955b835252200161261d565b565b60fa11159081612813575b5061280a575b600790600194956127e1565b600193506127fe565b600a91501015386127f8565b5060148210156127cf565b8684526007835260ff6001868620015460501c16908161284a57506127be565b60019850879394965085979250947f8039c596008ffc957f48eb805a930583415e464bb81a75dc85d8b322c47f6255916128866007974261263a565b825191825286820152a28352522001805460ff60501b19169055565b634e487b7160e01b85526011600452602485fd5b60018060a01b0316906000908282526007602093818552604092838520600181015460ff81871c16908115612afa575b50612af157610d2b61ffff6128ff925460501c16612536565b90546001600160401b03926004600160421b0360039390931b9190911c600281901b928316929190841680159084046004141715612add5784885285895283878920549181612958608094828416948591871c16612740565b888c52898d52818b8d2054861c169182911610612a925750938a95938a8a8997958b6127eb9f968660019f9e9d9961299d908b8852848b528c87892054871c16612529565b10612a495750612a0392898f9695938a9b6129e9916129fd957f2574cbc589c373c3542b5c7355f7a5091875a01b2b16ddd89be1a7c909fc0f869d88528c5284872054901c168961263a565b16928a81528d89522091825460c01c612740565b906125fa565b858c52888452612a1e8a8d209160048460401b0316826125d1565b01805460ff60401b191660408b901b1790558751908152a25b85525263ffffffff421692200161255f565b95505095919050612a879450612a8d96925052878752612a73898c206129fd84825460c01c612740565b858b52878752888b20938454901c16612740565b906125d1565b612a37565b95975050509560a09750809450600080516020612b0b8339815191529892506c746f74616c4561726e696e677360981b9150519560608752600d6060880152860152840152820152a1565b634e487b7160e01b88526011600452602488fd5b50505050505050565b60ff915060581c161515386128e656fe83737177a6421eb29d7037a07114ddec9131edcd61a91d0672b2409404ffc172a26469706673582212206d8a28fe9f87989e631aff0e5442063b19cc986026894f1c585b2e0e2a919d6b64736f6c63430008160033","opcodes":"PUSH1 0xC0 CALLVALUE PUSH3 0x3D5 JUMPI PUSH1 0x1F PUSH3 0x2F8B CODESIZE DUP2 SWAP1 SUB SWAP2 DUP3 ADD PUSH1 0x1F NOT AND DUP4 ADD SWAP2 PUSH1 0x1 PUSH1 0x1 PUSH1 0x40 SHL SUB DUP4 GT DUP5 DUP5 LT OR PUSH3 0x351 JUMPI DUP1 DUP5 SWAP3 PUSH1 0x40 SWAP5 DUP6 MSTORE DUP4 CODECOPY DUP2 ADD SUB SLT PUSH3 0x3D5 JUMPI PUSH3 0x5A PUSH1 0x20 PUSH3 0x52 DUP4 PUSH3 0x3DA JUMP JUMPDEST SWAP3 ADD PUSH3 0x3DA JUMP JUMPDEST PUSH1 0x0 DUP1 SLOAD PUSH1 0x1 PUSH1 0x1 PUSH1 0xA0 SHL SUB NOT SWAP1 DUP2 AND CALLER OR SWAP1 SWAP2 SSTORE PUSH1 0x1 DUP1 SSTORE PUSH1 0x2 DUP1 SLOAD PUSH1 0xFF NOT SWAP1 DUP2 AND SWAP1 SWAP2 SSTORE PUSH1 0x40 MLOAD SWAP2 SWAP4 SWAP2 PUSH1 0xA0 DUP2 ADD PUSH1 0x1 PUSH1 0x1 PUSH1 0x40 SHL SUB DUP2 GT DUP3 DUP3 LT OR PUSH3 0x351 JUMPI PUSH1 0x40 MSTORE PUSH4 0x1C9C380 DUP2 MSTORE PUSH4 0x2FAF080 PUSH1 0x20 DUP3 ADD MSTORE PUSH4 0x5F5E100 PUSH1 0x40 DUP3 ADD MSTORE PUSH4 0xBEBC200 PUSH1 0x60 DUP3 ADD MSTORE PUSH4 0x1DCD6500 PUSH1 0x80 DUP3 ADD MSTORE PUSH1 0x0 JUMPDEST PUSH1 0x1 DUP2 LT PUSH3 0x390 JUMPI POP PUSH1 0x0 SWAP1 PUSH1 0x0 JUMPDEST PUSH1 0x1 DUP2 LT PUSH3 0x367 JUMPI POP POP PUSH1 0xC SSTORE PUSH1 0x14 DUP1 SLOAD SWAP2 SWAP1 SWAP2 AND SWAP1 SSTORE PUSH1 0x1 PUSH1 0x1 PUSH1 0xA0 SHL SUB AND PUSH1 0x80 MSTORE PUSH1 0xA0 MSTORE PUSH1 0x40 MLOAD PUSH2 0x1A0 DUP2 ADD PUSH1 0x1 PUSH1 0x1 PUSH1 0x40 SHL SUB DUP2 GT DUP3 DUP3 LT OR PUSH3 0x351 JUMPI PUSH1 0x40 MSTORE PUSH1 0x1 DUP2 MSTORE PUSH1 0x0 PUSH1 0x20 DUP3 ADD MSTORE PUSH1 0x0 PUSH1 0x40 DUP3 ADD MSTORE PUSH1 0x5 PUSH1 0x60 DUP3 ADD MSTORE PUSH1 0x1 PUSH1 0x80 DUP3 ADD MSTORE PUSH1 0x0 PUSH1 0xA0 DUP3 ADD MSTORE PUSH1 0x0 PUSH1 0xC0 DUP3 ADD MSTORE PUSH1 0x0 PUSH1 0xE0 DUP3 ADD MSTORE PUSH4 0xFFFFFFFF TIMESTAMP AND PUSH2 0x100 DUP3 ADD MSTORE PUSH1 0x0 PUSH2 0x120 DUP3 ADD MSTORE PUSH1 0x1 PUSH2 0x140 DUP3 ADD MSTORE PUSH1 0x0 PUSH2 0x160 DUP3 ADD MSTORE PUSH1 0x0 PUSH2 0x180 DUP3 ADD MSTORE PUSH1 0x0 DUP1 MSTORE PUSH1 0x7 PUSH1 0x20 MSTORE PUSH1 0x40 PUSH1 0x0 KECCAK256 SWAP1 PUSH1 0x1 PUSH4 0xFFFFFFFF DUP3 MLOAD AND SWAP3 PUSH4 0xFFFFFFFF NOT SWAP4 DUP5 DUP3 SLOAD AND OR DUP2 SSTORE PUSH3 0x1C7 PUSH4 0xFFFFFFFF PUSH1 0x20 DUP6 ADD MLOAD AND DUP3 PUSH3 0x408 JUMP JUMPDEST PUSH1 0x40 DUP4 ADD MLOAD DUP2 SLOAD PUSH1 0x60 DUP6 ADD MLOAD PUSH16 0xFFFFFFFF000000000000000000000000 PUSH1 0x80 DUP8 ADD MLOAD PUSH1 0x60 SHL AND SWAP1 PUSH12 0xFFFF00000000000000000000 DUP7 PUSH1 0x80 SHL DUP8 PUSH1 0xC0 SHL SUB PUSH1 0xA0 DUP10 ADD MLOAD PUSH1 0x80 SHL AND SWAP4 PUSH10 0xFFFF0000000000000000 DUP9 DUP1 PUSH1 0xC0 SHL SUB NOT PUSH1 0xC0 DUP12 ADD MLOAD PUSH1 0xC0 SHL AND SWAP7 PUSH1 0x40 SHL AND SWAP1 DUP9 DUP1 PUSH1 0x40 SHL SUB AND OR SWAP2 PUSH1 0x50 SHL AND OR OR OR OR DUP2 SSTORE ADD SWAP2 PUSH4 0xFFFFFFFF PUSH1 0xE0 DUP4 ADD MLOAD AND SWAP1 DUP4 SLOAD AND OR DUP3 SSTORE PUSH3 0x26D PUSH4 0xFFFFFFFF PUSH2 0x100 DUP4 ADD MLOAD AND DUP4 PUSH3 0x408 JUMP JUMPDEST PUSH2 0x120 DUP2 ADD MLOAD ISZERO ISZERO SWAP1 DUP3 SLOAD PUSH10 0xFF000000000000000000 PUSH2 0x140 DUP4 ADD MLOAD ISZERO ISZERO PUSH1 0x48 SHL AND SWAP1 PUSH9 0xFF0000000000000000 PUSH12 0xFF0000000000000000000000 PUSH2 0x180 PUSH11 0xFF00000000000000000000 PUSH2 0x160 DUP8 ADD MLOAD PUSH1 0x50 SHL AND SWAP6 ADD MLOAD PUSH1 0x58 SHL AND SWAP5 PUSH1 0x40 SHL AND SWAP1 PUSH12 0xFFFFFFFF0000000000000000 NOT AND OR OR OR OR SWAP1 SSTORE PUSH1 0x1 PUSH1 0x0 MSTORE PUSH1 0x8 PUSH1 0x20 MSTORE PUSH1 0x40 PUSH1 0x0 KECCAK256 SWAP1 DUP2 SLOAD AND SWAP1 SSTORE PUSH5 0x100000001 PUSH1 0x3 SLOAD PUSH4 0xFFFFFFFF PUSH1 0x80 SHL TIMESTAMP PUSH1 0x80 SHL AND SWAP1 PUSH1 0x1 PUSH12 0xFFFFFFFF0000000000000001 PUSH1 0x40 SHL SUB NOT AND OR OR PUSH1 0x3 SSTORE PUSH1 0x40 MLOAD PUSH2 0x2B60 SWAP1 DUP2 PUSH3 0x42B DUP3 CODECOPY PUSH1 0x80 MLOAD DUP2 DUP2 DUP2 PUSH2 0x1F7 ADD MSTORE PUSH2 0xD88 ADD MSTORE PUSH1 0xA0 MLOAD DUP2 PUSH2 0x296 ADD MSTORE RETURN JUMPDEST PUSH4 0x4E487B71 PUSH1 0xE0 SHL PUSH1 0x0 MSTORE PUSH1 0x41 PUSH1 0x4 MSTORE PUSH1 0x24 PUSH1 0x0 REVERT JUMPDEST SWAP1 SWAP2 PUSH1 0x20 PUSH3 0x386 PUSH1 0x1 SWAP3 PUSH4 0xFFFFFFFF DUP7 MLOAD AND SWAP1 DUP6 PUSH1 0x3 SHL SWAP1 PUSH3 0x3EF JUMP JUMPDEST SWAP4 ADD SWAP2 ADD PUSH3 0xE2 JUMP JUMPDEST PUSH1 0x0 DUP1 JUMPDEST PUSH1 0x4 DUP2 LT PUSH3 0x3AC JUMPI POP PUSH1 0xB DUP3 ADD SSTORE PUSH1 0x1 ADD PUSH3 0xD2 JUMP JUMPDEST SWAP3 SWAP1 PUSH1 0x20 PUSH3 0x3CB PUSH1 0x1 SWAP3 PUSH4 0xFFFFFFFF DUP6 MLOAD AND SWAP1 DUP8 PUSH1 0x3 SHL SWAP1 PUSH3 0x3EF JUMP JUMPDEST SWAP3 ADD SWAP4 ADD PUSH3 0x394 JUMP JUMPDEST PUSH1 0x0 DUP1 REVERT JUMPDEST MLOAD SWAP1 PUSH1 0x1 PUSH1 0x1 PUSH1 0xA0 SHL SUB DUP3 AND DUP3 SUB PUSH3 0x3D5 JUMPI JUMP JUMPDEST SWAP1 PUSH1 0x3 SHL SWAP2 PUSH1 0x1 DUP1 PUSH1 0x40 SHL SUB DUP1 SWAP2 AND DUP4 SHL SWAP3 SHL NOT AND OR SWAP1 JUMP JUMPDEST SWAP1 PUSH8 0xFFFFFFFF00000000 DUP3 SLOAD SWAP2 PUSH1 0x20 SHL AND SWAP1 PUSH8 0xFFFFFFFF00000000 NOT AND OR SWAP1 SSTORE JUMP INVALID PUSH1 0x80 DUP1 PUSH1 0x40 MSTORE PUSH1 0x4 CALLDATASIZE LT ISZERO PUSH2 0x13 JUMPI PUSH1 0x0 DUP1 REVERT JUMPDEST PUSH1 0x0 CALLDATALOAD PUSH1 0xE0 SHR SWAP1 DUP2 PUSH3 0xA15AFA EQ PUSH2 0x231A JUMPI POP DUP1 PUSH4 0x2B4EED2 EQ PUSH2 0x22FC JUMPI DUP1 PUSH4 0x78FAC75 EQ PUSH2 0x22BD JUMPI DUP1 PUSH4 0x905F560 EQ PUSH2 0x229A JUMPI DUP1 PUSH4 0x162BA288 EQ PUSH2 0x227E JUMPI DUP1 PUSH4 0x4585E33B EQ PUSH2 0x225F JUMPI DUP1 PUSH4 0x4DE5120E EQ PUSH2 0x2225 JUMPI DUP1 PUSH4 0x52375BB1 EQ PUSH2 0x2168 JUMPI DUP1 PUSH4 0x54B7636E EQ PUSH2 0x213B JUMPI DUP1 PUSH4 0x556391D7 EQ PUSH2 0x211E JUMPI DUP1 PUSH4 0x5C975ABB EQ PUSH2 0x20FB JUMPI DUP1 PUSH4 0x5D4D89EA EQ PUSH2 0x20DD JUMPI DUP1 PUSH4 0x5F9A3BDB EQ PUSH2 0x2016 JUMPI DUP1 PUSH4 0x6386C1C7 EQ PUSH2 0x1E07 JUMPI DUP1 PUSH4 0x6B36F995 EQ PUSH2 0x1DCD JUMPI DUP1 PUSH4 0x6E04FF0D EQ PUSH2 0x1D42 JUMPI DUP1 PUSH4 0x72BE8D8D EQ PUSH2 0xC18 JUMPI DUP1 PUSH4 0x75F1C8E5 EQ PUSH2 0xBC4 JUMPI DUP1 PUSH4 0x7813D782 EQ PUSH2 0xB8A JUMPI DUP1 PUSH4 0x87371C17 EQ PUSH2 0xB4B JUMPI DUP1 PUSH4 0x8DA5CB5B EQ PUSH2 0xB22 JUMPI DUP1 PUSH4 0xA3F569AE EQ PUSH2 0xAB0 JUMPI DUP1 PUSH4 0xA5410A66 EQ PUSH2 0xA71 JUMPI DUP1 PUSH4 0xA87430BA EQ PUSH2 0x999 JUMPI DUP1 PUSH4 0xB0FF6383 EQ PUSH2 0x97C JUMPI DUP1 PUSH4 0xC19D93FB EQ PUSH2 0x8FE JUMPI DUP1 PUSH4 0xC216212A EQ PUSH2 0x8BD JUMPI DUP1 PUSH4 0xC26A1EDA EQ PUSH2 0x8A1 JUMPI DUP1 PUSH4 0xC5C51DCA EQ PUSH2 0x848 JUMPI DUP1 PUSH4 0xCEB0A16F EQ PUSH2 0x80E JUMPI DUP1 PUSH4 0xCF7A7E64 EQ PUSH2 0x7B2 JUMPI DUP1 PUSH4 0xD0E13236 EQ PUSH2 0x5B0 JUMPI DUP1 PUSH4 0xD9C693CB EQ PUSH2 0x4D7 JUMPI DUP1 PUSH4 0xE4E232B3 EQ PUSH2 0x4B9 JUMPI DUP1 PUSH4 0xF038CE75 EQ PUSH2 0x465 JUMPI DUP1 PUSH4 0xF2C39992 EQ PUSH2 0x38D JUMPI DUP1 PUSH4 0xF2FDE38B EQ PUSH2 0x2C5 JUMPI DUP1 PUSH4 0xF851A440 EQ PUSH2 0x280 JUMPI DUP1 PUSH4 0xFA6AC131 EQ PUSH2 0x263 JUMPI DUP1 PUSH4 0xFBED5208 EQ PUSH2 0x22B JUMPI PUSH4 0xFC0C546A EQ PUSH2 0x1E1 JUMPI PUSH1 0x0 DUP1 REVERT JUMPDEST CALLVALUE PUSH2 0x226 JUMPI PUSH1 0x0 CALLDATASIZE PUSH1 0x3 NOT ADD SLT PUSH2 0x226 JUMPI PUSH1 0x40 MLOAD PUSH32 0x0 PUSH1 0x1 PUSH1 0x1 PUSH1 0xA0 SHL SUB AND DUP2 MSTORE PUSH1 0x20 SWAP1 RETURN JUMPDEST PUSH1 0x0 DUP1 REVERT JUMPDEST CALLVALUE PUSH2 0x226 JUMPI PUSH1 0x20 CALLDATASIZE PUSH1 0x3 NOT ADD SLT PUSH2 0x226 JUMPI PUSH1 0x20 PUSH4 0xFFFFFFFF DUP1 PUSH2 0x24C PUSH2 0x2334 JUMP JUMPDEST AND PUSH1 0x0 MSTORE PUSH1 0xA DUP3 MSTORE PUSH1 0x40 PUSH1 0x0 KECCAK256 SLOAD AND PUSH1 0x40 MLOAD SWAP1 DUP2 MSTORE RETURN JUMPDEST CALLVALUE PUSH2 0x226 JUMPI PUSH1 0x0 CALLDATASIZE PUSH1 0x3 NOT ADD SLT PUSH2 0x226 JUMPI PUSH1 0x20 PUSH1 0x40 MLOAD PUSH2 0xC350 DUP2 MSTORE RETURN JUMPDEST CALLVALUE PUSH2 0x226 JUMPI PUSH1 0x0 CALLDATASIZE PUSH1 0x3 NOT ADD SLT PUSH2 0x226 JUMPI PUSH1 0x40 MLOAD PUSH32 0x0 PUSH1 0x1 PUSH1 0x1 PUSH1 0xA0 SHL SUB AND DUP2 MSTORE PUSH1 0x20 SWAP1 RETURN JUMPDEST CALLVALUE PUSH2 0x226 JUMPI PUSH1 0x20 CALLDATASIZE PUSH1 0x3 NOT ADD SLT PUSH2 0x226 JUMPI PUSH2 0x2DE PUSH2 0x2391 JUMP JUMPDEST PUSH1 0x0 SLOAD SWAP1 PUSH1 0x1 PUSH1 0x1 PUSH1 0xA0 SHL SUB SWAP1 PUSH2 0x2F8 DUP3 DUP5 AND CALLER EQ PUSH2 0x2430 JUMP JUMPDEST AND SWAP1 DUP2 ISZERO PUSH2 0x339 JUMPI PUSH1 0x1 PUSH1 0x1 PUSH1 0xA0 SHL SUB NOT AND DUP2 OR PUSH1 0x0 SWAP1 DUP2 SSTORE DUP2 SWAP1 PUSH32 0x8BE0079C531659141344CD1FD0A4F28419497F9722A3DAAFE3B4186F6B6457E0 SWAP1 DUP1 LOG3 STOP JUMPDEST PUSH1 0x40 MLOAD PUSH3 0x461BCD PUSH1 0xE5 SHL DUP2 MSTORE PUSH1 0x20 PUSH1 0x4 DUP3 ADD MSTORE PUSH1 0x26 PUSH1 0x24 DUP3 ADD MSTORE PUSH32 0x4F776E61626C653A206E6577206F776E657220697320746865207A65726F2061 PUSH1 0x44 DUP3 ADD MSTORE PUSH6 0x646472657373 PUSH1 0xD0 SHL PUSH1 0x64 DUP3 ADD MSTORE PUSH1 0x84 SWAP1 REVERT JUMPDEST CALLVALUE PUSH2 0x226 JUMPI PUSH1 0x0 CALLDATASIZE PUSH1 0x3 NOT ADD SLT PUSH2 0x226 JUMPI PUSH2 0x3B3 PUSH1 0x1 DUP1 PUSH1 0xA0 SHL SUB PUSH1 0x0 SLOAD AND CALLER EQ PUSH2 0x2430 JUMP JUMPDEST PUSH1 0x3 DUP1 SLOAD PUSH1 0xFF PUSH1 0xA8 SHL NOT AND SWAP1 SSTORE PUSH1 0x2 SLOAD PUSH1 0xFF DUP2 AND ISZERO PUSH2 0x429 JUMPI PUSH1 0xFF NOT AND PUSH1 0x2 SSTORE PUSH32 0x5DB9EE0A495BF2E6FF9C91A7834C1BA4FDD244A5E8AA4E537BD38AEAE4B073AA PUSH1 0x20 PUSH1 0x40 MLOAD CALLER DUP2 MSTORE LOG1 PUSH32 0x3E10B46F9C4DAA09FFE0FBD5131F7A3BD8B2E6E570CEF8D38C3FD8D3B2D55242 PUSH1 0x20 PUSH1 0x40 MLOAD TIMESTAMP DUP2 MSTORE LOG1 STOP JUMPDEST PUSH1 0x40 MLOAD PUSH3 0x461BCD PUSH1 0xE5 SHL DUP2 MSTORE PUSH1 0x20 PUSH1 0x4 DUP3 ADD MSTORE PUSH1 0x14 PUSH1 0x24 DUP3 ADD MSTORE PUSH20 0x14185D5CD8589B194E881B9BDD081C185D5CD959 PUSH1 0x62 SHL PUSH1 0x44 DUP3 ADD MSTORE PUSH1 0x64 SWAP1 REVERT JUMPDEST CALLVALUE PUSH2 0x226 JUMPI PUSH1 0x0 CALLDATASIZE PUSH1 0x3 NOT ADD SLT PUSH2 0x226 JUMPI PUSH1 0xA0 PUSH1 0x15 SLOAD PUSH4 0xFFFFFFFF SWAP1 PUSH1 0xFF PUSH1 0x16 SLOAD SWAP2 PUSH1 0x40 MLOAD SWAP4 DUP3 DUP3 AND ISZERO ISZERO DUP6 MSTORE DUP1 DUP3 PUSH1 0x8 SHR AND PUSH1 0x20 DUP7 ADD MSTORE DUP2 PUSH1 0x28 SHR AND PUSH1 0x40 DUP6 ADD MSTORE PUSH1 0x48 SHR AND ISZERO ISZERO PUSH1 0x60 DUP4 ADD MSTORE PUSH1 0x80 DUP3 ADD MSTORE RETURN JUMPDEST CALLVALUE PUSH2 0x226 JUMPI PUSH1 0x0 CALLDATASIZE PUSH1 0x3 NOT ADD SLT PUSH2 0x226 JUMPI PUSH1 0x20 PUSH1 0x40 MLOAD PUSH3 0x76A700 DUP2 MSTORE RETURN JUMPDEST CALLVALUE PUSH2 0x226 JUMPI PUSH1 0x0 CALLDATASIZE PUSH1 0x3 NOT ADD SLT PUSH2 0x226 JUMPI PUSH2 0x4FD PUSH1 0x1 DUP1 PUSH1 0xA0 SHL SUB PUSH1 0x0 SLOAD AND CALLER EQ PUSH2 0x2430 JUMP JUMPDEST PUSH1 0x3 DUP1 SLOAD PUSH1 0xFF PUSH1 0xA8 SHL NOT AND PUSH1 0x1 PUSH1 0xA8 SHL OR SWAP1 SSTORE PUSH1 0x2 SLOAD PUSH1 0x1 SWAP1 PUSH2 0x523 PUSH1 0xFF DUP3 AND ISZERO PUSH2 0x24EA JUMP JUMPDEST PUSH1 0xFF NOT AND OR PUSH1 0x2 SSTORE PUSH32 0x62E78CEA01BEE320CD4E420270B5EA74000D11B0C9F74754EBDBFC544B05A258 PUSH1 0x20 PUSH1 0x40 MLOAD CALLER DUP2 MSTORE LOG1 PUSH32 0xBCD8E986E105F13DA777F7388098505DA80A6EC23119B3D7EFB070F3B8748694 PUSH1 0x80 PUSH1 0x40 MLOAD PUSH1 0x40 DUP2 MSTORE PUSH1 0x18 PUSH1 0x40 DUP3 ADD MSTORE PUSH24 0x115B595C99D95B98DE481B1BD8DAC81858DD1A5D985D1959 PUSH1 0x42 SHL PUSH1 0x60 DUP3 ADD MSTORE TIMESTAMP PUSH1 0x20 DUP3 ADD MSTORE LOG1 STOP JUMPDEST CALLVALUE PUSH2 0x226 JUMPI PUSH1 0x0 CALLDATASIZE PUSH1 0x3 NOT ADD SLT PUSH2 0x226 JUMPI PUSH1 0x1 PUSH2 0x5D1 PUSH1 0x2 DUP3 SLOAD EQ ISZERO PUSH2 0x249E JUMP JUMPDEST PUSH1 0x2 DUP2 SSTORE PUSH1 0xFF PUSH1 0x11 SLOAD PUSH1 0x90 SHR AND ISZERO PUSH2 0x776 JUMPI CALLER PUSH1 0x0 MSTORE PUSH1 0x20 PUSH1 0x12 DUP2 MSTORE PUSH1 0xFF PUSH1 0x40 PUSH1 0x0 KECCAK256 SLOAD AND PUSH2 0x73C JUMPI CALLER PUSH1 0x0 MSTORE PUSH1 0x7 DUP2 MSTORE PUSH4 0xFFFFFFFF PUSH1 0x40 PUSH1 0x0 KECCAK256 SLOAD AND ISZERO PUSH2 0x707 JUMPI CALLER PUSH1 0x0 MSTORE PUSH1 0x7 DUP2 MSTORE PUSH2 0xFFFF SWAP1 PUSH1 0x3 DUP3 PUSH1 0x40 PUSH1 0x0 KECCAK256 SLOAD PUSH1 0x50 SHR AND LT PUSH2 0x6C9 JUMPI CALLER PUSH1 0x0 MSTORE PUSH1 0x7 DUP2 MSTORE PUSH1 0xFF DUP4 PUSH1 0x40 PUSH1 0x0 KECCAK256 ADD SLOAD PUSH1 0x58 SHR AND PUSH2 0x691 JUMPI PUSH1 0x12 SWAP1 CALLER PUSH1 0x0 MSTORE MSTORE PUSH1 0x40 PUSH1 0x0 KECCAK256 DUP3 PUSH1 0xFF NOT DUP3 SLOAD AND OR SWAP1 SSTORE PUSH1 0x11 SLOAD SWAP1 PUSH2 0x67A PUSH2 0xFFFF PUSH1 0x80 SHL SWAP2 DUP4 PUSH1 0x80 SHR AND PUSH2 0x259F JUMP JUMPDEST PUSH1 0x80 SHL AND PUSH2 0xFFFF PUSH1 0x80 SHL NOT SWAP2 SWAP1 SWAP2 AND OR PUSH1 0x11 SSTORE DUP1 SSTORE STOP JUMPDEST PUSH1 0x64 SWAP1 PUSH1 0x40 MLOAD SWAP1 PUSH3 0x461BCD PUSH1 0xE5 SHL DUP3 MSTORE PUSH1 0x4 DUP3 ADD MSTORE PUSH1 0x11 PUSH1 0x24 DUP3 ADD MSTORE PUSH17 0x1058D8DBDD5B9D081CDD5CDC195B991959 PUSH1 0x7A SHL PUSH1 0x44 DUP3 ADD MSTORE REVERT JUMPDEST PUSH1 0x64 SWAP1 PUSH1 0x40 MLOAD SWAP1 PUSH3 0x461BCD PUSH1 0xE5 SHL DUP3 MSTORE PUSH1 0x4 DUP3 ADD MSTORE PUSH1 0x17 PUSH1 0x24 DUP3 ADD MSTORE PUSH23 0x135A5B9A5B5D5B481D1A595C880CC81C995C5D5A5C9959 PUSH1 0x4A SHL PUSH1 0x44 DUP3 ADD MSTORE REVERT JUMPDEST PUSH1 0x64 SWAP1 PUSH1 0x40 MLOAD SWAP1 PUSH3 0x461BCD PUSH1 0xE5 SHL DUP3 MSTORE PUSH1 0x4 DUP3 ADD MSTORE PUSH1 0xE PUSH1 0x24 DUP3 ADD MSTORE PUSH14 0x139BDD081C9959DA5CDD195C9959 PUSH1 0x92 SHL PUSH1 0x44 DUP3 ADD MSTORE REVERT JUMPDEST PUSH1 0x64 SWAP1 PUSH1 0x40 MLOAD SWAP1 PUSH3 0x461BCD PUSH1 0xE5 SHL DUP3 MSTORE PUSH1 0x4 DUP3 ADD MSTORE PUSH1 0x13 PUSH1 0x24 DUP3 ADD MSTORE PUSH19 0x20B63932B0B23C9031B63AB11036B2B6B132B9 PUSH1 0x69 SHL PUSH1 0x44 DUP3 ADD MSTORE REVERT JUMPDEST PUSH1 0x40 MLOAD PUSH3 0x461BCD PUSH1 0xE5 SHL DUP2 MSTORE PUSH1 0x20 PUSH1 0x4 DUP3 ADD MSTORE PUSH1 0x14 PUSH1 0x24 DUP3 ADD MSTORE PUSH20 0x436C756220706F6F6C206E6F7420616374697665 PUSH1 0x60 SHL PUSH1 0x44 DUP3 ADD MSTORE PUSH1 0x64 SWAP1 REVERT JUMPDEST CALLVALUE PUSH2 0x226 JUMPI PUSH1 0x0 CALLDATASIZE PUSH1 0x3 NOT ADD SLT PUSH2 0x226 JUMPI PUSH1 0xA0 PUSH1 0x11 SLOAD PUSH1 0xFF PUSH4 0xFFFFFFFF SWAP2 PUSH1 0x40 MLOAD SWAP3 PUSH1 0x1 DUP1 PUSH1 0x40 SHL SUB DUP3 AND DUP5 MSTORE DUP1 DUP3 PUSH1 0x40 SHR AND PUSH1 0x20 DUP6 ADD MSTORE DUP2 PUSH1 0x60 SHR AND PUSH1 0x40 DUP5 ADD MSTORE PUSH2 0xFFFF DUP2 PUSH1 0x80 SHR AND PUSH1 0x60 DUP5 ADD MSTORE PUSH1 0x90 SHR AND ISZERO ISZERO PUSH1 0x80 DUP3 ADD MSTORE RETURN JUMPDEST CALLVALUE PUSH2 0x226 JUMPI PUSH1 0x20 CALLDATASIZE PUSH1 0x3 NOT ADD SLT PUSH2 0x226 JUMPI PUSH1 0x1 PUSH1 0x1 PUSH1 0xA0 SHL SUB PUSH2 0x82F PUSH2 0x2391 JUMP JUMPDEST AND PUSH1 0x0 MSTORE PUSH1 0x10 PUSH1 0x20 MSTORE PUSH1 0x20 PUSH1 0x40 PUSH1 0x0 KECCAK256 SLOAD PUSH1 0x40 MLOAD SWAP1 DUP2 MSTORE RETURN JUMPDEST CALLVALUE PUSH2 0x226 JUMPI PUSH1 0x0 CALLDATASIZE PUSH1 0x3 NOT ADD SLT PUSH2 0x226 JUMPI PUSH1 0xC0 PUSH1 0x5 SLOAD PUSH1 0x1 DUP1 PUSH1 0x40 SHL SUB PUSH1 0x6 SLOAD PUSH1 0x40 MLOAD SWAP3 DUP3 DUP2 AND DUP5 MSTORE DUP3 DUP2 PUSH1 0x40 SHR AND PUSH1 0x20 DUP6 ADD MSTORE DUP3 DUP2 PUSH1 0x80 SHR AND PUSH1 0x40 DUP6 ADD MSTORE DUP5 SHR PUSH1 0x60 DUP5 ADD MSTORE DUP2 DUP2 AND PUSH1 0x80 DUP5 ADD MSTORE PUSH1 0x40 SHR AND PUSH1 0xA0 DUP3 ADD MSTORE RETURN JUMPDEST CALLVALUE PUSH2 0x226 JUMPI PUSH1 0x0 CALLDATASIZE PUSH1 0x3 NOT ADD SLT PUSH2 0x226 JUMPI PUSH1 0x20 PUSH1 0x40 MLOAD PUSH1 0x4 DUP2 MSTORE RETURN JUMPDEST CALLVALUE PUSH2 0x226 JUMPI PUSH1 0x20 CALLDATASIZE PUSH1 0x3 NOT ADD SLT PUSH2 0x226 JUMPI PUSH1 0x4 CALLDATALOAD PUSH1 0x5 DUP2 LT ISZERO PUSH2 0x226 JUMPI PUSH2 0x8E5 PUSH1 0x20 SWAP2 PUSH2 0x23A7 JUMP JUMPDEST SWAP1 SLOAD PUSH1 0x40 MLOAD PUSH1 0x3 SWAP3 SWAP1 SWAP3 SHL SHR PUSH1 0x1 PUSH1 0x1 PUSH1 0x40 SHL SUB AND DUP2 MSTORE RETURN JUMPDEST CALLVALUE PUSH2 0x226 JUMPI PUSH1 0x0 CALLDATASIZE PUSH1 0x3 NOT ADD SLT PUSH2 0x226 JUMPI PUSH2 0x100 PUSH1 0x3 SLOAD PUSH4 0xFFFFFFFF SWAP1 PUSH1 0xFF PUSH1 0x1 DUP1 PUSH1 0x60 SHL SUB PUSH1 0x4 SLOAD AND SWAP2 PUSH1 0x40 MLOAD SWAP4 DUP1 DUP3 AND DUP6 MSTORE DUP1 DUP3 PUSH1 0x20 SHR AND PUSH1 0x20 DUP7 ADD MSTORE DUP1 DUP3 PUSH1 0x40 SHR AND PUSH1 0x40 DUP7 ADD MSTORE DUP1 DUP3 PUSH1 0x60 SHR AND PUSH1 0x60 DUP7 ADD MSTORE DUP2 PUSH1 0x80 SHR AND PUSH1 0x80 DUP6 ADD MSTORE DUP2 DUP2 PUSH1 0xA0 SHR AND ISZERO ISZERO PUSH1 0xA0 DUP6 ADD MSTORE PUSH1 0xA8 SHR AND ISZERO ISZERO PUSH1 0xC0 DUP4 ADD MSTORE PUSH1 0xE0 DUP3 ADD MSTORE RETURN JUMPDEST CALLVALUE PUSH2 0x226 JUMPI PUSH1 0x0 CALLDATASIZE PUSH1 0x3 NOT ADD SLT PUSH2 0x226 JUMPI PUSH1 0x20 PUSH1 0x40 MLOAD PUSH2 0xE10 DUP2 MSTORE RETURN JUMPDEST CALLVALUE PUSH2 0x226 JUMPI PUSH1 0x20 CALLDATASIZE PUSH1 0x3 NOT ADD SLT PUSH2 0x226 JUMPI PUSH1 0x1 PUSH1 0x1 PUSH1 0xA0 SHL SUB PUSH2 0x9BA PUSH2 0x2391 JUMP JUMPDEST AND PUSH1 0x0 MSTORE PUSH1 0x7 PUSH1 0x20 MSTORE PUSH2 0x1A0 PUSH1 0x40 PUSH1 0x0 KECCAK256 PUSH1 0xFF DUP2 SLOAD PUSH4 0xFFFFFFFF PUSH1 0x1 PUSH2 0xFFFF SWAP5 ADD SLOAD SWAP2 PUSH1 0x40 MLOAD SWAP5 DUP3 DUP3 AND DUP7 MSTORE DUP3 DUP3 PUSH1 0x20 SHR AND PUSH1 0x20 DUP8 ADD MSTORE DUP1 DUP3 PUSH1 0x40 SHR AND PUSH1 0x40 DUP8 ADD MSTORE DUP2 PUSH1 0x50 SHR AND PUSH1 0x60 DUP7 ADD MSTORE DUP2 DUP2 PUSH1 0x60 SHR AND PUSH1 0x80 DUP7 ADD MSTORE PUSH1 0x1 DUP1 PUSH1 0x40 SHL SUB DUP2 PUSH1 0x80 SHR AND PUSH1 0xA0 DUP7 ADD MSTORE PUSH1 0xC0 SHR PUSH1 0xC0 DUP6 ADD MSTORE DUP1 DUP3 AND PUSH1 0xE0 DUP6 ADD MSTORE DUP2 PUSH1 0x20 SHR AND PUSH2 0x100 DUP5 ADD MSTORE DUP2 DUP2 PUSH1 0x40 SHR AND ISZERO ISZERO PUSH2 0x120 DUP5 ADD MSTORE DUP2 DUP2 PUSH1 0x48 SHR AND ISZERO ISZERO PUSH2 0x140 DUP5 ADD MSTORE DUP2 DUP2 PUSH1 0x50 SHR AND PUSH2 0x160 DUP5 ADD MSTORE PUSH1 0x58 SHR AND PUSH2 0x180 DUP3 ADD MSTORE RETURN JUMPDEST CALLVALUE PUSH2 0x226 JUMPI PUSH1 0x20 CALLDATASIZE PUSH1 0x3 NOT ADD SLT PUSH2 0x226 JUMPI PUSH1 0x1 PUSH1 0x1 PUSH1 0xA0 SHL SUB PUSH2 0xA92 PUSH2 0x2391 JUMP JUMPDEST AND PUSH1 0x0 MSTORE PUSH1 0x13 PUSH1 0x20 MSTORE PUSH1 0x20 PUSH1 0xFF PUSH1 0x40 PUSH1 0x0 KECCAK256 SLOAD AND PUSH1 0x40 MLOAD SWAP1 ISZERO ISZERO DUP2 MSTORE RETURN JUMPDEST CALLVALUE PUSH2 0x226 JUMPI PUSH1 0x40 CALLDATASIZE PUSH1 0x3 NOT ADD SLT PUSH2 0x226 JUMPI PUSH2 0xAC9 PUSH2 0x2391 JUMP JUMPDEST PUSH1 0x24 CALLDATALOAD DUP1 ISZERO ISZERO DUP1 DUP3 SUB PUSH2 0x226 JUMPI PUSH1 0x0 SLOAD PUSH2 0xB20 SWAP4 PUSH1 0x1 PUSH1 0x1 PUSH1 0xA0 SHL SUB SWAP2 PUSH2 0xAF3 SWAP1 DUP4 AND CALLER EQ PUSH2 0x2430 JUMP JUMPDEST AND PUSH1 0x0 MSTORE PUSH1 0x13 PUSH1 0x20 MSTORE PUSH1 0x40 PUSH1 0x0 KECCAK256 SWAP1 PUSH1 0xFF DUP1 NOT DUP4 SLOAD AND SWAP2 AND OR SWAP1 SSTORE PUSH1 0x7 PUSH1 0x20 MSTORE PUSH1 0x1 PUSH1 0x40 PUSH1 0x0 KECCAK256 ADD PUSH2 0x2582 JUMP JUMPDEST STOP JUMPDEST CALLVALUE PUSH2 0x226 JUMPI PUSH1 0x0 CALLDATASIZE PUSH1 0x3 NOT ADD SLT PUSH2 0x226 JUMPI PUSH1 0x0 SLOAD PUSH1 0x40 MLOAD PUSH1 0x1 PUSH1 0x1 PUSH1 0xA0 SHL SUB SWAP1 SWAP2 AND DUP2 MSTORE PUSH1 0x20 SWAP1 RETURN JUMPDEST CALLVALUE PUSH2 0x226 JUMPI PUSH1 0x20 CALLDATASIZE PUSH1 0x3 NOT ADD SLT PUSH2 0x226 JUMPI PUSH1 0x1 PUSH1 0x1 PUSH1 0xA0 SHL SUB PUSH2 0xB6C PUSH2 0x2391 JUMP JUMPDEST AND PUSH1 0x0 MSTORE PUSH1 0x12 PUSH1 0x20 MSTORE PUSH1 0x20 PUSH1 0xFF PUSH1 0x40 PUSH1 0x0 KECCAK256 SLOAD AND PUSH1 0x40 MLOAD SWAP1 ISZERO ISZERO DUP2 MSTORE RETURN JUMPDEST CALLVALUE PUSH2 0x226 JUMPI PUSH1 0x20 CALLDATASIZE PUSH1 0x3 NOT ADD SLT PUSH2 0x226 JUMPI PUSH1 0x1 PUSH1 0x1 PUSH1 0xA0 SHL SUB PUSH2 0xBAB PUSH2 0x2391 JUMP JUMPDEST AND PUSH1 0x0 MSTORE PUSH1 0xF PUSH1 0x20 MSTORE PUSH1 0x20 PUSH1 0x40 PUSH1 0x0 KECCAK256 SLOAD PUSH1 0x40 MLOAD SWAP1 DUP2 MSTORE RETURN JUMPDEST CALLVALUE PUSH2 0x226 JUMPI PUSH1 0x40 CALLDATASIZE PUSH1 0x3 NOT ADD SLT PUSH2 0x226 JUMPI PUSH2 0xBDD PUSH2 0x2334 JUMP JUMPDEST PUSH1 0x24 CALLDATALOAD PUSH4 0xFFFFFFFF DUP1 SWAP3 AND PUSH1 0x0 MSTORE PUSH1 0x9 PUSH1 0x20 MSTORE PUSH1 0x40 PUSH1 0x0 KECCAK256 SWAP2 PUSH1 0x2 DUP3 LT ISZERO PUSH2 0x226 JUMPI PUSH1 0x20 SWAP3 DUP3 PUSH1 0x3 SHR ADD SLOAD PUSH1 0xE0 PUSH1 0x40 MLOAD SWAP4 PUSH1 0x5 SHL AND SHR AND DUP2 MSTORE RETURN JUMPDEST CALLVALUE PUSH2 0x226 JUMPI PUSH1 0x40 CALLDATASIZE PUSH1 0x3 NOT ADD SLT PUSH2 0x226 JUMPI PUSH2 0xC31 PUSH2 0x2391 JUMP JUMPDEST PUSH2 0xFFFF PUSH1 0x24 CALLDATALOAD AND PUSH1 0x24 CALLDATALOAD SUB PUSH2 0x226 JUMPI PUSH2 0xC4F PUSH1 0x2 PUSH1 0x1 SLOAD EQ ISZERO PUSH2 0x249E JUMP JUMPDEST PUSH1 0x2 PUSH1 0x1 SSTORE PUSH2 0xC63 PUSH1 0xFF PUSH1 0x2 SLOAD AND ISZERO PUSH2 0x24EA JUMP JUMPDEST PUSH1 0x3 SLOAD PUSH1 0xFF DUP2 PUSH1 0xA8 SHR AND PUSH2 0x1D30 JUMPI PUSH4 0xFFFFFFFF PUSH2 0xC350 SWAP2 AND LT ISZERO PUSH2 0x1B51 JUMPI CALLER PUSH1 0x0 MSTORE PUSH1 0x10 PUSH1 0x20 MSTORE PUSH1 0x40 PUSH1 0x0 KECCAK256 SLOAD TIMESTAMP LT PUSH2 0x1D1E JUMPI PUSH2 0xC9F CALLER PUSH2 0x23F4 JUMP JUMPDEST ISZERO PUSH2 0x1CEA JUMPI PUSH2 0xFFFF PUSH1 0x24 CALLDATALOAD AND ISZERO ISZERO DUP1 PUSH2 0x1CD9 JUMPI JUMPDEST ISZERO PUSH2 0x1CA5 JUMPI CALLER PUSH1 0x0 MSTORE PUSH1 0x7 PUSH1 0x20 MSTORE PUSH4 0xFFFFFFFF PUSH1 0x40 PUSH1 0x0 KECCAK256 SLOAD AND PUSH2 0x1C6B JUMPI PUSH1 0x1 PUSH1 0x1 PUSH1 0xA0 SHL SUB DUP2 AND PUSH1 0x0 SWAP1 DUP2 MSTORE PUSH1 0x7 PUSH1 0x20 MSTORE PUSH1 0x40 SWAP1 KECCAK256 SLOAD PUSH4 0xFFFFFFFF AND ISZERO DUP1 ISZERO SWAP1 PUSH2 0x1C5A JUMPI JUMPDEST ISZERO PUSH2 0x1C23 JUMPI PUSH2 0xE10 TIMESTAMP ADD TIMESTAMP GT PUSH2 0x172F JUMPI CALLER PUSH1 0x0 MSTORE PUSH1 0x10 PUSH1 0x20 MSTORE PUSH2 0xE10 TIMESTAMP ADD PUSH1 0x40 PUSH1 0x0 KECCAK256 SSTORE PUSH2 0xD30 PUSH2 0xD2B PUSH1 0x24 CALLDATALOAD PUSH2 0x2536 JUMP JUMPDEST PUSH2 0x23A7 JUMP JUMPDEST SWAP1 SLOAD PUSH1 0x4 SLOAD PUSH1 0x3 SWAP3 SWAP1 SWAP3 SHL SHR PUSH1 0x1 PUSH1 0x1 PUSH1 0x40 SHL SUB AND SWAP1 PUSH1 0x1 PUSH1 0x1 PUSH1 0x60 SHL SUB AND PUSH2 0xD59 DUP3 DUP3 PUSH2 0x2529 JUMP JUMPDEST LT PUSH2 0x1B3F JUMPI PUSH1 0x40 MLOAD PUSH4 0x23B872DD PUSH1 0xE0 SHL DUP2 MSTORE CALLER PUSH1 0x4 DUP3 ADD MSTORE ADDRESS PUSH1 0x24 DUP3 ADD MSTORE PUSH1 0x44 DUP2 ADD DUP3 SWAP1 MSTORE PUSH1 0x20 DUP2 PUSH1 0x64 DUP2 PUSH1 0x0 PUSH32 0x0 PUSH1 0x1 PUSH1 0x1 PUSH1 0xA0 SHL SUB AND GAS CALL SWAP1 DUP2 ISZERO PUSH2 0x1C17 JUMPI PUSH1 0x0 SWAP2 PUSH2 0x1BA7 JUMPI JUMPDEST POP ISZERO PUSH2 0x1B62 JUMPI PUSH1 0x3 SLOAD SWAP2 PUSH2 0xDDD PUSH4 0xFFFFFFFF DUP5 PUSH1 0x20 SHR AND PUSH2 0x254A JUMP JUMPDEST SWAP3 PUSH4 0xFFFFFFFF PUSH1 0x20 SHL DUP5 PUSH1 0x20 SHL AND SWAP1 PUSH4 0xFFFFFFFF PUSH1 0x20 SHL NOT AND OR PUSH1 0x3 SSTORE PUSH1 0x1 DUP1 PUSH1 0xA0 SHL SUB DUP2 AND PUSH1 0x0 MSTORE PUSH1 0x7 PUSH1 0x20 MSTORE PUSH4 0xFFFFFFFF PUSH1 0x40 PUSH1 0x0 KECCAK256 SLOAD AND PUSH1 0x40 MLOAD SWAP1 PUSH2 0xE24 DUP3 PUSH2 0x23D8 JUMP JUMPDEST PUSH4 0xFFFFFFFF DUP6 AND DUP3 MSTORE PUSH1 0x0 PUSH1 0x20 DUP4 ADD MSTORE PUSH1 0x0 PUSH1 0x40 DUP4 ADD MSTORE PUSH2 0xFFFF PUSH1 0x24 CALLDATALOAD AND PUSH1 0x60 DUP4 ADD MSTORE PUSH1 0x0 PUSH1 0x80 DUP4 ADD MSTORE PUSH1 0x0 PUSH1 0xA0 DUP4 ADD MSTORE PUSH1 0x0 PUSH1 0xC0 DUP4 ADD MSTORE PUSH1 0xE0 DUP3 ADD MSTORE PUSH4 0xFFFFFFFF TIMESTAMP AND PUSH2 0x100 DUP3 ADD MSTORE PUSH1 0x0 PUSH2 0x120 DUP3 ADD MSTORE PUSH1 0x1 PUSH2 0x140 DUP3 ADD MSTORE PUSH1 0x0 PUSH2 0x160 DUP3 ADD MSTORE PUSH1 0x0 PUSH2 0x180 DUP3 ADD MSTORE CALLER PUSH1 0x0 MSTORE PUSH1 0x7 PUSH1 0x20 MSTORE PUSH2 0x180 PUSH1 0x1 PUSH1 0x40 PUSH1 0x0 KECCAK256 PUSH4 0xFFFFFFFF DUP5 MLOAD AND PUSH4 0xFFFFFFFF NOT DUP3 SLOAD AND OR DUP2 SSTORE PUSH2 0xEC9 PUSH4 0xFFFFFFFF PUSH1 0x20 DUP7 ADD MLOAD AND DUP3 PUSH2 0x255F JUMP JUMPDEST PUSH2 0xEDB PUSH2 0xFFFF PUSH1 0x40 DUP7 ADD MLOAD AND DUP3 PUSH2 0x25B2 JUMP JUMPDEST PUSH1 0x60 DUP5 ADD MLOAD DUP2 SLOAD PUSH2 0xFFFF PUSH1 0x50 SHL NOT AND PUSH1 0x50 SWAP2 SWAP1 SWAP2 SHL PUSH2 0xFFFF PUSH1 0x50 SHL AND OR DUP2 SSTORE PUSH1 0x80 DUP5 ADD MLOAD PUSH2 0xF0F SWAP1 PUSH4 0xFFFFFFFF AND DUP3 PUSH2 0x247B JUMP JUMPDEST PUSH2 0xF24 DUP3 DUP1 PUSH1 0x40 SHL SUB PUSH1 0xA0 DUP7 ADD MLOAD AND DUP3 PUSH2 0x25D1 JUMP JUMPDEST PUSH2 0xF39 DUP3 DUP1 PUSH1 0x40 SHL SUB PUSH1 0xC0 DUP7 ADD MLOAD AND DUP3 PUSH2 0x25FA JUMP JUMPDEST ADD SWAP2 PUSH4 0xFFFFFFFF PUSH1 0xE0 DUP3 ADD MLOAD AND PUSH4 0xFFFFFFFF NOT DUP5 SLOAD AND OR DUP4 SSTORE PUSH2 0xF67 PUSH4 0xFFFFFFFF PUSH2 0x100 DUP4 ADD MLOAD AND DUP5 PUSH2 0x255F JUMP JUMPDEST PUSH2 0x120 DUP2 ADD MLOAD DUP4 SLOAD PUSH1 0xFF PUSH1 0x40 SHL NOT AND SWAP1 ISZERO ISZERO PUSH1 0x40 SHL PUSH1 0xFF PUSH1 0x40 SHL AND OR DUP4 SSTORE PUSH2 0x140 DUP2 ADD MLOAD PUSH2 0xF97 SWAP1 ISZERO ISZERO DUP5 PUSH2 0x2582 JUMP JUMPDEST PUSH2 0xFA9 PUSH1 0xFF PUSH2 0x160 DUP4 ADD MLOAD AND DUP5 PUSH2 0x261D JUMP JUMPDEST ADD MLOAD DUP2 SLOAD PUSH1 0xFF PUSH1 0x58 SHL NOT AND PUSH1 0x58 SWAP2 SWAP1 SWAP2 SHL PUSH1 0xFF PUSH1 0x58 SHL AND OR SWAP1 SSTORE PUSH4 0xFFFFFFFF DUP4 DUP2 AND PUSH1 0x0 SWAP1 DUP2 MSTORE PUSH1 0x8 PUSH1 0x20 MSTORE PUSH1 0x40 SWAP1 KECCAK256 DUP1 SLOAD PUSH1 0x1 PUSH1 0x1 PUSH1 0xA0 SHL SUB NOT AND CALLER OR SWAP1 SSTORE PUSH1 0x3 SLOAD SWAP1 PUSH2 0xC34F SWAP1 DUP3 AND LT ISZERO PUSH2 0x1B51 JUMPI PUSH4 0xFFFFFFFF PUSH2 0x1009 DUP2 DUP4 AND PUSH2 0x254A JUMP JUMPDEST AND SWAP1 PUSH4 0xFFFFFFFF NOT AND OR PUSH1 0x3 SSTORE PUSH2 0x1024 PUSH2 0xD2B PUSH1 0x24 CALLDATALOAD PUSH2 0x2536 JUMP JUMPDEST SWAP1 SLOAD PUSH1 0x4 SLOAD SWAP2 PUSH1 0x3 SHL SHR PUSH1 0x1 PUSH1 0x1 PUSH1 0x40 SHL SUB AND PUSH1 0x1 PUSH1 0x1 PUSH1 0x60 SHL SUB DUP3 AND PUSH2 0x104B DUP3 DUP3 PUSH2 0x2529 JUMP JUMPDEST LT PUSH2 0x1B3F JUMPI PUSH1 0x1 PUSH1 0x1 PUSH1 0x60 SHL SUB DUP3 DUP2 AND DUP3 ADD GT PUSH2 0x172F JUMPI PUSH1 0x1 PUSH1 0x1 PUSH1 0x60 SHL SUB NOT DUP3 AND PUSH1 0x1 PUSH1 0x1 PUSH1 0x60 SHL SUB SWAP3 DUP4 AND SWAP1 SWAP2 ADD SWAP1 SWAP2 AND OR PUSH1 0x4 SSTORE PUSH2 0x108A PUSH2 0x2662 JUMP JUMPDEST SWAP1 CALLER PUSH1 0x0 MSTORE PUSH1 0x7 PUSH1 0x20 MSTORE PUSH2 0x10A2 DUP3 PUSH1 0x40 PUSH1 0x0 KECCAK256 PUSH2 0x247B JUMP JUMPDEST PUSH1 0x1 JUMPDEST PUSH4 0xFFFFFFFF PUSH1 0x3 SLOAD PUSH1 0x20 SHR AND PUSH4 0xFFFFFFFF DUP3 AND GT PUSH2 0x1B37 JUMPI PUSH4 0xFFFFFFFF DUP2 AND PUSH1 0x0 SWAP1 DUP2 MSTORE PUSH1 0x8 PUSH1 0x20 MSTORE PUSH1 0x40 SWAP1 KECCAK256 SLOAD PUSH1 0x1 PUSH1 0x1 PUSH1 0xA0 SHL SUB AND DUP1 ISZERO ISZERO DUP1 PUSH2 0x1B0E JUMPI JUMPDEST PUSH2 0x10F8 JUMPI POP PUSH2 0x10F3 SWAP1 PUSH2 0x254A JUMP JUMPDEST PUSH2 0x10A5 JUMP JUMPDEST SWAP1 POP PUSH1 0x1 DUP4 SWAP5 SWAP3 SWAP4 AND ISZERO PUSH1 0x0 EQ PUSH2 0x1AC5 JUMPI CALLER PUSH1 0x0 MSTORE PUSH1 0x7 PUSH1 0x20 MSTORE PUSH4 0xFFFFFFFF PUSH1 0x40 PUSH1 0x0 KECCAK256 SLOAD AND PUSH4 0x7FFFFFFF DUP6 PUSH1 0x1 SHR AND PUSH1 0x0 MSTORE PUSH1 0x9 PUSH1 0x20 MSTORE PUSH1 0x40 PUSH1 0x0 KECCAK256 SWAP1 PUSH4 0xFFFFFFFF NOT DUP3 SLOAD AND OR SWAP1 SSTORE JUMPDEST PUSH1 0x0 MSTORE PUSH1 0x7 PUSH1 0x20 MSTORE PUSH4 0xFFFFFFFF PUSH1 0x40 PUSH1 0x0 KECCAK256 SLOAD AND CALLER PUSH1 0x0 MSTORE PUSH4 0xFFFFFFFF PUSH1 0x40 PUSH1 0x0 KECCAK256 SLOAD AND PUSH1 0x0 MSTORE PUSH1 0xA PUSH1 0x20 MSTORE PUSH1 0x40 PUSH1 0x0 KECCAK256 SWAP1 PUSH4 0xFFFFFFFF NOT DUP3 SLOAD AND OR SWAP1 SSTORE JUMPDEST PUSH1 0x1 PUSH1 0x1 PUSH1 0xA0 SHL SUB DUP3 AND PUSH2 0x17A2 JUMPI JUMPDEST DUP1 PUSH1 0x1 PUSH1 0x1 PUSH1 0xA0 SHL SUB DUP4 AND DUP1 ISZERO ISZERO SWAP1 PUSH2 0x1779 JUMPI JUMPDEST PUSH2 0x1745 JUMPI JUMPDEST PUSH1 0x11 SLOAD PUSH1 0xFF DUP2 PUSH1 0x90 SHR AND PUSH2 0x1662 JUMPI JUMPDEST POP POP PUSH2 0x11F7 PUSH2 0x11F7 SWAP2 PUSH2 0x11FC PUSH2 0x1770 SWAP2 DUP3 PUSH2 0x11D3 DUP3 PUSH2 0x2759 JUMP JUMPDEST DIV SWAP4 DUP4 DUP6 SWAP5 PUSH2 0x11E1 DUP5 PUSH2 0x2759 JUMP JUMPDEST DIV SWAP7 DUP8 SWAP2 PUSH2 0x11EE DUP6 PUSH2 0x2759 JUMP JUMPDEST DIV SWAP7 DUP8 SWAP5 PUSH2 0x263A JUMP JUMPDEST PUSH2 0x263A JUMP JUMPDEST PUSH1 0x5 DUP1 SLOAD SWAP2 SWAP5 SWAP1 SWAP3 SWAP1 SWAP2 PUSH1 0x1 PUSH1 0x1 PUSH1 0x40 SHL SUB SWAP2 DUP3 AND SWAP2 PUSH1 0x40 DUP3 SWAP1 SHR DUP2 AND SWAP1 DUP2 SWAP1 PUSH2 0x1226 DUP6 DUP4 PUSH2 0x2740 JUMP JUMPDEST AND LT ISZERO PUSH2 0x162E JUMPI POP POP DUP3 SLOAD PUSH1 0x40 DUP1 MLOAD PUSH1 0x60 DUP1 DUP3 MSTORE PUSH1 0x9 SWAP1 DUP3 ADD MSTORE PUSH9 0x1B195D995B141BDBDB PUSH1 0xBA SHL PUSH1 0x80 DUP3 ADD MSTORE SWAP2 DUP2 SHR PUSH1 0x1 PUSH1 0x1 PUSH1 0x40 SHL SUB SWAP1 DUP2 AND PUSH1 0x20 DUP5 ADD MSTORE SWAP1 DUP3 ADD MSTORE PUSH1 0x0 DUP1 MLOAD PUSH1 0x20 PUSH2 0x2B0B DUP4 CODECOPY DUP2 MLOAD SWAP2 MSTORE SWAP1 PUSH1 0xA0 SWAP1 LOG1 PUSH1 0x6 SLOAD SWAP1 PUSH1 0x1 PUSH1 0x40 SHL PUSH1 0x1 PUSH1 0x80 SHL SUB SWAP1 PUSH2 0x12A4 SWAP1 PUSH1 0x40 DUP5 SWAP1 SHR PUSH1 0x1 PUSH1 0x1 PUSH1 0x40 SHL SUB AND PUSH2 0x2740 JUMP JUMPDEST PUSH1 0x40 SHL AND PUSH1 0x1 PUSH1 0x40 SHL PUSH1 0x1 PUSH1 0x80 SHL SUB NOT SWAP2 SWAP1 SWAP2 AND OR PUSH1 0x6 SSTORE JUMPDEST DUP2 SLOAD PUSH1 0x1 PUSH1 0x1 PUSH1 0x40 SHL SUB SWAP2 DUP3 AND SWAP2 PUSH1 0x80 DUP3 SWAP1 SHR DUP2 AND SWAP1 DUP2 SWAP1 PUSH2 0x12DF DUP6 DUP4 PUSH2 0x2740 JUMP JUMPDEST AND LT ISZERO PUSH2 0x15FA JUMPI POP POP PUSH1 0x0 DUP1 MLOAD PUSH1 0x20 PUSH2 0x2B0B DUP4 CODECOPY DUP2 MLOAD SWAP2 MSTORE PUSH1 0xA0 PUSH1 0x1 DUP1 PUSH1 0x40 SHL SUB DUP5 SLOAD PUSH1 0x80 SHR AND PUSH1 0x40 MLOAD SWAP1 PUSH1 0x60 DUP3 MSTORE PUSH1 0xA PUSH1 0x60 DUP4 ADD MSTORE PUSH10 0x1D5C1B1A5B99541BDBDB PUSH1 0xB2 SHL PUSH1 0x80 DUP4 ADD MSTORE PUSH1 0x20 DUP3 ADD MSTORE PUSH1 0x1 DUP1 PUSH1 0x40 SHL SUB PUSH1 0x40 DUP3 ADD MSTORE LOG1 PUSH1 0x6 SLOAD SWAP1 PUSH1 0x1 PUSH1 0x40 SHL PUSH1 0x1 PUSH1 0x80 SHL SUB SWAP1 PUSH2 0x1361 SWAP1 PUSH1 0x40 DUP5 SWAP1 SHR PUSH1 0x1 PUSH1 0x1 PUSH1 0x40 SHL SUB AND PUSH2 0x2740 JUMP JUMPDEST PUSH1 0x40 SHL AND PUSH1 0x1 PUSH1 0x40 SHL PUSH1 0x1 PUSH1 0x80 SHL SUB NOT SWAP2 SWAP1 SWAP2 AND OR PUSH1 0x6 SSTORE JUMPDEST DUP1 SLOAD PUSH1 0x1 PUSH1 0x1 PUSH1 0x40 SHL SUB SWAP3 DUP4 AND SWAP3 PUSH1 0xC0 DUP3 SWAP1 SHR SWAP1 DUP2 SWAP1 PUSH2 0x139A DUP7 DUP4 PUSH2 0x2740 JUMP JUMPDEST AND LT ISZERO PUSH2 0x15CE JUMPI POP POP PUSH1 0xA0 PUSH1 0x0 DUP1 MLOAD PUSH1 0x20 PUSH2 0x2B0B DUP4 CODECOPY DUP2 MLOAD SWAP2 MSTORE SWAP2 SLOAD PUSH1 0xC0 SHR PUSH1 0x40 MLOAD SWAP1 PUSH1 0x60 DUP3 MSTORE PUSH1 0xA PUSH1 0x60 DUP4 ADD MSTORE PUSH10 0x1B195859195C941BDBDB PUSH1 0xB2 SHL PUSH1 0x80 DUP4 ADD MSTORE PUSH1 0x20 DUP3 ADD MSTORE PUSH1 0x1 DUP1 PUSH1 0x40 SHL SUB PUSH1 0x40 DUP3 ADD MSTORE LOG1 PUSH1 0x6 SLOAD SWAP1 PUSH1 0x1 PUSH1 0x40 SHL PUSH1 0x1 PUSH1 0x80 SHL SUB SWAP1 PUSH2 0x1414 SWAP1 PUSH1 0x40 DUP5 SWAP1 SHR PUSH1 0x1 PUSH1 0x1 PUSH1 0x40 SHL SUB AND PUSH2 0x2740 JUMP JUMPDEST PUSH1 0x40 SHL AND PUSH1 0x1 PUSH1 0x40 SHL PUSH1 0x1 PUSH1 0x80 SHL SUB NOT SWAP2 SWAP1 SWAP2 AND OR PUSH1 0x6 SSTORE JUMPDEST PUSH1 0x6 SLOAD PUSH1 0x1 PUSH1 0x1 PUSH1 0x40 SHL SUB SWAP2 DUP3 AND SWAP2 DUP1 DUP3 AND SWAP1 DUP2 SWAP1 PUSH2 0x144C DUP6 DUP4 PUSH2 0x2740 JUMP JUMPDEST AND LT ISZERO PUSH2 0x15A2 JUMPI POP POP PUSH1 0x6 SLOAD SWAP1 PUSH1 0x0 DUP1 MLOAD PUSH1 0x20 PUSH2 0x2B0B DUP4 CODECOPY DUP2 MLOAD SWAP2 MSTORE PUSH1 0xA0 PUSH1 0x40 MLOAD PUSH1 0x60 DUP2 MSTORE PUSH1 0x7 PUSH1 0x60 DUP3 ADD MSTORE PUSH7 0x19DA1C141BDBDB PUSH1 0xCA SHL PUSH1 0x80 DUP3 ADD MSTORE PUSH1 0x1 DUP1 PUSH1 0x40 SHL SUB DUP6 AND PUSH1 0x20 DUP3 ADD MSTORE PUSH1 0x1 DUP1 PUSH1 0x40 SHL SUB PUSH1 0x40 DUP3 ADD MSTORE LOG1 PUSH1 0x1 PUSH1 0x40 SHL PUSH1 0x1 PUSH1 0x80 SHL SUB SWAP1 PUSH2 0x14C6 SWAP1 PUSH1 0x40 DUP5 SWAP1 SHR PUSH1 0x1 PUSH1 0x1 PUSH1 0x40 SHL SUB AND PUSH2 0x2740 JUMP JUMPDEST PUSH1 0x40 SHL AND PUSH1 0x1 PUSH1 0x40 SHL PUSH1 0x1 PUSH1 0x80 SHL SUB NOT SWAP2 SWAP1 SWAP2 AND OR PUSH1 0x6 SSTORE JUMPDEST PUSH1 0x40 MLOAD PUSH1 0x24 CALLDATALOAD PUSH2 0xFFFF AND DUP2 MSTORE PUSH1 0x1 PUSH1 0x1 PUSH1 0xA0 SHL SUB SWAP1 SWAP2 AND SWAP1 PUSH4 0xFFFFFFFF DUP5 AND SWAP1 CALLER SWAP1 PUSH32 0xB433C284DBE5891DE4D6F33FDC7AED80ED70CDD48B50BCFD3FD7A38713236EE SWAP1 PUSH1 0x20 SWAP1 LOG4 CALLER PUSH1 0x0 MSTORE PUSH1 0x7 PUSH1 0x20 MSTORE PUSH4 0xFFFFFFFF PUSH1 0x40 PUSH1 0x0 KECCAK256 SLOAD AND PUSH1 0x0 MSTORE PUSH1 0xA PUSH1 0x20 MSTORE PUSH4 0xFFFFFFFF PUSH1 0x40 PUSH1 0x0 KECCAK256 SLOAD AND PUSH1 0x0 MSTORE PUSH1 0x8 PUSH1 0x20 MSTORE PUSH4 0xFFFFFFFF PUSH1 0x1 DUP1 PUSH1 0xA0 SHL SUB PUSH1 0x40 PUSH1 0x0 KECCAK256 SLOAD AND SWAP3 DUP2 PUSH1 0x40 MLOAD SWAP4 AND DUP4 MSTORE AND SWAP1 PUSH32 0x394121F5BD2F28750CBE3528FC442F7E4B1DD7B994E5B604FD0009624D59E211 PUSH1 0x20 CALLER SWAP3 LOG4 PUSH1 0x1 DUP1 SSTORE STOP JUMPDEST SWAP1 SWAP2 PUSH1 0x1 PUSH1 0x1 PUSH1 0x40 SHL SUB SWAP2 PUSH2 0x15B7 SWAP2 SWAP1 PUSH2 0x2740 JUMP JUMPDEST PUSH1 0x1 PUSH1 0x1 PUSH1 0x40 SHL SUB NOT SWAP1 SWAP3 AND SWAP2 AND OR PUSH1 0x6 SSTORE PUSH2 0x14DF JUMP JUMPDEST SWAP2 SWAP3 SWAP1 SWAP2 PUSH1 0x1 PUSH1 0x1 PUSH1 0xC0 SHL SUB NOT SWAP2 PUSH2 0x15E5 SWAP2 PUSH2 0x2740 JUMP JUMPDEST PUSH1 0xC0 SHL AND SWAP1 PUSH1 0x1 DUP1 PUSH1 0xC0 SHL SUB AND OR SWAP1 SSTORE PUSH2 0x142D JUMP JUMPDEST SWAP1 SWAP2 PUSH1 0x1 PUSH1 0x80 SHL PUSH1 0x1 PUSH1 0xC0 SHL SUB SWAP2 PUSH2 0x1612 SWAP2 SWAP1 PUSH2 0x2740 JUMP JUMPDEST PUSH1 0x80 SHL AND PUSH1 0x1 PUSH1 0x80 SHL PUSH1 0x1 PUSH1 0xC0 SHL SUB NOT SWAP2 SWAP1 SWAP2 AND OR DUP2 SSTORE PUSH2 0x137A JUMP JUMPDEST SWAP1 SWAP2 PUSH1 0x1 PUSH1 0x40 SHL PUSH1 0x1 PUSH1 0x80 SHL SUB SWAP2 PUSH2 0x1646 SWAP2 SWAP1 PUSH2 0x2740 JUMP JUMPDEST PUSH1 0x40 SHL AND PUSH1 0x1 PUSH1 0x40 SHL PUSH1 0x1 PUSH1 0x80 SHL SUB NOT SWAP2 SWAP1 SWAP2 AND OR DUP3 SSTORE PUSH2 0x12BD JUMP JUMPDEST SWAP1 SWAP2 PUSH2 0x1F4 SWAP2 DUP4 DUP4 DUP2 MUL DIV DUP4 EQ DUP5 ISZERO OR ISZERO PUSH2 0x172F JUMPI PUSH2 0x11F7 SWAP4 DUP5 SWAP4 PUSH2 0x2710 SWAP2 MUL DIV SWAP1 PUSH1 0x1 PUSH1 0x1 PUSH1 0x40 SHL SUB DUP2 AND DUP1 PUSH2 0x1699 DUP5 DUP3 PUSH2 0x2529 JUMP JUMPDEST LT ISZERO PUSH2 0x16F7 JUMPI POP POP PUSH1 0x11 SLOAD PUSH1 0x40 DUP1 MLOAD PUSH1 0x60 DUP1 DUP3 MSTORE PUSH1 0x8 SWAP1 DUP3 ADD MSTORE PUSH8 0x18DB1D58941BDBDB PUSH1 0xC2 SHL PUSH1 0x80 DUP3 ADD MSTORE PUSH1 0x1 PUSH1 0x1 PUSH1 0x40 SHL SUB SWAP3 DUP4 AND PUSH1 0x20 DUP3 ADD MSTORE SWAP1 DUP2 ADD SWAP2 SWAP1 SWAP2 MSTORE PUSH1 0x0 DUP1 MLOAD PUSH1 0x20 PUSH2 0x2B0B DUP4 CODECOPY DUP2 MLOAD SWAP2 MSTORE SWAP2 POP PUSH1 0xA0 SWAP1 LOG1 JUMPDEST SWAP2 PUSH2 0x11B9 JUMP JUMPDEST PUSH2 0x172A SWAP4 SWAP2 SWAP1 PUSH1 0x1 PUSH1 0x1 PUSH1 0x40 SHL SUB SWAP1 PUSH2 0x1713 SWAP1 DUP6 DUP4 AND SWAP1 PUSH2 0x2740 JUMP JUMPDEST PUSH1 0x1 PUSH1 0x1 PUSH1 0x40 SHL SUB NOT SWAP1 SWAP3 AND SWAP2 AND OR PUSH1 0x11 SSTORE PUSH2 0x263A JUMP JUMPDEST PUSH2 0x16F1 JUMP JUMPDEST PUSH4 0x4E487B71 PUSH1 0xE0 SHL PUSH1 0x0 MSTORE PUSH1 0x11 PUSH1 0x4 MSTORE PUSH1 0x24 PUSH1 0x0 REVERT JUMPDEST SWAP1 POP PUSH2 0xFA0 DUP2 DUP2 DUP2 MUL DIV DUP2 EQ DUP3 ISZERO OR ISZERO PUSH2 0x172F JUMPI PUSH2 0x2710 PUSH2 0x1773 SWAP2 DUP4 MUL DIV PUSH2 0x176D DUP2 DUP6 PUSH2 0x28B6 JUMP JUMPDEST DUP3 PUSH2 0x263A JUMP JUMPDEST SWAP1 PUSH2 0x11AA JUMP JUMPDEST POP PUSH1 0x1 PUSH1 0x1 PUSH1 0xA0 SHL SUB DUP4 AND PUSH1 0x0 SWAP1 DUP2 MSTORE PUSH1 0x7 PUSH1 0x20 MSTORE PUSH1 0x40 SWAP1 KECCAK256 PUSH1 0x1 ADD SLOAD PUSH1 0x58 SHR PUSH1 0xFF AND ISZERO PUSH2 0x11A5 JUMP JUMPDEST SWAP2 PUSH1 0x1 DUP1 PUSH1 0xA0 SHL SUB DUP3 AND PUSH1 0x0 MSTORE PUSH1 0x7 PUSH1 0x20 MSTORE PUSH2 0x17D3 PUSH1 0x40 PUSH1 0x0 KECCAK256 PUSH2 0x17CD PUSH2 0xFFFF DUP3 SLOAD PUSH1 0x40 SHR AND PUSH2 0x259F JUMP JUMPDEST SWAP1 PUSH2 0x25B2 JUMP JUMPDEST PUSH1 0x1 PUSH1 0x1 PUSH1 0xA0 SHL SUB DUP3 AND PUSH1 0x0 SWAP1 DUP2 MSTORE PUSH1 0x7 PUSH1 0x20 MSTORE PUSH1 0x40 SWAP1 KECCAK256 PUSH4 0xFFFFFFFF SWAP1 PUSH1 0x1 ADD PUSH2 0x1800 TIMESTAMP DUP4 AND DUP3 PUSH2 0x255F JUMP JUMPDEST SLOAD AND SWAP2 PUSH1 0x0 SWAP3 JUMPDEST PUSH4 0xFFFFFFFF DUP2 AND ISZERO ISZERO DUP1 PUSH2 0x1AB5 JUMPI JUMPDEST ISZERO PUSH2 0x1AA3 JUMPI PUSH4 0xFFFFFFFF DUP2 AND PUSH1 0x0 MSTORE PUSH1 0x8 PUSH1 0x20 MSTORE PUSH1 0x1 DUP1 PUSH1 0xA0 SHL SUB PUSH1 0x40 PUSH1 0x0 KECCAK256 SLOAD AND SWAP1 DUP2 PUSH1 0x0 MSTORE PUSH1 0x7 PUSH1 0x20 MSTORE PUSH4 0xFFFFFFFF PUSH1 0x40 PUSH1 0x0 KECCAK256 SLOAD PUSH1 0x20 SHR AND PUSH4 0xFFFFFFFE DUP2 LT ISZERO PUSH2 0x1943 JUMPI POP POP DUP1 PUSH1 0x0 MSTORE PUSH1 0x7 PUSH1 0x20 MSTORE PUSH2 0x1889 PUSH1 0x40 PUSH1 0x0 KECCAK256 PUSH2 0x1883 PUSH4 0xFFFFFFFF DUP3 SLOAD PUSH1 0x20 SHR AND PUSH2 0x254A JUMP JUMPDEST SWAP1 PUSH2 0x255F JUMP JUMPDEST DUP1 PUSH1 0x0 MSTORE PUSH1 0x7 PUSH1 0x20 MSTORE DUP1 PUSH1 0xFF PUSH1 0x1 PUSH1 0x40 PUSH1 0x0 KECCAK256 ADD PUSH2 0x18AD PUSH4 0xFFFFFFFF TIMESTAMP AND DUP3 PUSH2 0x255F JUMP JUMPDEST SLOAD PUSH1 0x50 SHR AND PUSH2 0x18BB DUP3 PUSH2 0x2770 JUMP JUMPDEST DUP2 PUSH1 0x0 MSTORE PUSH1 0x7 PUSH1 0x20 MSTORE PUSH1 0xFF PUSH1 0x1 PUSH1 0x40 PUSH1 0x0 KECCAK256 ADD SLOAD PUSH1 0x50 SHR AND DUP1 DUP3 SUB PUSH2 0x1904 JUMPI JUMPDEST POP POP POP PUSH1 0x0 MSTORE PUSH1 0x7 PUSH1 0x20 MSTORE PUSH2 0x18FE PUSH4 0xFFFFFFFF PUSH1 0x1 PUSH1 0x40 PUSH1 0x0 KECCAK256 ADD SLOAD AND SWAP4 PUSH2 0x254A JUMP JUMPDEST SWAP3 PUSH2 0x1807 JUMP JUMPDEST PUSH32 0xAC0A8A3E707A73F1F1E24B50123F328971C7AE3E1A4AB42E68BD6D69D6A37FF3 SWAP2 PUSH1 0x60 SWAP2 PUSH1 0x40 MLOAD SWAP2 DUP3 MSTORE PUSH1 0x20 DUP3 ADD MSTORE TIMESTAMP PUSH1 0x40 DUP3 ADD MSTORE LOG2 DUP1 DUP8 DUP1 PUSH2 0x18DB JUMP JUMPDEST PUSH1 0x1E SWAP3 POP SWAP5 PUSH1 0x0 DUP1 MLOAD PUSH1 0x20 PUSH2 0x2B0B DUP4 CODECOPY DUP2 MLOAD SWAP2 MSTORE PUSH1 0xA0 PUSH4 0xFFFFFFFF SWAP4 SWAP6 SWAP8 PUSH1 0x40 SWAP10 SWAP8 SWAP10 MLOAD SWAP1 PUSH1 0x60 DUP3 MSTORE PUSH1 0x8 PUSH1 0x60 DUP4 ADD MSTORE PUSH8 0x7465616D53697A65 PUSH1 0xC0 SHL PUSH1 0x80 DUP4 ADD MSTORE PUSH1 0x20 DUP3 ADD MSTORE DUP5 PUSH1 0x40 DUP3 ADD MSTORE LOG1 JUMPDEST AND LT SWAP1 DUP2 PUSH2 0x1A93 JUMPI JUMPDEST POP ISZERO PUSH2 0x1191 JUMPI PUSH1 0x40 MLOAD PUSH1 0x40 DUP2 MSTORE PUSH1 0x19 PUSH1 0x40 DUP3 ADD MSTORE PUSH25 0x24B739BAB33334B1B4B2B73A103AB83634B7329031B430B4B7 PUSH1 0x39 SHL PUSH1 0x60 DUP3 ADD MSTORE TIMESTAMP PUSH1 0x20 DUP3 ADD MSTORE PUSH32 0x6F351E36C7BABE44A5305E86F0248D29B31C4ECD9861B0AE6621B74C3C6615D2 PUSH1 0x80 PUSH1 0x1 DUP1 PUSH1 0xA0 SHL SUB DUP6 AND SWAP3 LOG2 CALLER PUSH1 0x0 MSTORE PUSH1 0x7 PUSH1 0x20 MSTORE PUSH2 0x1F4 PUSH2 0x1A28 PUSH2 0xD2B PUSH2 0xFFFF PUSH1 0x40 PUSH1 0x0 KECCAK256 SLOAD PUSH1 0x50 SHR AND PUSH2 0x2536 JUMP JUMPDEST PUSH1 0x1 DUP1 PUSH1 0x40 SHL SUB SWAP2 SLOAD SWAP1 PUSH1 0x3 SHL SHR AND MUL DUP1 PUSH1 0x1 DUP1 PUSH1 0x40 SHL SUB DUP2 AND SUB PUSH2 0x172F JUMPI PUSH1 0x6 SLOAD SWAP1 PUSH1 0x1 PUSH1 0x40 SHL PUSH1 0x1 PUSH1 0x80 SHL SUB SWAP1 PUSH2 0x1A76 SWAP1 PUSH2 0x2710 PUSH1 0x1 PUSH1 0x1 PUSH1 0x40 SHL SUB SWAP2 DUP3 AND DIV SWAP1 PUSH1 0x40 DUP6 SWAP1 SHR AND PUSH2 0x2740 JUMP JUMPDEST PUSH1 0x40 SHL AND PUSH1 0x1 PUSH1 0x40 SHL PUSH1 0x1 PUSH1 0x80 SHL SUB NOT SWAP2 SWAP1 SWAP2 AND OR PUSH1 0x6 SSTORE PUSH2 0x1191 JUMP JUMPDEST PUSH4 0xFFFFFFFF SWAP2 POP AND ISZERO ISZERO DUP6 PUSH2 0x199A JUMP JUMPDEST SWAP1 SWAP3 PUSH4 0xFFFFFFFF PUSH1 0x1E SWAP2 SWAP6 SWAP4 SWAP6 PUSH2 0x1991 JUMP JUMPDEST POP PUSH1 0x1E PUSH4 0xFFFFFFFF DUP6 AND LT PUSH2 0x1816 JUMP JUMPDEST CALLER PUSH1 0x0 MSTORE PUSH1 0x7 PUSH1 0x20 MSTORE PUSH1 0x40 PUSH1 0x0 KECCAK256 SLOAD PUSH4 0x7FFFFFFF DUP6 PUSH1 0x1 SHR AND PUSH1 0x0 MSTORE PUSH1 0x9 PUSH1 0x20 MSTORE PUSH1 0x40 PUSH1 0x0 KECCAK256 SWAP1 PUSH4 0xFFFFFFFF PUSH1 0x20 SHL NOT DUP3 SLOAD AND SWAP1 PUSH4 0xFFFFFFFF PUSH1 0x20 SHL SWAP1 PUSH1 0x20 SHL AND OR SWAP1 SSTORE PUSH2 0x1143 JUMP JUMPDEST POP DUP1 PUSH1 0x0 MSTORE PUSH1 0x7 PUSH1 0x20 MSTORE PUSH4 0x7FFFFFFF DUP5 PUSH1 0x1 SHR AND PUSH4 0xFFFFFFFF PUSH1 0x40 PUSH1 0x0 KECCAK256 SLOAD PUSH1 0x60 SHR AND EQ PUSH2 0x10E5 JUMP JUMPDEST POP SWAP1 SWAP2 PUSH2 0x1182 JUMP JUMPDEST PUSH1 0x40 MLOAD PUSH4 0x7883AD3D PUSH1 0xE1 SHL DUP2 MSTORE PUSH1 0x4 SWAP1 REVERT JUMPDEST PUSH1 0x40 MLOAD PUSH3 0xAAA601 PUSH1 0xE0 SHL DUP2 MSTORE PUSH1 0x4 SWAP1 REVERT JUMPDEST PUSH1 0x40 MLOAD PUSH3 0x461BCD PUSH1 0xE5 SHL DUP2 MSTORE PUSH1 0x20 PUSH1 0x4 DUP3 ADD MSTORE PUSH1 0x1E PUSH1 0x24 DUP3 ADD MSTORE PUSH32 0x5361666545524332303A207472616E7366657246726F6D206661696C65640000 PUSH1 0x44 DUP3 ADD MSTORE PUSH1 0x64 SWAP1 REVERT JUMPDEST SWAP1 POP PUSH1 0x20 RETURNDATASIZE PUSH1 0x20 GT PUSH2 0x1C10 JUMPI JUMPDEST PUSH1 0x1 PUSH1 0x1 PUSH1 0x40 SHL SUB PUSH1 0x1F DUP3 ADD PUSH1 0x1F NOT AND DUP4 ADD SWAP1 DUP2 GT SWAP1 DUP4 GT OR PUSH2 0x1BFA JUMPI DUP2 PUSH1 0x20 SWAP2 PUSH1 0x1F NOT PUSH1 0x1F DUP3 ADD AND DUP3 ADD PUSH1 0x40 MSTORE DUP2 ADD SUB SLT PUSH2 0x226 JUMPI MLOAD DUP1 ISZERO ISZERO DUP2 SUB PUSH2 0x226 JUMPI DUP4 PUSH2 0xDC1 JUMP JUMPDEST PUSH4 0x4E487B71 PUSH1 0xE0 SHL PUSH1 0x0 MSTORE PUSH1 0x41 PUSH1 0x4 MSTORE PUSH1 0x24 PUSH1 0x0 REVERT JUMPDEST POP RETURNDATASIZE PUSH2 0x1BB4 JUMP JUMPDEST PUSH1 0x40 MLOAD RETURNDATASIZE PUSH1 0x0 DUP3 RETURNDATACOPY RETURNDATASIZE SWAP1 REVERT JUMPDEST PUSH1 0x40 MLOAD PUSH3 0x461BCD PUSH1 0xE5 SHL DUP2 MSTORE PUSH1 0x20 PUSH1 0x4 DUP3 ADD MSTORE PUSH1 0xF PUSH1 0x24 DUP3 ADD MSTORE PUSH15 0x24B73B30B634B21039B837B739B7B9 PUSH1 0x89 SHL PUSH1 0x44 DUP3 ADD MSTORE PUSH1 0x64 SWAP1 REVERT JUMPDEST POP PUSH1 0x1 PUSH1 0x1 PUSH1 0xA0 SHL SUB DUP2 AND ISZERO PUSH2 0xCF9 JUMP JUMPDEST PUSH1 0x40 MLOAD PUSH3 0x461BCD PUSH1 0xE5 SHL DUP2 MSTORE PUSH1 0x20 PUSH1 0x4 DUP3 ADD MSTORE PUSH1 0x12 PUSH1 0x24 DUP3 ADD MSTORE PUSH18 0x105B1C9958591E481C9959DA5CDD195C9959 PUSH1 0x72 SHL PUSH1 0x44 DUP3 ADD MSTORE PUSH1 0x64 SWAP1 REVERT JUMPDEST PUSH1 0x40 MLOAD PUSH3 0x461BCD PUSH1 0xE5 SHL DUP2 MSTORE PUSH1 0x20 PUSH1 0x4 DUP3 ADD MSTORE PUSH1 0xC PUSH1 0x24 DUP3 ADD MSTORE PUSH12 0x24B73B30B634B2103A34B2B9 PUSH1 0xA1 SHL PUSH1 0x44 DUP3 ADD MSTORE PUSH1 0x64 SWAP1 REVERT JUMPDEST POP PUSH1 0x5 PUSH2 0xFFFF PUSH1 0x24 CALLDATALOAD AND GT ISZERO PUSH2 0xCB3 JUMP JUMPDEST PUSH1 0x40 MLOAD PUSH3 0x461BCD PUSH1 0xE5 SHL DUP2 MSTORE PUSH1 0x20 PUSH1 0x4 DUP3 ADD MSTORE PUSH1 0xC PUSH1 0x24 DUP3 ADD MSTORE PUSH12 0x12D650C81C995C5D5A5C9959 PUSH1 0xA2 SHL PUSH1 0x44 DUP3 ADD MSTORE PUSH1 0x64 SWAP1 REVERT JUMPDEST PUSH1 0x40 MLOAD PUSH4 0xA74C1C5F PUSH1 0xE0 SHL DUP2 MSTORE PUSH1 0x4 SWAP1 REVERT JUMPDEST PUSH1 0x40 MLOAD PUSH4 0x726994C9 PUSH1 0xE1 SHL DUP2 MSTORE PUSH1 0x4 SWAP1 REVERT JUMPDEST CALLVALUE PUSH2 0x226 JUMPI PUSH2 0x1D50 CALLDATASIZE PUSH2 0x2347 JUMP JUMPDEST POP POP PUSH1 0x40 MLOAD PUSH1 0x20 SWAP1 DUP2 DUP2 ADD PUSH1 0x1 PUSH1 0x1 PUSH1 0x40 SHL SUB DUP2 GT DUP3 DUP3 LT OR PUSH2 0x1BFA JUMPI PUSH1 0x40 MSTORE PUSH1 0x0 DUP2 MSTORE PUSH1 0x40 MLOAD DUP1 SWAP3 PUSH1 0x0 DUP3 MSTORE PUSH1 0x40 PUSH1 0x20 DUP4 ADD MSTORE DUP3 MLOAD SWAP1 DUP2 PUSH1 0x40 DUP5 ADD MSTORE PUSH1 0x0 SWAP4 JUMPDEST DUP3 DUP6 LT PUSH2 0x1DB4 JUMPI POP POP PUSH1 0x60 SWAP3 POP PUSH1 0x0 DUP4 DUP3 DUP5 ADD ADD MSTORE PUSH1 0x1F DUP1 NOT SWAP2 ADD AND DUP2 ADD SUB ADD SWAP1 RETURN JUMPDEST DUP5 DUP2 ADD DUP3 ADD MLOAD DUP7 DUP7 ADD PUSH1 0x60 ADD MSTORE SWAP4 DUP2 ADD SWAP4 DUP6 SWAP4 POP PUSH2 0x1D91 JUMP JUMPDEST CALLVALUE PUSH2 0x226 JUMPI PUSH1 0x20 CALLDATASIZE PUSH1 0x3 NOT ADD SLT PUSH2 0x226 JUMPI PUSH1 0x1 PUSH1 0x1 PUSH1 0xA0 SHL SUB PUSH2 0x1DEE PUSH2 0x2391 JUMP JUMPDEST AND PUSH1 0x0 MSTORE PUSH1 0xE PUSH1 0x20 MSTORE PUSH1 0x20 PUSH1 0x40 PUSH1 0x0 KECCAK256 SLOAD PUSH1 0x40 MLOAD SWAP1 DUP2 MSTORE RETURN JUMPDEST CALLVALUE PUSH2 0x226 JUMPI PUSH1 0x20 CALLDATASIZE PUSH1 0x3 NOT ADD SLT PUSH2 0x226 JUMPI PUSH2 0x1E20 PUSH2 0x2391 JUMP JUMPDEST PUSH1 0x0 PUSH2 0x180 PUSH1 0x40 MLOAD PUSH2 0x1E31 DUP2 PUSH2 0x23D8 JUMP JUMPDEST DUP3 DUP2 MSTORE DUP3 PUSH1 0x20 DUP3 ADD MSTORE DUP3 PUSH1 0x40 DUP3 ADD MSTORE DUP3 PUSH1 0x60 DUP3 ADD MSTORE DUP3 PUSH1 0x80 DUP3 ADD MSTORE DUP3 PUSH1 0xA0 DUP3 ADD MSTORE DUP3 PUSH1 0xC0 DUP3 ADD MSTORE DUP3 PUSH1 0xE0 DUP3 ADD MSTORE DUP3 PUSH2 0x100 DUP3 ADD MSTORE DUP3 PUSH2 0x120 DUP3 ADD MSTORE DUP3 PUSH2 0x140 DUP3 ADD MSTORE DUP3 PUSH2 0x160 DUP3 ADD MSTORE ADD MSTORE PUSH1 0x1 DUP1 PUSH1 0xA0 SHL SUB AND PUSH1 0x0 MSTORE PUSH1 0x7 PUSH1 0x20 MSTORE PUSH2 0x1A0 PUSH1 0x40 PUSH1 0x0 KECCAK256 PUSH1 0xFF PUSH2 0x180 PUSH1 0x40 MLOAD PUSH2 0x1EA5 DUP2 PUSH2 0x23D8 JUMP JUMPDEST DUP3 PUSH1 0x1 DUP6 SLOAD SWAP6 PUSH4 0xFFFFFFFF DUP8 AND DUP5 MSTORE PUSH4 0xFFFFFFFF DUP8 PUSH1 0x20 SHR AND PUSH1 0x20 DUP6 ADD MSTORE PUSH2 0xFFFF DUP8 PUSH1 0x40 SHR AND PUSH1 0x40 DUP6 ADD MSTORE PUSH2 0xFFFF DUP8 PUSH1 0x50 SHR AND PUSH1 0x60 DUP6 ADD MSTORE PUSH4 0xFFFFFFFF DUP8 PUSH1 0x60 SHR AND PUSH1 0x80 DUP6 ADD MSTORE DUP2 DUP1 PUSH1 0x40 SHL SUB DUP8 PUSH1 0x80 SHR AND PUSH1 0xA0 DUP6 ADD MSTORE DUP7 PUSH1 0xC0 SHR PUSH1 0xC0 DUP6 ADD MSTORE ADD SLOAD PUSH4 0xFFFFFFFF DUP2 AND PUSH1 0xE0 DUP5 ADD MSTORE PUSH4 0xFFFFFFFF DUP2 PUSH1 0x20 SHR AND PUSH2 0x100 DUP5 ADD MSTORE DUP2 DUP2 PUSH1 0x40 SHR AND ISZERO ISZERO PUSH2 0x120 DUP5 ADD MSTORE DUP2 DUP2 PUSH1 0x48 SHR AND ISZERO ISZERO PUSH2 0x140 DUP5 ADD MSTORE DUP2 DUP2 PUSH1 0x50 SHR AND PUSH2 0x160 DUP5 ADD MSTORE PUSH1 0x58 SHR AND DUP3 DUP3 ADD MSTORE PUSH4 0xFFFFFFFF PUSH1 0x40 MLOAD SWAP5 AND DUP5 MSTORE PUSH4 0xFFFFFFFF PUSH1 0x20 DUP3 ADD MLOAD AND PUSH1 0x20 DUP6 ADD MSTORE PUSH2 0xFFFF PUSH1 0x40 DUP3 ADD MLOAD AND PUSH1 0x40 DUP6 ADD MSTORE PUSH2 0xFFFF PUSH1 0x60 DUP3 ADD MLOAD AND PUSH1 0x60 DUP6 ADD MSTORE PUSH4 0xFFFFFFFF PUSH1 0x80 DUP3 ADD MLOAD AND PUSH1 0x80 DUP6 ADD MSTORE PUSH1 0x1 DUP1 PUSH1 0x40 SHL SUB PUSH1 0xA0 DUP3 ADD MLOAD AND PUSH1 0xA0 DUP6 ADD MSTORE PUSH1 0x1 DUP1 PUSH1 0x40 SHL SUB PUSH1 0xC0 DUP3 ADD MLOAD AND PUSH1 0xC0 DUP6 ADD MSTORE PUSH4 0xFFFFFFFF PUSH1 0xE0 DUP3 ADD MLOAD AND PUSH1 0xE0 DUP6 ADD MSTORE PUSH4 0xFFFFFFFF PUSH2 0x100 DUP3 ADD MLOAD AND PUSH2 0x100 DUP6 ADD MSTORE PUSH2 0x120 DUP2 ADD MLOAD ISZERO ISZERO PUSH2 0x120 DUP6 ADD MSTORE PUSH2 0x140 DUP2 ADD MLOAD ISZERO ISZERO PUSH2 0x140 DUP6 ADD MSTORE DUP3 PUSH2 0x160 DUP3 ADD MLOAD AND PUSH2 0x160 DUP6 ADD MSTORE ADD MLOAD AND PUSH2 0x180 DUP3 ADD MSTORE RETURN JUMPDEST CALLVALUE PUSH2 0x226 JUMPI PUSH1 0x20 CALLDATASIZE PUSH1 0x3 NOT ADD SLT PUSH2 0x226 JUMPI PUSH2 0x202F PUSH2 0x2334 JUMP JUMPDEST PUSH2 0x2044 PUSH1 0x1 DUP1 PUSH1 0xA0 SHL SUB PUSH1 0x0 SLOAD AND CALLER EQ PUSH2 0x2430 JUMP JUMPDEST PUSH1 0x11 SLOAD SWAP1 PUSH1 0xFF DUP3 PUSH1 0x90 SHR AND PUSH2 0x209D JUMPI PUSH1 0x40 MLOAD PUSH1 0xA0 DUP2 ADD PUSH1 0x1 PUSH1 0x1 PUSH1 0x40 SHL SUB DUP2 GT SWAP2 GT OR PUSH2 0x1BFA JUMPI PUSH1 0x60 SHL PUSH4 0xFFFFFFFF PUSH1 0x60 SHL AND PUSH1 0x1 PUSH1 0x1 PUSH1 0x98 SHL SUB NOT SWAP1 SWAP2 AND TIMESTAMP PUSH1 0x40 SHL PUSH4 0xFFFFFFFF PUSH1 0x40 SHL AND OR OR PUSH1 0x1 PUSH1 0x90 SHL OR PUSH1 0x11 SSTORE STOP JUMPDEST PUSH1 0x40 MLOAD PUSH3 0x461BCD PUSH1 0xE5 SHL DUP2 MSTORE PUSH1 0x20 PUSH1 0x4 DUP3 ADD MSTORE PUSH1 0x18 PUSH1 0x24 DUP3 ADD MSTORE PUSH24 0x436C756220706F6F6C20616C726561647920657869737473 PUSH1 0x40 SHL PUSH1 0x44 DUP3 ADD MSTORE PUSH1 0x64 SWAP1 REVERT JUMPDEST CALLVALUE PUSH2 0x226 JUMPI PUSH1 0x0 CALLDATASIZE PUSH1 0x3 NOT ADD SLT PUSH2 0x226 JUMPI PUSH1 0x20 PUSH1 0x40 MLOAD PUSH3 0x127500 DUP2 MSTORE RETURN JUMPDEST CALLVALUE PUSH2 0x226 JUMPI PUSH1 0x0 CALLDATASIZE PUSH1 0x3 NOT ADD SLT PUSH2 0x226 JUMPI PUSH1 0x20 PUSH1 0xFF PUSH1 0x2 SLOAD AND PUSH1 0x40 MLOAD SWAP1 ISZERO ISZERO DUP2 MSTORE RETURN JUMPDEST CALLVALUE PUSH2 0x226 JUMPI PUSH1 0x0 CALLDATASIZE PUSH1 0x3 NOT ADD SLT PUSH2 0x226 JUMPI PUSH1 0x20 PUSH1 0x40 MLOAD PUSH2 0x800 DUP2 MSTORE RETURN JUMPDEST CALLVALUE PUSH2 0x226 JUMPI PUSH1 0x20 CALLDATASIZE PUSH1 0x3 NOT ADD SLT PUSH2 0x226 JUMPI PUSH1 0x20 PUSH2 0x215E PUSH2 0x2159 PUSH2 0x2391 JUMP JUMPDEST PUSH2 0x23F4 JUMP JUMPDEST PUSH1 0x40 MLOAD SWAP1 ISZERO ISZERO DUP2 MSTORE RETURN JUMPDEST CALLVALUE PUSH2 0x226 JUMPI PUSH1 0x0 CALLDATASIZE PUSH1 0x3 NOT ADD SLT PUSH2 0x226 JUMPI PUSH1 0x40 MLOAD PUSH1 0x1 PUSH1 0x1 PUSH1 0x40 SHL SUB SWAP1 PUSH1 0xC0 DUP2 ADD SWAP1 DUP3 DUP3 GT DUP2 DUP4 LT OR PUSH2 0x1BFA JUMPI PUSH1 0xC0 SWAP2 PUSH1 0x40 MSTORE CALLDATASIZE SWAP1 CALLDATACOPY PUSH1 0x40 MLOAD SWAP1 PUSH1 0xC0 DUP3 ADD DUP3 DUP2 LT DUP3 DUP3 GT OR PUSH2 0x1BFA JUMPI DUP3 SWAP1 PUSH1 0x40 MSTORE PUSH1 0x5 SLOAD DUP3 DUP2 AND DUP3 MSTORE PUSH1 0x20 SWAP1 DUP4 DUP2 PUSH1 0x40 SHR AND PUSH1 0x20 DUP5 ADD MSTORE DUP4 DUP2 PUSH1 0x80 SHR AND PUSH1 0x40 DUP5 ADD MSTORE PUSH1 0xC0 SHR PUSH1 0x60 DUP4 ADD MSTORE PUSH1 0x6 SWAP2 DUP4 PUSH1 0x6 SLOAD DUP2 DUP2 AND PUSH1 0x80 DUP5 ADD MSTORE PUSH1 0x40 SHR AND PUSH1 0xA0 DUP3 ADD MSTORE PUSH1 0x40 MLOAD SWAP4 DUP5 SWAP2 SWAP1 PUSH1 0x0 SWAP3 JUMPDEST DUP6 DUP5 LT PUSH2 0x220E JUMPI PUSH1 0xC0 DUP8 RETURN JUMPDEST DUP5 DUP1 PUSH1 0x1 SWAP3 DUP5 DUP7 MLOAD AND DUP2 MSTORE ADD SWAP4 ADD SWAP4 ADD SWAP3 SWAP2 PUSH2 0x2202 JUMP JUMPDEST CALLVALUE PUSH2 0x226 JUMPI PUSH1 0x20 CALLDATASIZE PUSH1 0x3 NOT ADD SLT PUSH2 0x226 JUMPI PUSH1 0x1 PUSH1 0x1 PUSH1 0xA0 SHL SUB PUSH2 0x2246 PUSH2 0x2391 JUMP JUMPDEST AND PUSH1 0x0 MSTORE PUSH1 0xD PUSH1 0x20 MSTORE PUSH1 0x20 PUSH1 0x40 PUSH1 0x0 KECCAK256 SLOAD PUSH1 0x40 MLOAD SWAP1 DUP2 MSTORE RETURN JUMPDEST CALLVALUE PUSH2 0x226 JUMPI PUSH2 0x226D CALLDATASIZE PUSH2 0x2347 JUMP JUMPDEST POP POP PUSH1 0xFF PUSH1 0x3 SLOAD PUSH1 0xA8 SHR AND PUSH2 0x1D30 JUMPI STOP JUMPDEST CALLVALUE PUSH2 0x226 JUMPI PUSH1 0x0 CALLDATASIZE PUSH1 0x3 NOT ADD SLT PUSH2 0x226 JUMPI PUSH1 0x20 PUSH1 0x40 MLOAD PUSH1 0x10 DUP2 MSTORE RETURN JUMPDEST CALLVALUE PUSH2 0x226 JUMPI PUSH1 0x0 CALLDATASIZE PUSH1 0x3 NOT ADD SLT PUSH2 0x226 JUMPI PUSH1 0x20 PUSH1 0xFF PUSH1 0x14 SLOAD AND PUSH1 0x40 MLOAD SWAP1 ISZERO ISZERO DUP2 MSTORE RETURN JUMPDEST CALLVALUE PUSH2 0x226 JUMPI PUSH1 0x20 CALLDATASIZE PUSH1 0x3 NOT ADD SLT PUSH2 0x226 JUMPI PUSH4 0xFFFFFFFF PUSH2 0x22DB PUSH2 0x2334 JUMP JUMPDEST AND PUSH1 0x0 MSTORE PUSH1 0x8 PUSH1 0x20 MSTORE PUSH1 0x20 PUSH1 0x1 DUP1 PUSH1 0xA0 SHL SUB PUSH1 0x40 PUSH1 0x0 KECCAK256 SLOAD AND PUSH1 0x40 MLOAD SWAP1 DUP2 MSTORE RETURN JUMPDEST CALLVALUE PUSH2 0x226 JUMPI PUSH1 0x0 CALLDATASIZE PUSH1 0x3 NOT ADD SLT PUSH2 0x226 JUMPI PUSH1 0x20 PUSH1 0x40 MLOAD PUSH3 0x93A80 DUP2 MSTORE RETURN JUMPDEST CALLVALUE PUSH2 0x226 JUMPI PUSH1 0x0 CALLDATASIZE PUSH1 0x3 NOT ADD SLT PUSH2 0x226 JUMPI DUP1 PUSH1 0x1E PUSH1 0x20 SWAP3 MSTORE RETURN JUMPDEST PUSH1 0x4 CALLDATALOAD SWAP1 PUSH4 0xFFFFFFFF DUP3 AND DUP3 SUB PUSH2 0x226 JUMPI JUMP JUMPDEST SWAP1 PUSH1 0x20 PUSH1 0x3 NOT DUP4 ADD SLT PUSH2 0x226 JUMPI PUSH1 0x1 PUSH1 0x1 PUSH1 0x40 SHL SUB SWAP2 PUSH1 0x4 CALLDATALOAD SWAP1 DUP4 DUP3 GT PUSH2 0x226 JUMPI DUP1 PUSH1 0x23 DUP4 ADD SLT ISZERO PUSH2 0x226 JUMPI DUP2 PUSH1 0x4 ADD CALLDATALOAD SWAP4 DUP5 GT PUSH2 0x226 JUMPI PUSH1 0x24 DUP5 DUP4 ADD ADD GT PUSH2 0x226 JUMPI PUSH1 0x24 ADD SWAP2 SWAP1 JUMP JUMPDEST PUSH1 0x4 CALLDATALOAD SWAP1 PUSH1 0x1 PUSH1 0x1 PUSH1 0xA0 SHL SUB DUP3 AND DUP3 SUB PUSH2 0x226 JUMPI JUMP JUMPDEST SWAP1 PUSH1 0x5 DUP3 LT ISZERO PUSH2 0x23C2 JUMPI PUSH1 0x18 DUP3 PUSH1 0x2 SHR PUSH1 0xB ADD SWAP3 PUSH1 0x3 SHL AND SWAP1 JUMP JUMPDEST PUSH4 0x4E487B71 PUSH1 0xE0 SHL PUSH1 0x0 MSTORE PUSH1 0x32 PUSH1 0x4 MSTORE PUSH1 0x24 PUSH1 0x0 REVERT JUMPDEST PUSH2 0x1A0 DUP2 ADD SWAP1 DUP2 LT PUSH1 0x1 PUSH1 0x1 PUSH1 0x40 SHL SUB DUP3 GT OR PUSH2 0x1BFA JUMPI PUSH1 0x40 MSTORE JUMP JUMPDEST PUSH1 0x1 PUSH1 0x1 PUSH1 0xA0 SHL SUB AND PUSH1 0x0 SWAP1 DUP2 MSTORE PUSH1 0x13 PUSH1 0x20 MSTORE PUSH1 0x40 SWAP1 KECCAK256 SLOAD PUSH1 0xFF AND DUP1 ISZERO PUSH2 0x2418 JUMPI SWAP1 JUMP JUMPDEST POP PUSH1 0x7 PUSH1 0x20 MSTORE PUSH1 0xFF PUSH1 0x1 PUSH1 0x40 PUSH1 0x0 KECCAK256 ADD SLOAD PUSH1 0x48 SHR AND SWAP1 JUMP JUMPDEST ISZERO PUSH2 0x2437 JUMPI JUMP JUMPDEST PUSH1 0x64 PUSH1 0x40 MLOAD PUSH3 0x461BCD PUSH1 0xE5 SHL DUP2 MSTORE PUSH1 0x20 PUSH1 0x4 DUP3 ADD MSTORE PUSH1 0x20 PUSH1 0x24 DUP3 ADD MSTORE PUSH32 0x4F776E61626C653A2063616C6C6572206973206E6F7420746865206F776E6572 PUSH1 0x44 DUP3 ADD MSTORE REVERT JUMPDEST DUP1 SLOAD PUSH4 0xFFFFFFFF PUSH1 0x60 SHL NOT AND PUSH1 0x60 SWAP3 SWAP1 SWAP3 SHL PUSH4 0xFFFFFFFF PUSH1 0x60 SHL AND SWAP2 SWAP1 SWAP2 OR SWAP1 SSTORE JUMP JUMPDEST ISZERO PUSH2 0x24A5 JUMPI JUMP JUMPDEST PUSH1 0x40 MLOAD PUSH3 0x461BCD PUSH1 0xE5 SHL DUP2 MSTORE PUSH1 0x20 PUSH1 0x4 DUP3 ADD MSTORE PUSH1 0x1F PUSH1 0x24 DUP3 ADD MSTORE PUSH32 0x5265656E7472616E637947756172643A207265656E7472616E742063616C6C00 PUSH1 0x44 DUP3 ADD MSTORE PUSH1 0x64 SWAP1 REVERT JUMPDEST ISZERO PUSH2 0x24F1 JUMPI JUMP JUMPDEST PUSH1 0x40 MLOAD PUSH3 0x461BCD PUSH1 0xE5 SHL DUP2 MSTORE PUSH1 0x20 PUSH1 0x4 DUP3 ADD MSTORE PUSH1 0x10 PUSH1 0x24 DUP3 ADD MSTORE PUSH16 0x14185D5CD8589B194E881C185D5CD959 PUSH1 0x82 SHL PUSH1 0x44 DUP3 ADD MSTORE PUSH1 0x64 SWAP1 REVERT JUMPDEST SWAP2 SWAP1 DUP3 ADD DUP1 SWAP3 GT PUSH2 0x172F JUMPI JUMP JUMPDEST PUSH2 0xFFFF SWAP1 DUP2 AND PUSH1 0x0 NOT ADD SWAP2 SWAP1 DUP3 GT PUSH2 0x172F JUMPI JUMP JUMPDEST PUSH4 0xFFFFFFFF DUP1 SWAP2 AND SWAP1 DUP2 EQ PUSH2 0x172F JUMPI PUSH1 0x1 ADD SWAP1 JUMP JUMPDEST DUP1 SLOAD PUSH4 0xFFFFFFFF PUSH1 0x20 SHL NOT AND PUSH1 0x20 SWAP3 SWAP1 SWAP3 SHL PUSH4 0xFFFFFFFF PUSH1 0x20 SHL AND SWAP2 SWAP1 SWAP2 OR SWAP1 SSTORE JUMP JUMPDEST DUP1 SLOAD PUSH1 0xFF PUSH1 0x48 SHL NOT AND SWAP2 ISZERO ISZERO PUSH1 0x48 SHL PUSH1 0xFF PUSH1 0x48 SHL AND SWAP2 SWAP1 SWAP2 OR SWAP1 SSTORE JUMP JUMPDEST PUSH2 0xFFFF DUP1 SWAP2 AND SWAP1 DUP2 EQ PUSH2 0x172F JUMPI PUSH1 0x1 ADD SWAP1 JUMP JUMPDEST DUP1 SLOAD PUSH2 0xFFFF PUSH1 0x40 SHL NOT AND PUSH1 0x40 SWAP3 SWAP1 SWAP3 SHL PUSH2 0xFFFF PUSH1 0x40 SHL AND SWAP2 SWAP1 SWAP2 OR SWAP1 SSTORE JUMP JUMPDEST DUP1 SLOAD PUSH1 0x1 PUSH1 0x80 SHL PUSH1 0x1 PUSH1 0xC0 SHL SUB NOT AND PUSH1 0x80 SWAP3 SWAP1 SWAP3 SHL PUSH1 0x1 PUSH1 0x80 SHL PUSH1 0x1 PUSH1 0xC0 SHL SUB AND SWAP2 SWAP1 SWAP2 OR SWAP1 SSTORE JUMP JUMPDEST DUP1 SLOAD PUSH1 0x1 PUSH1 0x1 PUSH1 0xC0 SHL SUB AND PUSH1 0xC0 SWAP3 SWAP1 SWAP3 SHL PUSH1 0x1 PUSH1 0x1 PUSH1 0xC0 SHL SUB NOT AND SWAP2 SWAP1 SWAP2 OR SWAP1 SSTORE JUMP JUMPDEST DUP1 SLOAD PUSH1 0xFF PUSH1 0x50 SHL NOT AND PUSH1 0x50 SWAP3 SWAP1 SWAP3 SHL PUSH1 0xFF PUSH1 0x50 SHL AND SWAP2 SWAP1 SWAP2 OR SWAP1 SSTORE JUMP JUMPDEST SWAP2 SWAP1 DUP3 SUB SWAP2 DUP3 GT PUSH2 0x172F JUMPI JUMP JUMPDEST PUSH1 0x1 SHL SWAP1 PUSH5 0x1FFFFFFFE PUSH4 0xFFFFFFFE DUP4 AND SWAP3 AND DUP3 SUB PUSH2 0x172F JUMPI JUMP JUMPDEST PUSH1 0x1 DUP1 SWAP2 PUSH1 0x1 PUSH1 0x0 SWAP4 JUMPDEST PUSH2 0x2683 JUMPI JUMPDEST PUSH1 0x40 MLOAD PUSH4 0xA2A66EBF PUSH1 0xE0 SHL DUP2 MSTORE PUSH1 0x4 SWAP1 REVERT JUMPDEST PUSH4 0xFFFFFFFF DUP1 DUP3 AND SWAP1 DUP1 DUP3 LT DUP1 PUSH2 0x2733 JUMPI JUMPDEST ISZERO PUSH2 0x272C JUMPI PUSH2 0x26A3 DUP4 PUSH2 0x2647 JUMP JUMPDEST DUP6 DUP3 PUSH2 0x26AE DUP7 PUSH2 0x2647 JUMP JUMPDEST AND ADD SWAP3 DUP3 DUP5 GT PUSH2 0x172F JUMPI PUSH4 0xFFFFFFFE DUP1 DUP5 DUP5 AND LT SWAP1 DUP2 ISZERO SWAP2 PUSH2 0x271F JUMPI JUMPDEST POP PUSH2 0x1B3F JUMPI PUSH1 0x0 MSTORE PUSH1 0x20 PUSH1 0x9 DUP2 MSTORE PUSH1 0x40 PUSH1 0x0 KECCAK256 SLOAD SWAP2 DUP4 DUP4 AND ISZERO PUSH2 0x2713 JUMPI POP SHR AND ISZERO PUSH2 0x270B JUMPI POP PUSH2 0x2704 PUSH2 0x26FE DUP5 SWAP3 PUSH2 0x254A JUMP JUMPDEST SWAP5 PUSH2 0x254A JUMP JUMPDEST SWAP4 SWAP1 PUSH2 0x266C JUMP JUMPDEST SWAP3 POP POP SWAP2 POP SWAP1 JUMP JUMPDEST SWAP7 POP POP POP POP POP POP SWAP2 POP SWAP1 JUMP JUMPDEST SWAP1 POP DUP4 DUP6 AND LT ISZERO CODESIZE PUSH2 0x26CB JUMP JUMPDEST POP POP PUSH2 0x2671 JUMP JUMPDEST POP PUSH2 0xC350 DUP2 DUP8 AND LT PUSH2 0x2695 JUMP JUMPDEST PUSH1 0x1 PUSH1 0x1 PUSH1 0x40 SHL SUB SWAP2 DUP3 AND SWAP1 DUP3 AND ADD SWAP2 SWAP1 DUP3 GT PUSH2 0x172F JUMPI JUMP JUMPDEST SWAP1 PUSH2 0x3E8 SWAP2 DUP3 DUP2 MUL SWAP3 DUP2 DUP5 DIV EQ SWAP1 ISZERO OR ISZERO PUSH2 0x172F JUMPI JUMP JUMPDEST PUSH1 0x1 DUP1 PUSH1 0xA0 SHL SUB AND PUSH1 0x0 SWAP1 DUP1 DUP3 MSTORE PUSH1 0x20 SWAP2 PUSH1 0x7 DUP4 MSTORE PUSH1 0x40 DUP1 DUP3 KECCAK256 SWAP2 DUP3 SLOAD SWAP5 PUSH4 0xFFFFFFFF PUSH1 0x1 PUSH2 0xFFFF DUP3 DUP10 DUP6 SHR AND SWAP9 DUP7 SHR AND SWAP6 ADD SLOAD DUP3 SHR AND SWAP4 DUP3 SWAP5 PUSH3 0x76A700 DUP2 ADD DUP1 DUP3 GT PUSH2 0x28A2 JUMPI TIMESTAMP GT PUSH2 0x282A JUMPI JUMPDEST POP DUP7 PUSH2 0x1F4 PUSH2 0x27EB SWAP9 LT ISZERO DUP1 PUSH2 0x281F JUMPI JUMPDEST ISZERO PUSH2 0x27ED JUMPI POP POP PUSH1 0x1 SWAP4 POP PUSH1 0x7 SWAP1 PUSH1 0x2 SWAP6 JUMPDEST DUP4 MSTORE MSTORE KECCAK256 ADD PUSH2 0x261D JUMP JUMPDEST JUMP JUMPDEST PUSH1 0xFA GT ISZERO SWAP1 DUP2 PUSH2 0x2813 JUMPI JUMPDEST POP PUSH2 0x280A JUMPI JUMPDEST PUSH1 0x7 SWAP1 PUSH1 0x1 SWAP5 SWAP6 PUSH2 0x27E1 JUMP JUMPDEST PUSH1 0x1 SWAP4 POP PUSH2 0x27FE JUMP JUMPDEST PUSH1 0xA SWAP2 POP LT ISZERO CODESIZE PUSH2 0x27F8 JUMP JUMPDEST POP PUSH1 0x14 DUP3 LT ISZERO PUSH2 0x27CF JUMP JUMPDEST DUP7 DUP5 MSTORE PUSH1 0x7 DUP4 MSTORE PUSH1 0xFF PUSH1 0x1 DUP7 DUP7 KECCAK256 ADD SLOAD PUSH1 0x50 SHR AND SWAP1 DUP2 PUSH2 0x284A JUMPI POP PUSH2 0x27BE JUMP JUMPDEST PUSH1 0x1 SWAP9 POP DUP8 SWAP4 SWAP5 SWAP7 POP DUP6 SWAP8 SWAP3 POP SWAP5 PUSH32 0x8039C596008FFC957F48EB805A930583415E464BB81A75DC85D8B322C47F6255 SWAP2 PUSH2 0x2886 PUSH1 0x7 SWAP8 TIMESTAMP PUSH2 0x263A JUMP JUMPDEST DUP3 MLOAD SWAP2 DUP3 MSTORE DUP7 DUP3 ADD MSTORE LOG2 DUP4 MSTORE MSTORE KECCAK256 ADD DUP1 SLOAD PUSH1 0xFF PUSH1 0x50 SHL NOT AND SWAP1 SSTORE JUMP JUMPDEST PUSH4 0x4E487B71 PUSH1 0xE0 SHL DUP6 MSTORE PUSH1 0x11 PUSH1 0x4 MSTORE PUSH1 0x24 DUP6 REVERT JUMPDEST PUSH1 0x1 DUP1 PUSH1 0xA0 SHL SUB AND SWAP1 PUSH1 0x0 SWAP1 DUP3 DUP3 MSTORE PUSH1 0x7 PUSH1 0x20 SWAP4 DUP2 DUP6 MSTORE PUSH1 0x40 SWAP3 DUP4 DUP6 KECCAK256 PUSH1 0x1 DUP2 ADD SLOAD PUSH1 0xFF DUP2 DUP8 SHR AND SWAP1 DUP2 ISZERO PUSH2 0x2AFA JUMPI JUMPDEST POP PUSH2 0x2AF1 JUMPI PUSH2 0xD2B PUSH2 0xFFFF PUSH2 0x28FF SWAP3 SLOAD PUSH1 0x50 SHR AND PUSH2 0x2536 JUMP JUMPDEST SWAP1 SLOAD PUSH1 0x1 PUSH1 0x1 PUSH1 0x40 SHL SUB SWAP3 PUSH1 0x4 PUSH1 0x1 PUSH1 0x42 SHL SUB PUSH1 0x3 SWAP4 SWAP1 SWAP4 SHL SWAP2 SWAP1 SWAP2 SHR PUSH1 0x2 DUP2 SWAP1 SHL SWAP3 DUP4 AND SWAP3 SWAP2 SWAP1 DUP5 AND DUP1 ISZERO SWAP1 DUP5 DIV PUSH1 0x4 EQ OR ISZERO PUSH2 0x2ADD JUMPI DUP5 DUP9 MSTORE DUP6 DUP10 MSTORE DUP4 DUP8 DUP10 KECCAK256 SLOAD SWAP2 DUP2 PUSH2 0x2958 PUSH1 0x80 SWAP5 DUP3 DUP5 AND SWAP5 DUP6 SWAP2 DUP8 SHR AND PUSH2 0x2740 JUMP JUMPDEST DUP9 DUP13 MSTORE DUP10 DUP14 MSTORE DUP2 DUP12 DUP14 KECCAK256 SLOAD DUP7 SHR AND SWAP2 DUP3 SWAP2 AND LT PUSH2 0x2A92 JUMPI POP SWAP4 DUP11 SWAP6 SWAP4 DUP11 DUP11 DUP10 SWAP8 SWAP6 DUP12 PUSH2 0x27EB SWAP16 SWAP7 DUP7 PUSH1 0x1 SWAP16 SWAP15 SWAP14 SWAP10 PUSH2 0x299D SWAP1 DUP12 DUP9 MSTORE DUP5 DUP12 MSTORE DUP13 DUP8 DUP10 KECCAK256 SLOAD DUP8 SHR AND PUSH2 0x2529 JUMP JUMPDEST LT PUSH2 0x2A49 JUMPI POP PUSH2 0x2A03 SWAP3 DUP10 DUP16 SWAP7 SWAP6 SWAP4 DUP11 SWAP12 PUSH2 0x29E9 SWAP2 PUSH2 0x29FD SWAP6 PUSH32 0x2574CBC589C373C3542B5C7355F7A5091875A01B2B16DDD89BE1A7C909FC0F86 SWAP14 DUP9 MSTORE DUP13 MSTORE DUP5 DUP8 KECCAK256 SLOAD SWAP1 SHR AND DUP10 PUSH2 0x263A JUMP JUMPDEST AND SWAP3 DUP11 DUP2 MSTORE DUP14 DUP10 MSTORE KECCAK256 SWAP2 DUP3 SLOAD PUSH1 0xC0 SHR PUSH2 0x2740 JUMP JUMPDEST SWAP1 PUSH2 0x25FA JUMP JUMPDEST DUP6 DUP13 MSTORE DUP9 DUP5 MSTORE PUSH2 0x2A1E DUP11 DUP14 KECCAK256 SWAP2 PUSH1 0x4 DUP5 PUSH1 0x40 SHL SUB AND DUP3 PUSH2 0x25D1 JUMP JUMPDEST ADD DUP1 SLOAD PUSH1 0xFF PUSH1 0x40 SHL NOT AND PUSH1 0x40 DUP12 SWAP1 SHL OR SWAP1 SSTORE DUP8 MLOAD SWAP1 DUP2 MSTORE LOG2 JUMPDEST DUP6 MSTORE MSTORE PUSH4 0xFFFFFFFF TIMESTAMP AND SWAP3 KECCAK256 ADD PUSH2 0x255F JUMP JUMPDEST SWAP6 POP POP SWAP6 SWAP2 SWAP1 POP PUSH2 0x2A87 SWAP5 POP PUSH2 0x2A8D SWAP7 SWAP3 POP MSTORE DUP8 DUP8 MSTORE PUSH2 0x2A73 DUP10 DUP13 KECCAK256 PUSH2 0x29FD DUP5 DUP3 SLOAD PUSH1 0xC0 SHR PUSH2 0x2740 JUMP JUMPDEST DUP6 DUP12 MSTORE DUP8 DUP8 MSTORE DUP9 DUP12 KECCAK256 SWAP4 DUP5 SLOAD SWAP1 SHR AND PUSH2 0x2740 JUMP JUMPDEST SWAP1 PUSH2 0x25D1 JUMP JUMPDEST PUSH2 0x2A37 JUMP JUMPDEST SWAP6 SWAP8 POP POP POP SWAP6 PUSH1 0xA0 SWAP8 POP DUP1 SWAP5 POP PUSH1 0x0 DUP1 MLOAD PUSH1 0x20 PUSH2 0x2B0B DUP4 CODECOPY DUP2 MLOAD SWAP2 MSTORE SWAP9 SWAP3 POP PUSH13 0x746F74616C4561726E696E6773 PUSH1 0x98 SHL SWAP2 POP MLOAD SWAP6 PUSH1 0x60 DUP8 MSTORE PUSH1 0xD PUSH1 0x60 DUP9 ADD MSTORE DUP7 ADD MSTORE DUP5 ADD MSTORE DUP3 ADD MSTORE LOG1 JUMP JUMPDEST PUSH4 0x4E487B71 PUSH1 0xE0 SHL DUP9 MSTORE PUSH1 0x11 PUSH1 0x4 MSTORE PUSH1 0x24 DUP9 REVERT JUMPDEST POP POP POP POP POP POP POP JUMP JUMPDEST PUSH1 0xFF SWAP2 POP PUSH1 0x58 SHR AND ISZERO ISZERO CODESIZE PUSH2 0x28E6 JUMP INVALID DUP4 PUSH20 0x7177A6421EB29D7037A07114DDEC9131EDCD61A9 SAR MOD PUSH19 0xB2409404FFC172A26469706673582212206D8A 0x28 INVALID SWAP16 DUP8 SWAP9 SWAP15 PUSH4 0x1AFF0E54 TIMESTAMP MOD EXTCODESIZE NOT 0xCC SWAP9 PUSH1 0x26 DUP10 0x4F SHR PC JUMPDEST 0x2E 0xE 0x2A SWAP2 SWAP14 PUSH12 0x64736F6C6343000816003300 "},"methodIdentifiers":{"DIST_INTERVAL_GHP()":"02b4eed2","DIST_INTERVAL_LEADER()":"5d4d89ea","EARNINGS_CAP()":"c26a1eda","LEADER_DEMOTION_PERIOD()":"e4e232b3","MAX_CHILDREN_PER_NODE()":"556391d7","MAX_MATRIX_DEPTH()":"162ba288","MAX_USERS()":"fa6ac131","MIN_UPLINE_CHAIN()":"00a15afa","REGISTRATION_COOLDOWN()":"b0ff6383","addToClubPool()":"d0e13236","admin()":"f851a440","autoConfig()":"f038ce75","checkUpkeep(bytes)":"6e04ff0d","clubMembers(address)":"87371c17","clubPool()":"cf7a7e64","createClubPool(uint32)":"5f9a3bdb","dailyWithdrawalAmount(address)":"6b36f995","emergencyLock()":"d9c693cb","emergencyMode()":"0905f560","emergencyUnlock()":"f2c39992","getPoolBalances()":"52375bb1","getUserInfo(address)":"6386c1c7","isKYCVerified(address)":"54b7636e","kycVerified(address)":"a5410a66","lastDailyReset(address)":"7813d782","lastWithdrawalTime(address)":"4de5120e","matrix(uint32,uint256)":"75f1c8e5","matrixParent(uint32)":"fbed5208","owner()":"8da5cb5b","packages(uint256)":"c216212a","paused()":"5c975abb","performUpkeep(bytes)":"4585e33b","pools()":"c5c51dca","register(address,uint16)":"72be8d8d","registrationCooldown(address)":"ceb0a16f","setKYCStatus(address,bool)":"a3f569ae","state()":"c19d93fb","token()":"fc0c546a","transferOwnership(address)":"f2fde38b","userAddress(uint32)":"078fac75","users(address)":"a87430ba"}}}}}