{
  "_format": "hh-sol-artifact-1",
  "contractName": "OrphiCrowdFundV4UltraSecureTest",
  "sourceName": "standalone-v4ultra/OrphiCrowdFundV4UltraSecureTest.sol",
  "abi": [
    {
      "inputs": [
        {
          "internalType": "address",
          "name": "_token",
          "type": "address"
        },
        {
          "internalType": "address",
          "name": "_admin",
          "type": "address"
        }
      ],
      "stateMutability": "nonpayable",
      "type": "constructor"
    },
    {
      "inputs": [],
      "name": "InsufficientUplineChain",
      "type": "error"
    },
    {
      "inputs": [],
      "name": "InvalidMatrixPosition",
      "type": "error"
    },
    {
      "inputs": [],
      "name": "MaxUsersReached",
      "type": "error"
    },
    {
      "inputs": [],
      "name": "OverflowDetected",
      "type": "error"
    },
    {
      "inputs": [],
      "name": "RateLimitExceeded",
      "type": "error"
    },
    {
      "inputs": [],
      "name": "SecurityViolationError",
      "type": "error"
    },
    {
      "inputs": [],
      "name": "SystemLockedError",
      "type": "error"
    },
    {
      "anonymous": false,
      "inputs": [
        {
          "indexed": true,
          "internalType": "address",
          "name": "user",
          "type": "address"
        },
        {
          "indexed": false,
          "internalType": "uint256",
          "name": "totalEarnings",
          "type": "uint256"
        }
      ],
      "name": "EarningsCapReached",
      "type": "event"
    },
    {
      "anonymous": false,
      "inputs": [
        {
          "indexed": true,
          "internalType": "address",
          "name": "user",
          "type": "address"
        },
        {
          "indexed": false,
          "internalType": "uint256",
          "name": "timestamp",
          "type": "uint256"
        }
      ],
      "name": "KYCVerified",
      "type": "event"
    },
    {
      "anonymous": false,
      "inputs": [
        {
          "indexed": true,
          "internalType": "address",
          "name": "user",
          "type": "address"
        },
        {
          "indexed": false,
          "internalType": "uint8",
          "name": "oldRank",
          "type": "uint8"
        },
        {
          "indexed": false,
          "internalType": "uint256",
          "name": "inactivityPeriod",
          "type": "uint256"
        }
      ],
      "name": "LeaderDemoted",
      "type": "event"
    },
    {
      "anonymous": false,
      "inputs": [
        {
          "indexed": true,
          "internalType": "address",
          "name": "user",
          "type": "address"
        },
        {
          "indexed": false,
          "internalType": "uint8",
          "name": "oldRank",
          "type": "uint8"
        },
        {
          "indexed": false,
          "internalType": "uint8",
          "name": "newRank",
          "type": "uint8"
        },
        {
          "indexed": false,
          "internalType": "uint256",
          "name": "timestamp",
          "type": "uint256"
        }
      ],
      "name": "LeaderRankChanged",
      "type": "event"
    },
    {
      "anonymous": false,
      "inputs": [
        {
          "indexed": false,
          "internalType": "uint256",
          "name": "amount",
          "type": "uint256"
        },
        {
          "indexed": false,
          "internalType": "uint32",
          "name": "recipients",
          "type": "uint32"
        },
        {
          "indexed": false,
          "internalType": "uint256",
          "name": "timestamp",
          "type": "uint256"
        }
      ],
      "name": "LeftoverDistributed",
      "type": "event"
    },
    {
      "anonymous": false,
      "inputs": [
        {
          "indexed": true,
          "internalType": "address",
          "name": "user",
          "type": "address"
        },
        {
          "indexed": true,
          "internalType": "uint32",
          "name": "userId",
          "type": "uint32"
        },
        {
          "indexed": false,
          "internalType": "uint32",
          "name": "matrixPosition",
          "type": "uint32"
        },
        {
          "indexed": true,
          "internalType": "address",
          "name": "parent",
          "type": "address"
        }
      ],
      "name": "MatrixPlacement",
      "type": "event"
    },
    {
      "anonymous": false,
      "inputs": [
        {
          "indexed": false,
          "internalType": "string",
          "name": "operation",
          "type": "string"
        },
        {
          "indexed": false,
          "internalType": "uint256",
          "name": "value",
          "type": "uint256"
        },
        {
          "indexed": false,
          "internalType": "uint256",
          "name": "limit",
          "type": "uint256"
        }
      ],
      "name": "OverflowProtection",
      "type": "event"
    },
    {
      "anonymous": false,
      "inputs": [
        {
          "indexed": true,
          "internalType": "address",
          "name": "previousOwner",
          "type": "address"
        },
        {
          "indexed": true,
          "internalType": "address",
          "name": "newOwner",
          "type": "address"
        }
      ],
      "name": "OwnershipTransferred",
      "type": "event"
    },
    {
      "anonymous": false,
      "inputs": [
        {
          "indexed": false,
          "internalType": "address",
          "name": "account",
          "type": "address"
        }
      ],
      "name": "Paused",
      "type": "event"
    },
    {
      "anonymous": false,
      "inputs": [
        {
          "indexed": true,
          "internalType": "uint8",
          "name": "poolType",
          "type": "uint8"
        },
        {
          "indexed": false,
          "internalType": "uint256",
          "name": "amount",
          "type": "uint256"
        },
        {
          "indexed": false,
          "internalType": "uint32",
          "name": "timestamp",
          "type": "uint32"
        }
      ],
      "name": "PoolDistributed",
      "type": "event"
    },
    {
      "anonymous": false,
      "inputs": [
        {
          "indexed": true,
          "internalType": "address",
          "name": "user",
          "type": "address"
        },
        {
          "indexed": false,
          "internalType": "string",
          "name": "violation",
          "type": "string"
        },
        {
          "indexed": false,
          "internalType": "uint256",
          "name": "timestamp",
          "type": "uint256"
        }
      ],
      "name": "SecurityViolation",
      "type": "event"
    },
    {
      "anonymous": false,
      "inputs": [
        {
          "indexed": false,
          "internalType": "string",
          "name": "reason",
          "type": "string"
        },
        {
          "indexed": false,
          "internalType": "uint256",
          "name": "timestamp",
          "type": "uint256"
        }
      ],
      "name": "SystemLocked",
      "type": "event"
    },
    {
      "anonymous": false,
      "inputs": [
        {
          "indexed": false,
          "internalType": "uint256",
          "name": "timestamp",
          "type": "uint256"
        }
      ],
      "name": "SystemUnlocked",
      "type": "event"
    },
    {
      "anonymous": false,
      "inputs": [
        {
          "indexed": false,
          "internalType": "address",
          "name": "account",
          "type": "address"
        }
      ],
      "name": "Unpaused",
      "type": "event"
    },
    {
      "anonymous": false,
      "inputs": [
        {
          "indexed": true,
          "internalType": "address",
          "name": "user",
          "type": "address"
        },
        {
          "indexed": true,
          "internalType": "uint32",
          "name": "id",
          "type": "uint32"
        },
        {
          "indexed": true,
          "internalType": "address",
          "name": "sponsor",
          "type": "address"
        },
        {
          "indexed": false,
          "internalType": "uint16",
          "name": "tier",
          "type": "uint16"
        }
      ],
      "name": "UserRegistered",
      "type": "event"
    },
    {
      "inputs": [],
      "name": "DIST_INTERVAL_GHP",
      "outputs": [
        {
          "internalType": "uint256",
          "name": "",
          "type": "uint256"
        }
      ],
      "stateMutability": "view",
      "type": "function"
    },
    {
      "inputs": [],
      "name": "DIST_INTERVAL_LEADER",
      "outputs": [
        {
          "internalType": "uint256",
          "name": "",
          "type": "uint256"
        }
      ],
      "stateMutability": "view",
      "type": "function"
    },
    {
      "inputs": [],
      "name": "EARNINGS_CAP",
      "outputs": [
        {
          "internalType": "uint256",
          "name": "",
          "type": "uint256"
        }
      ],
      "stateMutability": "view",
      "type": "function"
    },
    {
      "inputs": [],
      "name": "LEADER_DEMOTION_PERIOD",
      "outputs": [
        {
          "internalType": "uint256",
          "name": "",
          "type": "uint256"
        }
      ],
      "stateMutability": "view",
      "type": "function"
    },
    {
      "inputs": [],
      "name": "MAX_CHILDREN_PER_NODE",
      "outputs": [
        {
          "internalType": "uint256",
          "name": "",
          "type": "uint256"
        }
      ],
      "stateMutability": "view",
      "type": "function"
    },
    {
      "inputs": [],
      "name": "MAX_MATRIX_DEPTH",
      "outputs": [
        {
          "internalType": "uint256",
          "name": "",
          "type": "uint256"
        }
      ],
      "stateMutability": "view",
      "type": "function"
    },
    {
      "inputs": [],
      "name": "MAX_USERS",
      "outputs": [
        {
          "internalType": "uint256",
          "name": "",
          "type": "uint256"
        }
      ],
      "stateMutability": "view",
      "type": "function"
    },
    {
      "inputs": [],
      "name": "MIN_UPLINE_CHAIN",
      "outputs": [
        {
          "internalType": "uint256",
          "name": "",
          "type": "uint256"
        }
      ],
      "stateMutability": "view",
      "type": "function"
    },
    {
      "inputs": [],
      "name": "REGISTRATION_COOLDOWN",
      "outputs": [
        {
          "internalType": "uint256",
          "name": "",
          "type": "uint256"
        }
      ],
      "stateMutability": "view",
      "type": "function"
    },
    {
      "inputs": [],
      "name": "addToClubPool",
      "outputs": [],
      "stateMutability": "nonpayable",
      "type": "function"
    },
    {
      "inputs": [],
      "name": "admin",
      "outputs": [
        {
          "internalType": "address",
          "name": "",
          "type": "address"
        }
      ],
      "stateMutability": "view",
      "type": "function"
    },
    {
      "inputs": [],
      "name": "autoConfig",
      "outputs": [
        {
          "internalType": "bool",
          "name": "enabled",
          "type": "bool"
        },
        {
          "internalType": "uint32",
          "name": "maxUsersPerDistribution",
          "type": "uint32"
        },
        {
          "internalType": "uint32",
          "name": "lastProcessedId",
          "type": "uint32"
        },
        {
          "internalType": "bool",
          "name": "isDistributing",
          "type": "bool"
        },
        {
          "internalType": "uint256",
          "name": "gasLimitConfig",
          "type": "uint256"
        }
      ],
      "stateMutability": "view",
      "type": "function"
    },
    {
      "inputs": [
        {
          "internalType": "bytes",
          "name": "",
          "type": "bytes"
        }
      ],
      "name": "checkUpkeep",
      "outputs": [
        {
          "internalType": "bool",
          "name": "upkeepNeeded",
          "type": "bool"
        },
        {
          "internalType": "bytes",
          "name": "performData",
          "type": "bytes"
        }
      ],
      "stateMutability": "view",
      "type": "function"
    },
    {
      "inputs": [
        {
          "internalType": "address",
          "name": "",
          "type": "address"
        }
      ],
      "name": "clubMembers",
      "outputs": [
        {
          "internalType": "bool",
          "name": "",
          "type": "bool"
        }
      ],
      "stateMutability": "view",
      "type": "function"
    },
    {
      "inputs": [],
      "name": "clubPool",
      "outputs": [
        {
          "internalType": "uint64",
          "name": "balance",
          "type": "uint64"
        },
        {
          "internalType": "uint32",
          "name": "lastDistributionTime",
          "type": "uint32"
        },
        {
          "internalType": "uint32",
          "name": "distributionInterval",
          "type": "uint32"
        },
        {
          "internalType": "uint16",
          "name": "memberCount",
          "type": "uint16"
        },
        {
          "internalType": "bool",
          "name": "active",
          "type": "bool"
        }
      ],
      "stateMutability": "view",
      "type": "function"
    },
    {
      "inputs": [
        {
          "internalType": "uint32",
          "name": "distributionInterval",
          "type": "uint32"
        }
      ],
      "name": "createClubPool",
      "outputs": [],
      "stateMutability": "nonpayable",
      "type": "function"
    },
    {
      "inputs": [
        {
          "internalType": "address",
          "name": "",
          "type": "address"
        }
      ],
      "name": "dailyWithdrawalAmount",
      "outputs": [
        {
          "internalType": "uint256",
          "name": "",
          "type": "uint256"
        }
      ],
      "stateMutability": "view",
      "type": "function"
    },
    {
      "inputs": [],
      "name": "emergencyLock",
      "outputs": [],
      "stateMutability": "nonpayable",
      "type": "function"
    },
    {
      "inputs": [],
      "name": "emergencyMode",
      "outputs": [
        {
          "internalType": "bool",
          "name": "",
          "type": "bool"
        }
      ],
      "stateMutability": "view",
      "type": "function"
    },
    {
      "inputs": [],
      "name": "emergencyUnlock",
      "outputs": [],
      "stateMutability": "nonpayable",
      "type": "function"
    },
    {
      "inputs": [],
      "name": "getPoolBalances",
      "outputs": [
        {
          "internalType": "uint64[6]",
          "name": "",
          "type": "uint64[6]"
        }
      ],
      "stateMutability": "view",
      "type": "function"
    },
    {
      "inputs": [
        {
          "internalType": "address",
          "name": "user",
          "type": "address"
        }
      ],
      "name": "getUserInfo",
      "outputs": [
        {
          "components": [
            {
              "internalType": "uint32",
              "name": "id",
              "type": "uint32"
            },
            {
              "internalType": "uint32",
              "name": "teamSize",
              "type": "uint32"
            },
            {
              "internalType": "uint16",
              "name": "directCount",
              "type": "uint16"
            },
            {
              "internalType": "uint16",
              "name": "packageTier",
              "type": "uint16"
            },
            {
              "internalType": "uint32",
              "name": "matrixPos",
              "type": "uint32"
            },
            {
              "internalType": "uint64",
              "name": "totalEarnings",
              "type": "uint64"
            },
            {
              "internalType": "uint64",
              "name": "withdrawable",
              "type": "uint64"
            },
            {
              "internalType": "uint32",
              "name": "sponsor",
              "type": "uint32"
            },
            {
              "internalType": "uint32",
              "name": "lastActivity",
              "type": "uint32"
            },
            {
              "internalType": "bool",
              "name": "isCapped",
              "type": "bool"
            },
            {
              "internalType": "bool",
              "name": "isKYCVerified",
              "type": "bool"
            },
            {
              "internalType": "uint8",
              "name": "leaderRank",
              "type": "uint8"
            },
            {
              "internalType": "uint8",
              "name": "suspensionLevel",
              "type": "uint8"
            }
          ],
          "internalType": "struct OrphiCrowdFundV4UltraSecureTest.User",
          "name": "",
          "type": "tuple"
        }
      ],
      "stateMutability": "view",
      "type": "function"
    },
    {
      "inputs": [
        {
          "internalType": "address",
          "name": "user",
          "type": "address"
        }
      ],
      "name": "isKYCVerified",
      "outputs": [
        {
          "internalType": "bool",
          "name": "",
          "type": "bool"
        }
      ],
      "stateMutability": "view",
      "type": "function"
    },
    {
      "inputs": [
        {
          "internalType": "address",
          "name": "",
          "type": "address"
        }
      ],
      "name": "kycVerified",
      "outputs": [
        {
          "internalType": "bool",
          "name": "",
          "type": "bool"
        }
      ],
      "stateMutability": "view",
      "type": "function"
    },
    {
      "inputs": [
        {
          "internalType": "address",
          "name": "",
          "type": "address"
        }
      ],
      "name": "lastDailyReset",
      "outputs": [
        {
          "internalType": "uint256",
          "name": "",
          "type": "uint256"
        }
      ],
      "stateMutability": "view",
      "type": "function"
    },
    {
      "inputs": [
        {
          "internalType": "address",
          "name": "",
          "type": "address"
        }
      ],
      "name": "lastWithdrawalTime",
      "outputs": [
        {
          "internalType": "uint256",
          "name": "",
          "type": "uint256"
        }
      ],
      "stateMutability": "view",
      "type": "function"
    },
    {
      "inputs": [
        {
          "internalType": "uint32",
          "name": "",
          "type": "uint32"
        },
        {
          "internalType": "uint256",
          "name": "",
          "type": "uint256"
        }
      ],
      "name": "matrix",
      "outputs": [
        {
          "internalType": "uint32",
          "name": "",
          "type": "uint32"
        }
      ],
      "stateMutability": "view",
      "type": "function"
    },
    {
      "inputs": [
        {
          "internalType": "uint32",
          "name": "",
          "type": "uint32"
        }
      ],
      "name": "matrixParent",
      "outputs": [
        {
          "internalType": "uint32",
          "name": "",
          "type": "uint32"
        }
      ],
      "stateMutability": "view",
      "type": "function"
    },
    {
      "inputs": [],
      "name": "owner",
      "outputs": [
        {
          "internalType": "address",
          "name": "",
          "type": "address"
        }
      ],
      "stateMutability": "view",
      "type": "function"
    },
    {
      "inputs": [
        {
          "internalType": "uint256",
          "name": "",
          "type": "uint256"
        }
      ],
      "name": "packages",
      "outputs": [
        {
          "internalType": "uint64",
          "name": "",
          "type": "uint64"
        }
      ],
      "stateMutability": "view",
      "type": "function"
    },
    {
      "inputs": [],
      "name": "paused",
      "outputs": [
        {
          "internalType": "bool",
          "name": "",
          "type": "bool"
        }
      ],
      "stateMutability": "view",
      "type": "function"
    },
    {
      "inputs": [
        {
          "internalType": "bytes",
          "name": "performData",
          "type": "bytes"
        }
      ],
      "name": "performUpkeep",
      "outputs": [],
      "stateMutability": "nonpayable",
      "type": "function"
    },
    {
      "inputs": [],
      "name": "pools",
      "outputs": [
        {
          "internalType": "uint64",
          "name": "sponsor",
          "type": "uint64"
        },
        {
          "internalType": "uint64",
          "name": "level",
          "type": "uint64"
        },
        {
          "internalType": "uint64",
          "name": "upline",
          "type": "uint64"
        },
        {
          "internalType": "uint64",
          "name": "leader",
          "type": "uint64"
        },
        {
          "internalType": "uint64",
          "name": "ghp",
          "type": "uint64"
        },
        {
          "internalType": "uint64",
          "name": "leftover",
          "type": "uint64"
        }
      ],
      "stateMutability": "view",
      "type": "function"
    },
    {
      "inputs": [
        {
          "internalType": "address",
          "name": "sponsor",
          "type": "address"
        },
        {
          "internalType": "uint16",
          "name": "tier",
          "type": "uint16"
        }
      ],
      "name": "register",
      "outputs": [],
      "stateMutability": "nonpayable",
      "type": "function"
    },
    {
      "inputs": [
        {
          "internalType": "address",
          "name": "",
          "type": "address"
        }
      ],
      "name": "registrationCooldown",
      "outputs": [
        {
          "internalType": "uint256",
          "name": "",
          "type": "uint256"
        }
      ],
      "stateMutability": "view",
      "type": "function"
    },
    {
      "inputs": [
        {
          "internalType": "address",
          "name": "user",
          "type": "address"
        },
        {
          "internalType": "bool",
          "name": "status",
          "type": "bool"
        }
      ],
      "name": "setKYCStatus",
      "outputs": [],
      "stateMutability": "nonpayable",
      "type": "function"
    },
    {
      "inputs": [],
      "name": "state",
      "outputs": [
        {
          "internalType": "uint32",
          "name": "totalUsers",
          "type": "uint32"
        },
        {
          "internalType": "uint32",
          "name": "lastUserId",
          "type": "uint32"
        },
        {
          "internalType": "uint32",
          "name": "lastGHPTime",
          "type": "uint32"
        },
        {
          "internalType": "uint32",
          "name": "lastLeaderTime",
          "type": "uint32"
        },
        {
          "internalType": "uint32",
          "name": "lastSecurityCheck",
          "type": "uint32"
        },
        {
          "internalType": "bool",
          "name": "automationOn",
          "type": "bool"
        },
        {
          "internalType": "bool",
          "name": "systemLocked",
          "type": "bool"
        },
        {
          "internalType": "uint96",
          "name": "totalVolume",
          "type": "uint96"
        }
      ],
      "stateMutability": "view",
      "type": "function"
    },
    {
      "inputs": [],
      "name": "token",
      "outputs": [
        {
          "internalType": "contract IERC20",
          "name": "",
          "type": "address"
        }
      ],
      "stateMutability": "view",
      "type": "function"
    },
    {
      "inputs": [
        {
          "internalType": "address",
          "name": "newOwner",
          "type": "address"
        }
      ],
      "name": "transferOwnership",
      "outputs": [],
      "stateMutability": "nonpayable",
      "type": "function"
    },
    {
      "inputs": [
        {
          "internalType": "uint32",
          "name": "",
          "type": "uint32"
        }
      ],
      "name": "userAddress",
      "outputs": [
        {
          "internalType": "address",
          "name": "",
          "type": "address"
        }
      ],
      "stateMutability": "view",
      "type": "function"
    },
    {
      "inputs": [
        {
          "internalType": "address",
          "name": "",
          "type": "address"
        }
      ],
      "name": "users",
      "outputs": [
        {
          "internalType": "uint32",
          "name": "id",
          "type": "uint32"
        },
        {
          "internalType": "uint32",
          "name": "teamSize",
          "type": "uint32"
        },
        {
          "internalType": "uint16",
          "name": "directCount",
          "type": "uint16"
        },
        {
          "internalType": "uint16",
          "name": "packageTier",
          "type": "uint16"
        },
        {
          "internalType": "uint32",
          "name": "matrixPos",
          "type": "uint32"
        },
        {
          "internalType": "uint64",
          "name": "totalEarnings",
          "type": "uint64"
        },
        {
          "internalType": "uint64",
          "name": "withdrawable",
          "type": "uint64"
        },
        {
          "internalType": "uint32",
          "name": "sponsor",
          "type": "uint32"
        },
        {
          "internalType": "uint32",
          "name": "lastActivity",
          "type": "uint32"
        },
        {
          "internalType": "bool",
          "name": "isCapped",
          "type": "bool"
        },
        {
          "internalType": "bool",
          "name": "isKYCVerified",
          "type": "bool"
        },
        {
          "internalType": "uint8",
          "name": "leaderRank",
          "type": "uint8"
        },
        {
          "internalType": "uint8",
          "name": "suspensionLevel",
          "type": "uint8"
        }
      ],
      "stateMutability": "view",
      "type": "function"
    }
  ],
  "bytecode": "0x60c034620003d557601f62002f8b38819003918201601f19168301916001600160401b0383118484101762000351578084926040948552833981010312620003d5576200005a60206200005283620003da565b9201620003da565b600080546001600160a01b03199081163317909155600180556002805460ff1990811690915560405191939160a081016001600160401b0381118282101762000351576040526301c9c38081526302faf08060208201526305f5e1006040820152630bebc2006060820152631dcd6500608082015260005b6001811062000390575060009060005b6001811062000367575050600c55601480549190911690556001600160a01b031660805260a0526040516101a081016001600160401b0381118282101762000351576040526001815260006020820152600060408201526005606082015260016080820152600060a0820152600060c0820152600060e082015263ffffffff42166101008201526000610120820152600161014082015260006101608201526000610180820152600080526007602052604060002090600163ffffffff8251169263ffffffff199384825416178155620001c763ffffffff6020850151168262000408565b6040830151815460608501516fffffffff000000000000000000000000608087015160601b16906bffff000000000000000000008660801b8760c01b0360a089015160801b169369ffff0000000000000000888060c01b031960c08b015160c01b169660401b1690888060401b0316179160501b16171717178155019163ffffffff60e083015116908354161782556200026d63ffffffff610100830151168362000408565b610120810151151590825469ff000000000000000000610140830151151560481b169068ff00000000000000006bff00000000000000000000006101806aff0000000000000000000061016087015160501b1695015160581b169460401b16906bffffffff0000000000000000191617171717905560016000526008602052604060002090815416905564010000000160035463ffffffff60801b4260801b169060016bffffffff000000000000000160401b0319161717600355604051612b6090816200042b82396080518181816101f70152610d88015260a051816102960152f35b634e487b7160e01b600052604160045260246000fd5b909160206200038660019263ffffffff865116908560031b90620003ef565b93019101620000e2565b6000805b60048110620003ac5750600b820155600101620000d2565b92906020620003cb60019263ffffffff855116908760031b90620003ef565b9201930162000394565b600080fd5b51906001600160a01b0382168203620003d557565b9060031b9160018060401b03809116831b921b19161790565b9067ffffffff0000000082549160201b169067ffffffff00000000191617905556fe608080604052600436101561001357600080fd5b60003560e01c908162a15afa1461231a5750806302b4eed2146122fc578063078fac75146122bd5780630905f5601461229a578063162ba2881461227e5780634585e33b1461225f5780634de5120e1461222557806352375bb11461216857806354b7636e1461213b578063556391d71461211e5780635c975abb146120fb5780635d4d89ea146120dd5780635f9a3bdb146120165780636386c1c714611e075780636b36f99514611dcd5780636e04ff0d14611d4257806372be8d8d14610c1857806375f1c8e514610bc45780637813d78214610b8a57806387371c1714610b4b5780638da5cb5b14610b22578063a3f569ae14610ab0578063a5410a6614610a71578063a87430ba14610999578063b0ff63831461097c578063c19d93fb146108fe578063c216212a146108bd578063c26a1eda146108a1578063c5c51dca14610848578063ceb0a16f1461080e578063cf7a7e64146107b2578063d0e13236146105b0578063d9c693cb146104d7578063e4e232b3146104b9578063f038ce7514610465578063f2c399921461038d578063f2fde38b146102c5578063f851a44014610280578063fa6ac13114610263578063fbed52081461022b5763fc0c546a146101e157600080fd5b34610226576000366003190112610226576040517f00000000000000000000000000000000000000000000000000000000000000006001600160a01b03168152602090f35b600080fd5b3461022657602036600319011261022657602063ffffffff8061024c612334565b16600052600a825260406000205416604051908152f35b3461022657600036600319011261022657602060405161c3508152f35b34610226576000366003190112610226576040517f00000000000000000000000000000000000000000000000000000000000000006001600160a01b03168152602090f35b34610226576020366003190112610226576102de612391565b600054906001600160a01b03906102f88284163314612430565b16908115610339576001600160a01b0319168117600090815581907f8be0079c531659141344cd1fd0a4f28419497f9722a3daafe3b4186f6b6457e09080a3005b60405162461bcd60e51b815260206004820152602660248201527f4f776e61626c653a206e6577206f776e657220697320746865207a65726f206160448201526564647265737360d01b6064820152608490fd5b34610226576000366003190112610226576103b360018060a01b03600054163314612430565b6003805460ff60a81b1916905560025460ff8116156104295760ff19166002557f5db9ee0a495bf2e6ff9c91a7834c1ba4fdd244a5e8aa4e537bd38aeae4b073aa6020604051338152a17f3e10b46f9c4daa09ffe0fbd5131f7a3bd8b2e6e570cef8d38c3fd8d3b2d552426020604051428152a1005b60405162461bcd60e51b815260206004820152601460248201527314185d5cd8589b194e881b9bdd081c185d5cd95960621b6044820152606490fd5b346102265760003660031901126102265760a060155463ffffffff9060ff601654916040519382821615158552808260081c1660208601528160281c16604085015260481c16151560608301526080820152f35b346102265760003660031901126102265760206040516276a7008152f35b34610226576000366003190112610226576104fd60018060a01b03600054163314612430565b6003805460ff60a81b1916600160a81b17905560025460019061052360ff8216156124ea565b60ff1916176002557f62e78cea01bee320cd4e420270b5ea74000d11b0c9f74754ebdbfc544b05a2586020604051338152a17fbcd8e986e105f13da777f7388098505da80a6ec23119b3d7efb070f3b87486946080604051604081526018604082015277115b595c99d95b98de481b1bd8dac81858dd1a5d985d195960421b6060820152426020820152a1005b346102265760003660031901126102265760016105d160028254141561249e565b6002815560ff60115460901c1615610776573360005260206012815260ff6040600020541661073c57336000526007815263ffffffff604060002054161561070757336000526007815261ffff9060038260406000205460501c16106106c957336000526007815260ff836040600020015460581c1661069157601290336000525260406000208260ff198254161790556011549061067a61ffff60801b918360801c1661259f565b60801b1661ffff60801b1991909116176011558055005b6064906040519062461bcd60e51b8252600482015260116024820152701058d8dbdd5b9d081cdd5cdc195b991959607a1b6044820152fd5b6064906040519062461bcd60e51b825260048201526017602482015276135a5b9a5b5d5b481d1a595c880cc81c995c5d5a5c9959604a1b6044820152fd5b6064906040519062461bcd60e51b82526004820152600e60248201526d139bdd081c9959da5cdd195c995960921b6044820152fd5b6064906040519062461bcd60e51b82526004820152601360248201527220b63932b0b23c9031b63ab11036b2b6b132b960691b6044820152fd5b60405162461bcd60e51b8152602060048201526014602482015273436c756220706f6f6c206e6f742061637469766560601b6044820152606490fd5b346102265760003660031901126102265760a060115460ff63ffffffff916040519260018060401b0382168452808260401c1660208501528160601c16604084015261ffff8160801c16606084015260901c1615156080820152f35b34610226576020366003190112610226576001600160a01b0361082f612391565b1660005260106020526020604060002054604051908152f35b346102265760003660031901126102265760c060055460018060401b03600654604051928281168452828160401c166020850152828160801c166040850152841c6060840152818116608084015260401c1660a0820152f35b3461022657600036600319011261022657602060405160048152f35b34610226576020366003190112610226576004356005811015610226576108e56020916123a7565b905460405160039290921b1c6001600160401b03168152f35b346102265760003660031901126102265761010060035463ffffffff9060ff60018060601b036004541691604051938082168552808260201c166020860152808260401c166040860152808260601c1660608601528160801c166080850152818160a01c16151560a085015260a81c16151560c083015260e0820152f35b34610226576000366003190112610226576020604051610e108152f35b34610226576020366003190112610226576001600160a01b036109ba612391565b1660005260076020526101a0604060002060ff815463ffffffff600161ffff94015491604051948282168652828260201c166020870152808260401c1660408701528160501c166060860152818160601c16608086015260018060401b038160801c1660a086015260c01c60c085015280821660e08501528160201c16610100840152818160401c161515610120840152818160481c161515610140840152818160501c1661016084015260581c16610180820152f35b34610226576020366003190112610226576001600160a01b03610a92612391565b166000526013602052602060ff604060002054166040519015158152f35b3461022657604036600319011261022657610ac9612391565b60243580151580820361022657600054610b20936001600160a01b0391610af39083163314612430565b16600052601360205260406000209060ff8019835416911617905560076020526001604060002001612582565b005b34610226576000366003190112610226576000546040516001600160a01b039091168152602090f35b34610226576020366003190112610226576001600160a01b03610b6c612391565b166000526012602052602060ff604060002054166040519015158152f35b34610226576020366003190112610226576001600160a01b03610bab612391565b16600052600f6020526020604060002054604051908152f35b3461022657604036600319011261022657610bdd612334565b60243563ffffffff80921660005260096020526040600020916002821015610226576020928260031c015460e06040519360051b161c168152f35b3461022657604036600319011261022657610c31612391565b61ffff602435166024350361022657610c4f6002600154141561249e565b6002600155610c6360ff60025416156124ea565b60035460ff8160a81c16611d305763ffffffff61c35091161015611b51573360005260106020526040600020544210611d1e57610c9f336123f4565b15611cea5761ffff60243516151580611cd9575b15611ca55733600052600760205263ffffffff60406000205416611c6b576001600160a01b03811660009081526007602052604090205463ffffffff1615801590611c5a575b15611c2357610e104201421161172f57336000526010602052610e104201604060002055610d30610d2b602435612536565b6123a7565b905460045460039290921b1c6001600160401b0316906001600160601b0316610d598282612529565b10611b3f576040516323b872dd60e01b81523360048201523060248201526044810182905260208160648160007f00000000000000000000000000000000000000000000000000000000000000006001600160a01b03165af1908115611c1757600091611ba7575b5015611b625760035491610ddd63ffffffff8460201c1661254a565b9263ffffffff60201b8460201b169063ffffffff60201b19161760035560018060a01b038116600052600760205263ffffffff6040600020541660405190610e24826123d8565b63ffffffff85168252600060208301526000604083015261ffff60243516606083015260006080830152600060a0830152600060c083015260e082015263ffffffff421661010082015260006101208201526001610140820152600061016082015260006101808201523360005260076020526101806001604060002063ffffffff84511663ffffffff19825416178155610ec963ffffffff6020860151168261255f565b610edb61ffff604086015116826125b2565b6060840151815461ffff60501b191660509190911b61ffff60501b161781556080840151610f0f9063ffffffff168261247b565b610f24828060401b0360a086015116826125d1565b610f39828060401b0360c086015116826125fa565b019163ffffffff60e08201511663ffffffff19845416178355610f6763ffffffff610100830151168461255f565b610120810151835460ff60401b191690151560401b60ff60401b16178355610140810151610f9790151584612582565b610fa960ff610160830151168461261d565b0151815460ff60581b191660589190911b60ff60581b1617905563ffffffff838116600090815260086020526040902080546001600160a01b031916331790556003549061c34f9082161015611b515763ffffffff61100981831661254a565b169063ffffffff191617600355611024610d2b602435612536565b90546004549160031b1c6001600160401b03166001600160601b03821661104b8282612529565b10611b3f576001600160601b0382811682011161172f576001600160601b031982166001600160601b039283169091019091161760045561108a612662565b903360005260076020526110a282604060002061247b565b60015b63ffffffff60035460201c1663ffffffff821611611b375763ffffffff81166000908152600860205260409020546001600160a01b031680151580611b0e575b6110f857506110f39061254a565b6110a5565b90506001839492931615600014611ac55733600052600760205263ffffffff60406000205416637fffffff8560011c16600052600960205260406000209063ffffffff198254161790555b600052600760205263ffffffff604060002054163360005263ffffffff60406000205416600052600a60205260406000209063ffffffff198254161790555b6001600160a01b0382166117a2575b806001600160a01b03831680151590611779575b611745575b60115460ff8160901c16611662575b50506111f76111f7916111fc61177091826111d382612759565b04938385946111e184612759565b049687916111ee85612759565b0496879461263a565b61263a565b600580549194909290916001600160401b0391821691604082901c81169081906112268583612740565b16101561162e5750508254604080516060808252600990820152681b195d995b141bdbdb60ba1b608082015291811c6001600160401b03908116602084015290820152600080516020612b0b8339815191529060a090a160065490600160401b600160801b03906112a490604084901c6001600160401b0316612740565b60401b16600160401b600160801b031991909116176006555b81546001600160401b0391821691608082901c81169081906112df8583612740565b1610156115fa575050600080516020612b0b83398151915260a060018060401b03845460801c166040519060608252600a6060830152691d5c1b1a5b99541bdbdb60b21b6080830152602082015260018060401b036040820152a160065490600160401b600160801b039061136190604084901c6001600160401b0316612740565b60401b16600160401b600160801b031991909116176006555b80546001600160401b039283169260c082901c90819061139a8683612740565b1610156115ce57505060a0600080516020612b0b833981519152915460c01c6040519060608252600a6060830152691b195859195c941bdbdb60b21b6080830152602082015260018060401b036040820152a160065490600160401b600160801b039061141490604084901c6001600160401b0316612740565b60401b16600160401b600160801b031991909116176006555b6006546001600160401b039182169180821690819061144c8583612740565b1610156115a257505060065490600080516020612b0b83398151915260a060405160608152600760608201526619da1c141bdbdb60ca1b608082015260018060401b038516602082015260018060401b036040820152a1600160401b600160801b03906114c690604084901c6001600160401b0316612740565b60401b16600160401b600160801b031991909116176006555b60405160243561ffff1681526001600160a01b039091169063ffffffff84169033907f0b433c284dbe5891de4d6f33fdc7aed80ed70cdd48b50bcfd3fd7a38713236ee90602090a433600052600760205263ffffffff60406000205416600052600a60205263ffffffff60406000205416600052600860205263ffffffff60018060a01b036040600020541692816040519316835216907f394121f5bd2f28750cbe3528fc442f7e4b1dd7b994e5b604fd0009624d59e21160203392a460018055005b90916001600160401b03916115b79190612740565b6001600160401b03199092169116176006556114df565b919290916001600160c01b0319916115e591612740565b60c01b169060018060c01b031617905561142d565b9091600160801b600160c01b03916116129190612740565b60801b16600160801b600160c01b03199190911617815561137a565b9091600160401b600160801b03916116469190612740565b60401b16600160401b600160801b0319919091161782556112bd565b90916101f491838381020483148415171561172f576111f7938493612710910204906001600160401b038116806116998482612529565b10156116f75750506011546040805160608082526008908201526718db1d58941bdbdb60c21b60808201526001600160401b03928316602082015290810191909152600080516020612b0b833981519152915060a090a15b916111b9565b61172a9391906001600160401b03906117139085831690612740565b6001600160401b031990921691161760115561263a565b6116f1565b634e487b7160e01b600052601160045260246000fd5b9050610fa0818181020481148215171561172f576127106117739183020461176d81856128b6565b8261263a565b906111aa565b506001600160a01b03831660009081526007602052604090206001015460581c60ff16156111a5565b9160018060a01b03821660005260076020526117d360406000206117cd61ffff825460401c1661259f565b906125b2565b6001600160a01b038216600090815260076020526040902063ffffffff906001016118004283168261255f565b5416916000925b63ffffffff8116151580611ab5575b15611aa35763ffffffff8116600052600860205260018060a01b03604060002054169081600052600760205263ffffffff60406000205460201c1663fffffffe811015611943575050806000526007602052611889604060002061188363ffffffff825460201c1661254a565b9061255f565b8060005260076020528060ff60016040600020016118ad63ffffffff42168261255f565b5460501c166118bb82612770565b81600052600760205260ff60016040600020015460501c16808203611904575b50505060005260076020526118fe63ffffffff600160406000200154169361254a565b92611807565b7fac0a8a3e707a73f1f1e24b50123f328971c7ae3e1a4ab42e68bd6d69d6a37ff3916060916040519182526020820152426040820152a28087806118db565b601e925094600080516020612b0b83398151915260a063ffffffff939597604099979951906060825260086060830152677465616d53697a6560c01b60808301526020820152846040820152a15b16109081611a93575b50156111915760405160408152601960408201527824b739bab33334b1b4b2b73a103ab83634b7329031b430b4b760391b60608201524260208201527f6f351e36c7babe44a5305e86f0248d29b31c4ecd9861b0ae6621b74c3c6615d2608060018060a01b03851692a23360005260076020526101f4611a28610d2b61ffff60406000205460501c16612536565b60018060401b0391549060031b1c16028060018060401b0381160361172f5760065490600160401b600160801b0390611a76906127106001600160401b039182160490604085901c16612740565b60401b16600160401b600160801b03199190911617600655611191565b63ffffffff91501615158561199a565b909263ffffffff601e91959395611991565b50601e63ffffffff851610611816565b336000526007602052604060002054637fffffff8560011c16600052600960205260406000209063ffffffff60201b198254169063ffffffff60201b9060201b16179055611143565b50806000526007602052637fffffff8460011c1663ffffffff60406000205460601c16146110e5565b509091611182565b604051637883ad3d60e11b8152600490fd5b60405162aaa60160e01b8152600490fd5b60405162461bcd60e51b815260206004820152601e60248201527f5361666545524332303a207472616e7366657246726f6d206661696c656400006044820152606490fd5b905060203d602011611c10575b6001600160401b03601f8201601f1916830190811190831117611bfa5781602091601f19601f820116820160405281010312610226575180151581036102265783610dc1565b634e487b7160e01b600052604160045260246000fd5b503d611bb4565b6040513d6000823e3d90fd5b60405162461bcd60e51b815260206004820152600f60248201526e24b73b30b634b21039b837b739b7b960891b6044820152606490fd5b506001600160a01b03811615610cf9565b60405162461bcd60e51b8152602060048201526012602482015271105b1c9958591e481c9959da5cdd195c995960721b6044820152606490fd5b60405162461bcd60e51b815260206004820152600c60248201526b24b73b30b634b2103a34b2b960a11b6044820152606490fd5b50600561ffff602435161115610cb3565b60405162461bcd60e51b815260206004820152600c60248201526b12d650c81c995c5d5a5c995960a21b6044820152606490fd5b60405163a74c1c5f60e01b8152600490fd5b60405163726994c960e11b8152600490fd5b3461022657611d5036612347565b50506040516020908181016001600160401b03811182821017611bfa5760405260008152604051809260008252604060208301528251908160408401526000935b828510611db4575050606092506000838284010152601f80199101168101030190f35b8481018201518686016060015293810193859350611d91565b34610226576020366003190112610226576001600160a01b03611dee612391565b16600052600e6020526020604060002054604051908152f35b3461022657602036600319011261022657611e20612391565b6000610180604051611e31816123d8565b8281528260208201528260408201528260608201528260808201528260a08201528260c08201528260e082015282610100820152826101208201528261014082015282610160820152015260018060a01b031660005260076020526101a0604060002060ff610180604051611ea5816123d8565b82600185549563ffffffff8716845263ffffffff8760201c16602085015261ffff8760401c16604085015261ffff8760501c16606085015263ffffffff8760601c166080850152818060401b038760801c1660a08501528660c01c60c0850152015463ffffffff811660e084015263ffffffff8160201c16610100840152818160401c161515610120840152818160481c161515610140840152818160501c1661016084015260581c168282015263ffffffff6040519416845263ffffffff602082015116602085015261ffff604082015116604085015261ffff606082015116606085015263ffffffff608082015116608085015260018060401b0360a08201511660a085015260018060401b0360c08201511660c085015263ffffffff60e08201511660e085015263ffffffff61010082015116610100850152610120810151151561012085015261014081015115156101408501528261016082015116610160850152015116610180820152f35b346102265760203660031901126102265761202f612334565b61204460018060a01b03600054163314612430565b6011549060ff8260901c1661209d5760405160a081016001600160401b038111911117611bfa5760601b63ffffffff60601b166001600160981b03199091164260401b63ffffffff60401b161717600160901b17601155005b60405162461bcd60e51b8152602060048201526018602482015277436c756220706f6f6c20616c72656164792065786973747360401b6044820152606490fd5b34610226576000366003190112610226576020604051621275008152f35b3461022657600036600319011261022657602060ff600254166040519015158152f35b346102265760003660031901126102265760206040516108008152f35b3461022657602036600319011261022657602061215e612159612391565b6123f4565b6040519015158152f35b34610226576000366003190112610226576040516001600160401b039060c081019082821181831017611bfa5760c0916040523690376040519060c0820182811082821117611bfa5782906040526005548281168252602090838160401c166020840152838160801c16604084015260c01c606083015260069183600654818116608084015260401c1660a0820152604051938491906000925b85841061220e5760c087f35b848060019284865116815201930193019291612202565b34610226576020366003190112610226576001600160a01b03612246612391565b16600052600d6020526020604060002054604051908152f35b346102265761226d36612347565b505060ff60035460a81c16611d3057005b3461022657600036600319011261022657602060405160108152f35b3461022657600036600319011261022657602060ff601454166040519015158152f35b346102265760203660031901126102265763ffffffff6122db612334565b166000526008602052602060018060a01b0360406000205416604051908152f35b3461022657600036600319011261022657602060405162093a808152f35b346102265760003660031901126102265780601e60209252f35b6004359063ffffffff8216820361022657565b906020600319830112610226576001600160401b03916004359083821161022657806023830112156102265781600401359384116102265760248483010111610226576024019190565b600435906001600160a01b038216820361022657565b9060058210156123c25760188260021c600b019260031b1690565b634e487b7160e01b600052603260045260246000fd5b6101a081019081106001600160401b03821117611bfa57604052565b6001600160a01b031660009081526013602052604090205460ff1680156124185790565b50600760205260ff60016040600020015460481c1690565b1561243757565b606460405162461bcd60e51b815260206004820152602060248201527f4f776e61626c653a2063616c6c6572206973206e6f7420746865206f776e65726044820152fd5b805463ffffffff60601b191660609290921b63ffffffff60601b16919091179055565b156124a557565b60405162461bcd60e51b815260206004820152601f60248201527f5265656e7472616e637947756172643a207265656e7472616e742063616c6c006044820152606490fd5b156124f157565b60405162461bcd60e51b815260206004820152601060248201526f14185d5cd8589b194e881c185d5cd95960821b6044820152606490fd5b9190820180921161172f57565b61ffff908116600019019190821161172f57565b63ffffffff80911690811461172f5760010190565b805463ffffffff60201b191660209290921b63ffffffff60201b16919091179055565b805460ff60481b191691151560481b60ff60481b16919091179055565b61ffff80911690811461172f5760010190565b805461ffff60401b191660409290921b61ffff60401b16919091179055565b8054600160801b600160c01b03191660809290921b600160801b600160c01b0316919091179055565b80546001600160c01b031660c09290921b6001600160c01b031916919091179055565b805460ff60501b191660509290921b60ff60501b16919091179055565b9190820391821161172f57565b60011b906401fffffffe63fffffffe83169216820361172f57565b6001809160016000935b612683575b60405163a2a66ebf60e01b8152600490fd5b63ffffffff8082169080821080612733575b1561272c576126a383612647565b85826126ae86612647565b16019282841161172f5763fffffffe80848416109081159161271f575b50611b3f57600052602060098152604060002054918383161561271357501c161561270b57506127046126fe849261254a565b9461254a565b939061266c565b925050915090565b96505050505050915090565b90508385161015386126cb565b5050612671565b5061c35081871610612695565b6001600160401b03918216908216019190821161172f57565b906103e89182810292818404149015171561172f57565b60018060a01b03166000908082526020916007835260408082209182549463ffffffff600161ffff8289851c1698861c16950154821c169382946276a70081018082116128a257421161282a575b50866101f46127eb9810158061281f575b156127ed575050600193506007906002955b835252200161261d565b565b60fa11159081612813575b5061280a575b600790600194956127e1565b600193506127fe565b600a91501015386127f8565b5060148210156127cf565b8684526007835260ff6001868620015460501c16908161284a57506127be565b60019850879394965085979250947f8039c596008ffc957f48eb805a930583415e464bb81a75dc85d8b322c47f6255916128866007974261263a565b825191825286820152a28352522001805460ff60501b19169055565b634e487b7160e01b85526011600452602485fd5b60018060a01b0316906000908282526007602093818552604092838520600181015460ff81871c16908115612afa575b50612af157610d2b61ffff6128ff925460501c16612536565b90546001600160401b03926004600160421b0360039390931b9190911c600281901b928316929190841680159084046004141715612add5784885285895283878920549181612958608094828416948591871c16612740565b888c52898d52818b8d2054861c169182911610612a925750938a95938a8a8997958b6127eb9f968660019f9e9d9961299d908b8852848b528c87892054871c16612529565b10612a495750612a0392898f9695938a9b6129e9916129fd957f2574cbc589c373c3542b5c7355f7a5091875a01b2b16ddd89be1a7c909fc0f869d88528c5284872054901c168961263a565b16928a81528d89522091825460c01c612740565b906125fa565b858c52888452612a1e8a8d209160048460401b0316826125d1565b01805460ff60401b191660408b901b1790558751908152a25b85525263ffffffff421692200161255f565b95505095919050612a879450612a8d96925052878752612a73898c206129fd84825460c01c612740565b858b52878752888b20938454901c16612740565b906125d1565b612a37565b95975050509560a09750809450600080516020612b0b8339815191529892506c746f74616c4561726e696e677360981b9150519560608752600d6060880152860152840152820152a1565b634e487b7160e01b88526011600452602488fd5b50505050505050565b60ff915060581c161515386128e656fe83737177a6421eb29d7037a07114ddec9131edcd61a91d0672b2409404ffc172a26469706673582212206d8a28fe9f87989e631aff0e5442063b19cc986026894f1c585b2e0e2a919d6b64736f6c63430008160033",
  "linkReferences": {},
  "deployedLinkReferences": {}
}